:020000040800F2
:1000000008BB0020B1020008F73B0008D336000807
:10001000F53B000829060008FF4A00080000000020
:10002000000000000000000000000000F1010008D6
:10003000EB060008000000004D020008653D0008C6
:10004000CB020008CB020008CB020008CB0200085C
:10005000CB020008CB020008CB020008CB0200084C
:10006000CB020008CB020008CB020008CB0200083C
:10007000CB020008CB020008CB020008CB0200082C
:10008000CB020008CB020008CB020008CB0200081C
:10009000F94A0008CB020008CB020008CB02000896
:1000A000CB020008CB020008CB020008CB020008FC
:1000B000013E0008CB020008CB020008CB0200087A
:1000C000CB020008CB020008CB020008CB020008DC
:1000D000CB020008CB020008CB020008CB020008CC
:1000E000CB020008CB020008CB020008CB020008BC
:1000F000CB020008CB020008CB020008CB020008AC
:10010000CB020008CB020008CB020008CB0200089B
:10011000CB020008CB0200080D3E0008CB0200080D
:10012000CB020008CB020008CB020008CB0200087B
:10013000CB020008CB020008CB020008CB0200086B
:100140002D060008CB020008CB02000800000000CA
:10015000000000000000000000000000000000009F
:10016000000000000000000000000000CB020008BA
:10017000CB020008CB020008CB020008CB0200082B
:10018000CB020008CB020008CB020008CB0200081B
:10019000CB02000800000000CB020008CB020008E0
:1001A000CB020008CB020008CB020008CB020008FB
:1001B000CB020008CB020008CB020008CB020008EB
:1001C000CB020008CB020008CB020008CB020008DB
:1001D000CB020008CB020008DFF810D000F004F9D1
:1001E00000480047F1520008AFF3008008BB002030
:1001F0002C4B19680868B0E8F04F80F30988BFF30A
:100200006F8F4FF0000080F31188704700000000EE
:1002100008480068006880F308884FF0000080F309
:10022000148862B661B6BFF34F8FBFF36F8F00DFE4
:1002300000BF00BF08ED00E0DFF80C00016841F4EA
:1002400070010160704700BF88ED00E0EFF30980A6
:10025000BFF36F8F134B1A681EF0100F08BF20ED0D
:10026000108A20E9F04F106009B44FF0500080F37D
:100270001188BFF34F8FBFF36F8F07F0FDFA4FF078
:10028000000080F3118809BC19680868B0E8F04FD5
:100290001EF0100F08BFB0EC108A80F30988BFF37E
:1002A0006F8F70472C000020EFF30580704700002F
:1002B0000648804706480047FEE7FEE7FEE7FEE700
:1002C000FEE7FEE7FEE7FEE7FEE7FEE7F13D00089A
:1002D000D90100082DE9F05F0546002092469B46B3
:1002E00088460646814640241BE02846414647464C
:1002F000224600F068F853465A46C01A914110D37E
:1003000011461846224600F04FF82D1A67EB0108F7
:100310004F4622460120002100F046F817EB000965
:100320004E41201EA4F10104DFDC484631462A4636
:100330004346BDE8F09F10B5431A934209D2831893
:10034000881803E010F8011D03F8011D521EF9D2B0
:1003500010BD40EA01039B0703D009E008C9121F42
:1003600008C0042AFAD203E011F8013B00F8013B6F
:10037000521EF9D210BDD2B201E000F8012B491E85
:10038000FBD270470022F6E710B513460A46044632
:100390001946FFF7F0FF204610BD421C10F8011B64
:1003A0000029FBD1801A7047202A04DB203A00FA8A
:1003B00002F1002070479140C2F1200320FA03F3BC
:1003C000194390407047202A04DB203A21FA02F0BA
:1003D0000021704721FA02F3D040C2F1200291407F
:1003E0000843194670470000064C074D06E0E068D8
:1003F00040F0010394E8070098471034AC42F6D36C
:10040000FFF7EEFE8C880008AC88000870B58C18E9
:1004100010F8015B15F0070301D110F8013B2A1118
:1004200006D110F8012B03E010F8016B01F8016B05
:100430005B1EF9D12B0705D40023521E0DD401F801
:10044000013BFAE710F8013BCB1A921C03E013F8CA
:10045000015B01F8015B521EF9D5A142D8D30020FF
:1004600070BD10B5846AE16D11F0500F06D0E16DDA
:10047000C90625D5204600F061FC10BDE06D40F4B2
:100480000070E06520680168090716D503F038F9A7
:1004900078B12068C068800400280ADBE06D20F491
:1004A0008070E065E06DC00403D4E06D40F00100B1
:1004B000E065204600F040FC10BDC0688007EBE717
:1004C000616D496BBDE81040084710B5806AC16D89
:1004D00041F04001C165016E41F00401016600F088
:1004E0002DFC10BD10B5806A00F027FC10BD000087
:1004F00070B5044600688168C1F3400503F0F4F864
:1005000048B345BB2068816801F00D01012914D171
:100510008168124A1140891C8160216803200860AB
:1005200001F0AAFB054612E001F0A6FB401B0228E1
:100530000DD920688068C00709D0E06D40F0100038
:10054000E065206E40F001002066012070BD20684B
:100550008068C007E8D1002070BD0000C0FFFF7FA9
:10056000F8B5044600200090206803F0BDF8E8BB11
:1005700020688168264A114237D18168D6433140CC
:10058000491C81602068B0F1A04F02D02149884207
:1005900001D1214800E02148806800F0E0700002AD
:1005A0000DD51F481F490068B0FBF1F0401C00EB5F
:1005B0004000800000E0401E00900028FBD101F0C8
:1005C0005BFB05461DE003F08FF820B920688168C9
:1005D0003140491C816001F04FFB401B022810D9BB
:1005E00020680068C043C0070BD000E00EE0E06D5B
:1005F00040F01000E065206E40F001002066012010
:10060000F8BD20680168C943C907DCD10020F8BDE6
:100610003F00008000010050000300500007005020
:1006200028000020400D0300FEE7000010B504483C
:1006300000F0D8FDBDE81040024800F0D3BD000036
:10064000FC150020201600200D4902688A4201D2C4
:100650000C4901E00B492031D2B21423083AB2FB15
:10066000F3F2436C02F01F0223F003031944816488
:1006700004498031C1640121914001657047000047
:1006800008040240000802400179074A02EB810297
:100690004265054A4432491E826501F01F0201216C
:1006A0009140C16570470000FC08024030B5D0E9B8
:1006B00013456560446D14B1D0E91645656090F846
:1006C000444004F01F050124AC40056C6C600468D4
:1006D00063608368102B036803D099600068C26070
:1006E00030BD9A600068C16030BD704772B6FEE7E9
:1006F000F8B500250446009590F858000E460128EC
:100700000BD0012084F858002046FFF7F1FE0200CC
:10071000E06D04D040F010002AE00220F8BD20F483
:10072000885040F00200E06520688168134B194052
:1007300006F08043194341F000418160104B20686E
:100740000EE00099491C0091994209D3E06D20F018
:10075000020040F01000E06584F858500120F8BD18
:100760008168C90FEDD1E06D20F0020040F001007A
:10077000E06584F858501046F8BD0000C0FFFF3F08
:1007800002DE04002DE9F04F044690F858009BB0BB
:100790000D464FF0000B012812D0012084F85800BC
:1007A00000271797189720684FF0A048DFF80C91A2
:1007B000DFF80CA1434E404506D13046009608E0D4
:1007C00002201BB0BDE8F08F48450AD15046CDF855
:1007D00000A002F091FF0090206802F08DFF40B170
:1007E00009E0E06D40F02000E06584F858700120D9
:1007F000E7E7009848B1E06D40F02000E0654FF079
:10080000010B84F858705846DBE72068C446604501
:1008100001D0B04201D12C4800E02C4829682C4B73
:100820000029816840F61F7221F4604128D094F8B5
:10083000388041EA4831D5F8048041EA08018160F6
:100840002168614501D0B14205D1DCF80810B368D8
:10085000C1F3000109E0D9F80810DAF80860C1F323
:100860000001C6F300069B683143C3F3000319433C
:10087000C7D1AB68296819438368934319431BE0C8
:1008800081602168614501D0B14205D1DCF80810D2
:10089000B368C1F3000109E0D9F80810DAF808508C
:1008A000C1F30001C5F300059B682943C3F30003AE
:1008B0001943A6D1816891438160A2E700040050EA
:1008C00000050050000100500003005000070050D8
:1008D000000600502DE9F84F00270446009790F8D5
:1008E0005800DFF814840D46B946012810D00126BF
:1008F00084F85860206802F0FBFE58B1E06D40F0CB
:100900002000E065012784F858903846BDE8F88F4C
:100910000220FBE7D5E900200C23216803EA9013AD
:1009200019440B6B00F01F004FF01F0C0CFA00FC79
:10093000C2F3846223EA0C03824013430B632068F2
:1009400002F0D6FE8246206802F0CAFE5AEA000192
:100950003CD1AA6829682068B2F1004F37D002F074
:10096000D7FE2068416921F00041416120686A6931
:10097000C168C1F3C10149008A402969042931D005
:1009800000EB81002B68016EDFF870C303F0F843C1
:1009900001EA0C011343194341F00041016620684C
:1009A0002A69A96900EB8200026E22F080720A4374
:1009B0000266297F22682869012910D0002102EBF4
:1009C0008000026E22F000720A4302667DE000227F
:1009D00002F09EFE2068416941F00041C5E74FF0FA
:1009E0000071ECE7002102F075FE400320684FF033
:1009F000000171D002F06EFE90FAA0F0B0FA80F122
:100A0000286842036DD090FAA0F0B0FA80F08142DD
:100A100004D100221146206802F089FE01212068DD
:100A200002F058FE400320684FF001015CD002F054
:100A300051FE90FAA0F0B0FA80F12868420358D035
:100A400090FAA0F0B0FA80F0814204D10022012196
:100A5000206802F06CFE0221206802F03BFE400399
:100A600020684FF0020147D002F034FE90FAA0F067
:100A7000B0FA80F12868420343D090FAA0F0B0FAAF
:100A800080F0814204D100220221206802F04FFE52
:100A90000321206802F01EFE400320684FF003018E
:100AA00032D002F017FE90FAA0F0B0FA80F1286878
:100AB00042032ED090FAA0F0B0FA80F0814204D127
:100AC00000220321206802F032FE206802F00CFEB2
:100AD00010B3AAE000E004E002F0FCFDC0F3846182
:100AE0008EE7C0F3846092E702F0F4FDC0F3846106
:100AF000A3E7C0F38460A7E702F0ECFDC0F38461D4
:100B0000B8E7C0F38460BCE702F0E4FDC0F38461A1
:100B1000CDE7C0F38460D1E721682A7B286851F8CB
:100B2000B03FC0F3120C23EA0C0302F0180C744A15
:100B300022FA0CF2024013430B60E968414574D17C
:100B4000286841031AD090FAA0F1B1FA81F1491C4A
:100B500001F01F0109294FEA403130D8002910D097
:100B600090FAA0F1B1FA81F101F1010101F01F0148
:100B700006FA01F608D1C0F3846109E0C0F384618C
:100B8000E5E7C0F38461EFE790FAA0F1B1FA81F1F3
:100B900001F1010101F01F0146EA816102D1C0F3B8
:100BA000846003E090FAA0F0B0FA80F000F1010058
:100BB00000F01F0000EB400041EA005131E0002945
:100BC0000DD090FAA0F1B1FA81F101F1010101F02B
:100BD0001F0106FA01F605D1C0F3846106E0C0F3F7
:100BE0008461F2E790FAA0F1B1FA81F101F101011B
:100BF00001F01F0146EA816102D1C0F3846003E085
:100C000090FAA0F0B0FA80F000F1010000F01F00AF
:100C10003C4A00EB400002EB005041EA000141F089
:100C20000071AA68206802F073FD37482A68024202
:100C30003FF469AE20684FF0A04C344B344E354D34
:100C4000604501D0A84201D1194600E031468968CB
:100C5000DFF8C48001F0E071424503D0DFF8BC80CA
:100C6000424521D15FEA01281ED4604506D02C4AB6
:100C700090427FF448AEA84200D0334641F40000D1
:100C8000996821F0E071014399602648264900687F
:100C9000B0FBF1F0401C00EB4000800000E0401E83
:100CA00000900028FBD12EE6DFF8808042450FD16E
:100CB0005FEAC1180CD4A84202D11D4A9042F2D07A
:100CC000604502D0A84200D0334641F080700CE06D
:100CD000DFF860804245E6D14A02E4D4A842E2D07F
:100CE000604500D0334641F48000996821F0E071FE
:100CF0000143996007E6000000007F4000F0FF0319
:100D0000FFFF0700000020FE0000088000030050E5
:100D10000007005000010050000021C31000C090E7
:100D20000006005028000020400D0300000052C7BC
:100D300000050050000084CB7047704770470000EA
:100D4000F8B54FF0000504002E46009502D0E06D86
:100D500010B107E00120F8BD204600F00BF926662F
:100D600084F8586020688168C1F3407119B18168C6
:100D7000744A1140816020688168C1F3007189B9AB
:100D80008168714A114041F0805181606F4870491B
:100D90000068B0FBF1F04000801C00E0401E0090B5
:100DA0000028FBD120688168C1F3007141B9E16D71
:100DB00041F01001E165216E41F00101216601253C
:100DC00002F096FCE16DC90600D430B1E06D40F050
:100DD0001000E06501252846F8BDE06D20F4807024
:100DE00040F00200E065206802F07EFC40BB206815
:100DF0004FF0A043574A984201D0904204D19968DD
:100E00009668C1F300010AE053498968534EC1F363
:100E10000001B668C6F300063143514EB668C6F30A
:100E2000000631430CD1984201D0904201D14D4887
:100E300000E04D486168826822F47C120A438260B7
:100E4000E168E06B627F0843A16841EA42310843F0
:100E500094F8241040EA0140012904D1218D434A2D
:100E600002EB41410843E16A29B101F47871226B38
:100E7000014342EA01002168CA683D4B1A4002431F
:100E8000CA6020680169626B21F040611143016111
:100E9000206802F025FC70BB207F94F83810800396
:100EA00040EA41012068C26844F202039A430A43BF
:100EB000C26020690028206801690AD041F48031AD
:100EC0000161206850F8C01F22696FF30D011143C2
:100ED00007E021F480310161206850F8C01F6FF3F2
:100EE0000D01016094F84000012813D020680169C9
:100EF00021F001010161606901282068016B19D0AE
:100F000021F00F010163E06D20F0020040F00100CC
:100F1000E06560E7D4E911200243D4E913010843F6
:100F200002432068016940F2FC7399430A4342F08E
:100F30000101DFE721F00F02216A491E0A43026323
:100F4000E1E70000C0FFFF5FC0FFFF7F2800002037
:100F5000400D030000010050000400500005005047
:100F60000006005000030050000700500000FEFF84
:100F70000740F0FF2DE9F04F9BB00446142115A85F
:100F8000FFF700FA54216846FFF7FCF94FF40041DF
:100F9000206800268A03424F424D4FF003084FF06D
:100FA00080094FF4807A4FF4806BB0F1A04F10D0DD
:100FB0003D4B984241D168461192009101F078F87A
:100FC00008B1FFF793FB7868401C7860012837D0A0
:100FD0003EE068461192009101F06AF808B1FFF70F
:100FE00085FB7868401C7860012807D1E86C40F4E4
:100FF0000050E864E86C00F400501A90E86C40F08F
:101000000200E864E86C179600F002001A900120D4
:10101000CDE9150815A9254800F050FD254D2448B7
:1010200001C50520E5E802062020A5E8400E65E898
:10103000070620482DE06565AC621BB0BDE8F08F67
:10104000E86C40F40050E864E86C00F400501A903A
:10105000E86C40F00100E864E86CCDF8549000F0D2
:101060000100CDE916861A904F4615A94FF0904021
:1010700000F024FD0F4D0E486035283001C52420B6
:10108000E5E802062020A5E8C00C65E80706094847
:10109000603000F06DFC0028CDD0FFF727FBCAE7D9
:1010A0001000002000100240000100500004004821
:1010B000080002403C1500202DE9F0470446006876
:1010C0004FF0A0483D4F91468A46404501D0B84276
:1010D00001D13B4900E03B49896801F01F0502F05E
:1010E00007FB002868D194F85800012864D001203B
:1010F00084F8580034492068884201D1012000E07A
:101100000020401E28424FF0000605D0052D03D0D8
:10111000092D01D0012003E02046FFF721FA18B184
:1011200084F85860BDE8F087E06D40F601618843BF
:1011300040F48070E0652068B84201D1414605E086
:101140002249884201D1224900E00146814200D073
:101150001DB9E06D20F48010E065E06DC00404D599
:10116000206E20F00600206600E02666616D1948BA
:10117000C862616D18480863616D1848486321684A
:101180001C20086084F858602068416841F0100114
:1011900041602068C16841F00101C16021684B468F
:1011A00052464031606D00F043FC21688A680C4B68
:1011B0001A40121D8A60B5E70220B3E70001005013
:1011C00000030050000700500006005000050050CA
:1011D0000004005063040008E5040008CB04000884
:1011E000C0FFFF7F10B51D4B1C4A016814339142AC
:1011F00002D14FF400121EE0184A121D914202D192
:101200004FF4800217E0154A0832914201D18A0654
:1012100011E0124A0C32914202D14FF080420AE0B2
:101220000E4A1032914201D1CA0604E0994201D11E
:10123000012200E00222994203D0084B1833994260
:1012400001D1074901E0064920390B6832EA03035E
:1012500002D10A6000F086F910BD000000020140D2
:10126000340401402DE9F84F04004FF0000005461A
:10127000009003D021680968002901DA0125F6E011
:10128000617F21B920772062204600F005F92068AF
:101290000168E66801F40002D4E901311943636989
:1012A00033431943236919430368724E33400B4398
:1012B00003602368186800020ED56AB96E486F494A
:1012C0000068B0FBF1F0401C00EB8000800000E003
:1012D000401E00900028FBD1694A694814328342BD
:1012E00002D14FF400101EE06548001D834202D178
:1012F0004FF4800017E062480830834201D1800635
:1013000011E05F480C30834202D14FF080400AE088
:101310005B481030834201D1C00604E0934201D102
:10132000012000E00220A169564E8A465FEA8178DA
:10133000554F5649A6F1040CA7F1040978D05FEA8D
:10134000CA6806F1040A07F1040B0AD5934201D0DA
:101350008B4201D1D04600E0D846D8F80030034394
:1013600009E0934201D08B4201D1D04600E0D8463B
:10137000D8F800308343C8F80030237EDFF81081AE
:101380009B06DFF810A1236808D5934202D08B4258
:1013900000D0D046D8F80030034307E0934202D093
:1013A0008B4200D0D046D8F800308343C8F80030D4
:1013B0002368934201D08B4202D1354B083301E0C0
:1013C000344B08331860237E9B07236809D593426A
:1013D00001D08B4202D13368034308E03B680343EA
:1013E00009E0934201D08B4203D1336883433360D9
:1013F00002E03B6883433B60237EDB0723680CD01D
:10140000934201D08B4203D1DCF80010014322E06B
:10141000D9F800204946024324E0934218D08B4279
:1014200016D0D9F800108143C9F800101BE0FFE77F
:10143000934201D08B4203D133688343336002E08F
:101440003B6883433B602368934201D08B4205D1C4
:10145000DCF800108143CCF8001004E0D9F800203B
:10146000494682430A60607F08B9012060772846B8
:10147000BDE8F88F0F7E00FF28000020400D03001C
:10148000000201402404014004040140180201400C
:101490002C0401400C040140F0B587B0044614212F
:1014A0006846FEF76FFF2C4B216800242B4A02266A
:1014B000032708254FF09040994222D1D16C41F08A
:1014C0000101D164D16C009601F001010591CDE9D3
:1014D00001746946074600F0F1FA40200090CDE91A
:1014E000016469463846CDE9034500F0E7FA002279
:1014F0000521402000F04EFC402000F03DFC07B0EC
:10150000F0BD154B1B1D9942F9D1D16C41F0010181
:10151000D164D16C01F00101059104210091CDE964
:10152000016469460646CDE9034500F0C7FA009517
:10153000CDE901746946304600F0C0FA0022052169
:10154000402000F027FC402000F016FC0448016811
:1015500021F4C0010160D2E7000201400010024006
:101560000C0401400748016821F4C00101600648ED
:101570006FF00101026811610068C16841F001016A
:10158000C16070470C040140E05600207047000025
:101590002DE9F04790460D4604004FF0000A0FD0A9
:1015A00075B1607901280ED04FF0010984F80590DB
:1015B00002202071A96808F01006042905D049E02E
:1015C0000120BDE8F0870220FBE700F055FB07464D
:1015D0005FEA08004FF0030809D021E000F04CFB5F
:1015E000C01B012803D92068406B000410D4206878
:1015F000406B0004F2D42168686A086417E000F0C8
:101600003BFBC01B01280BD92068406B002807DA80
:10161000206940F00800206184F804800320D0E7AE
:101620002068406B0028EADB2168686A486420680B
:10163000816C40F2FF32B2409143AA6AB24011433A
:1016400081642068C16CFF22B2409143EA6AB240D3
:101650001143C164E869012808D12068826B1F2109
:10166000B1408A43296AB140114381632068C26B4B
:101670000720B0408243A869012803D0022856D031
:101680006869E8B300206B69A968194301434FF406
:10169000807000FA06F39A432B79012B00D00020CA
:1016A00008434FF4007101FA06F39A436B79012B5A
:1016B00000D0002141EA0008286822F440470228AF
:1016C00037D00743216808FA06F03843C86320681A
:1016D00001684FF48042B240914301602068026883
:1016E00040F6FE71B1408A43E968B14011430160A0
:1016F00020680168C022B24091430160287B00E06D
:1017000015E0297CC0F3830001F03C0140EA81111F
:101710002068026E40F60F73B3409A43B1400A430B
:10172000026684F8049000206071504649E7012069
:10173000A9E700F057FF0649884202D947F400475D
:10174000C0E704498842BDD947F48047BAE70000A2
:101750000068890900B4C40470472DE9F0410446CB
:1017600000680668456BB1044FF0040710D5A90462
:101770000ED52771216941F001012161F902416310
:101780002068016821F4805101602046FFF7E4FFE2
:10179000B00014D5A80012D52771206940F00200CE
:1017A000206121684FF0005048632068016821F0F3
:1017B000805101602046BDE8F041FFF7E7BEBDE87B
:1017C000F08170B5040003D02079002510B105E048
:1017D000012070BD6571204600F008F802202071DC
:1017E000256101202071002070BD000010B586B079
:1017F000044614216846FEF7C5FD15492068884255
:1018000023D11448C16C41F48031C164C16C01F42E
:1018100080310591C16C41F00101C164C06C694621
:1018200000F001000590302000900320019000207E
:1018300002904FF0904000F041F900220F21362035
:1018400000F0A8FA362000F097FA06B010BD0000AC
:10185000000800500010024018B50024009448B160
:101860000068C46B0090104431B1143000900360E4
:10187000002018BD012018BD0830F7E7F8B5A8B161
:101880004279012A14D001244471022505710268AD
:10189000166801F0100304FA03F73E431660144A79
:1018A000144E1268B2FBF6F2521C04E00120F8BD9F
:1018B0000220F8BD521E0092002AFBD100290168C7
:1018C0000A680DD002F478129D40AA4203D14A68FA
:1018D00042F002024A600471002141710846F8BDDD
:1018E000C2F34402012AF6D14A6842F00102F1E74C
:1018F00028000020400D030070B590F8251000244A
:1019000001222346022907D00421C16380F8252043
:1019100080F82430012429E001680D6825F00E05C7
:101920000D6001680D6825F001050D60816C0D6882
:1019300025F480750D6090F84410154601F01F01E4
:101940008A40016C4A60D0E913124A60416D31B19E
:101950000A6822F480720A60D0E916124A6080F8A0
:10196000255080F82430816B01B18847204670BD36
:1019700070B504000CD02B4A20681421904209D283
:10198000294A0244B2FBF1F18900616427490AE067
:10199000012070BD234A52420244B2FBF1F189009A
:1019A0006164204908392164022184F82510016806
:1019B00047F6F0729143D4E902231A43D4E904357F
:1019C0002B431A43A3691A43E3691A43236A1A4350
:1019D0000A4302602046FEF737FEA0680025B0F5F6
:1019E000804F00D16560A16C20790860D4E91301B3
:1019F00041606068401E032808D82046FEF744FE78
:101A0000606D0560D4E91601416002E06565A56579
:101A1000E565E563012084F8250084F82450002062
:101A200070BD000008040240F8FFFDBF0000024046
:101A300070B5044690F82400002501280CD0012040
:101A400084F8240094F825600020012E06D084F844
:101A500024000225284670BD022070BD022684F8AD
:101A60002560E0632068066826F0010606602046CF
:101A7000FEF71CFE206B00282068016802D041F0B0
:101A80000E0106E021F0040101602068016841F0C8
:101A90000A010160A06C0168C90303D5016841F423
:101AA00080710160606D18B1016841F4807101605E
:101AB0002068016841F001010160CBE72DE9F84F92
:101AC000DFF888910022A9F1040B03274FF00F0CD7
:101AD00009F1040AABF1040EB1E0012595402B4059
:101AE00073D00C7904F00304012C01D0022C15D121
:101AF0008668540007FA04F826EA0806D1F80C8034
:101B000008FA04F848EA0608C0F808804468AC43BC
:101B10000D79C5F300159540254345600C79E443E4
:101B2000A40708D0C568540007FA04F6B5438E68C8
:101B3000A6402E43C6600C7904F00304022C11D198
:101B4000D40800EB8406356A5407E40E0CFA04F856
:101B500025EA0805D1F8108008FA04F848EA0508D3
:101B6000C6F820800568540007FA04F6B5430E79DC
:101B700006F00306A6402E4306604C6814F4403F6E
:101B80005CD0334C256E45F001052566246E22F0AD
:101B9000030504F0010400942E4C05EB0408D8F86A
:101BA00008509407260F0CFA06F4A543B0F1904FA5
:101BB00004D0294CA04203D1012417E0002415E0F1
:101BC000264CA04202D1022410E037E0244CA0426F
:101BD00001D103240AE0234CA04201D1042405E0F2
:101BE000214CA04201D1052400E00624B4402C433E
:101BF000C8F80840D9F800404D464E689C43F602AC
:101C000000D51C432C60DAF8004055464E689C43D2
:101C1000B60200D51C432C60DBF800405D464E68E0
:101C20009C43B60300D51C432C60DEF8004075468B
:101C30004E689C43F60300D51C432C60521C0B6875
:101C400033FA02F47FF449AFBDE8F88F080401408D
:101C50000010024000000140000400480008004855
:101C6000000C004800100048001400480AB18161CF
:101C7000704781627047000001488068704700002B
:101C80001C0000200248816842681144816070474E
:101C90001C00002010B50024032000F09BF80F204A
:101CA00000F008F808B1012401E000F047F82046F0
:101CB00010BD000030B505461B4887B0816D41F06E
:101CC00010018165806D05A900F01000069068463E
:101CD00000F068FC00F08CFC1449154AB0FBF1F1EF
:101CE0001448491E0260416040F2E7320021C0E919
:101CF0000321816000F077FF040012D10D4801F04C
:101D000031F804000DD1362000F036F8102D07D23E
:101D100000222946362000F03DF80748056000E023
:101D2000012407B0204630BD0010024040420F00A1
:101D300000100040205800201C0000200D4808B56D
:101D4000016E41F001010166016E01F00101009197
:101D5000816D41F080518165806D002200F08050DE
:101D600000900F21901E00F015F8BDE8084000F02B
:101D700097B9000000100240002809DB00F01F02A4
:101D8000012191404009800000F1E020C0F80011DD
:101D900070470000F0B40E4B1B68C3F30223C3F17D
:101DA0000704042C00D904241D1D072D01D2002393
:101DB00000E0DB1E012606FA04F56D1E0D409D4075
:101DC0009E40761E164045EA0601F0BC02F0A8BE11
:101DD0000CED00E0064A00F0070110684FF6FF0323
:101DE000184040EA01200349084310607047000092
:101DF0000CED00E00000FA05F8B504004FF0000516
:101E000014D094F83A00052810D094F83A0002282B
:101E10000CD03448016E41F001010166006E00F003
:101E20000100009094F83A0010B104E00120F8BDE0
:101E3000002084F83900204600F058F8A0682A4AAB
:101E40004FF48071402836D0602834D02068036871
:101E5000E66A23F0100333430360D4E90103184317
:101E6000D4E9033633431843237D012B00D00021EE
:101E70000843616A0843A16A0843218E40EAC140D1
:101E800094F8341040EA0161206803681340194354
:101E9000016020688169002909DBD4E90612114339
:101EA000226A836923F03F031A431143816194F846
:101EB0003A0090B114E020680368E66A23F010034A
:101EC00033430360D4E901031843267D2369012EBF
:101ED00000D000210B431843CBE7012084F83A00DF
:101EE0002846F8BD00100240113E00E010B586B053
:101EF000044614216846FEF745FA2068154C002276
:101F000015490323A0420FD1C86C40F00100C864FA
:101F1000C86C694600F0010005908020CDE90003FF
:101F200002924FF0904011E00A4C241DA0420FD1C4
:101F3000C86C40F00200C864C86C694600F002003A
:101F400005900120CDE9000302920448FFF7B6FD99
:101F500006B010BD0003014000100240000400481C
:101F6000002138B190F83A20052A03D090F83A20A1
:101F7000012A02D00121084670470268136843F025
:101F800001031360042280F83A20F4E710B596B0FC
:101F9000044654216846FEF7F5F910492068884246
:101FA0001AD14014009000200F90684600F080F88D
:101FB00008B1FEF79BFB0A48816D41F40001816581
:101FC000806D002200F40000159005211420FFF719
:101FD000E1FE1420FFF7D0FE16B010BD005C0040FB
:101FE000001002402B492C4B0A6832214A432B49EE
:101FF00040B1B0F5007F086829D020F4C06040F4FB
:1020000080602CE00868C0F34120022804D051F819
:10201000800F20F4807022E0D1F8800020F48070DE
:10202000C1F88000086820F4C06040F400700860C7
:10203000B2FBF3F0401C00E0401E4A69520501D596
:102040000028F9D1486940050AD503207047C0F33C
:102050004120022806D051F8800F40F480700860BB
:1020600000207047D1F8800040F48070C1F88000F3
:10207000086820F4C06040F400700860B2FBF3F020
:10208000401C00E0401E4A695205DBD50028F9D10A
:10209000D8E700002800002040420F0000700040F8
:1020A0000248816841F480418160704700700040BF
:1020B0002DE9F84F044600260068C14D374600035D
:1020C0005DD5A86D4FF00009C00009D4A86D40F09F
:1020D0008050A865A86D4FF0010900F08050009075
:1020E000DFF8E0A2DAF8001041F48071CAF80010BD
:1020F000FFF7C2FD804607E0FFF7BEFDA0EB08003A
:10210000022801D9032632E0DAF80000C005F3D531
:102110006EBBD5F8900010F4407014D0216D814250
:1021200011D0D5F89000D5F8901020F4407041F40B
:102130008031C5F89010D5F8901021F48031C5F8A1
:102140009010C5F89000C0077ED0FFF795FD80463F
:1021500041F2883A05E0FFF78FFDA0EB08015145F9
:10216000D0D8D5F890008007F5D5002E6CD0374632
:10217000B9F1000F03D0A86D20F08050A865207839
:10218000C00707D0D5F88800616820F00300084335
:10219000C5F888002078800707D5D5F88800A168A1
:1021A00020F00C000843C5F888002078400707D5C8
:1021B000D5F88800E16820F030000843C5F88800B1
:1021C0002078000707D5D5F88800216920F0C000E5
:1021D0000843C5F888002078C00607D5D5F88800E0
:1021E000616920F440700843C5F8880020788006B3
:1021F00007D5D5F88800A16920F440600843C5F8E8
:1022000088002078400607D5D5F88800E16920F4D9
:1022100040500843C5F888002078000607D5D5F857
:102220008800216A20F440400843C5F888002088CF
:10223000C00507D5D5F88800616A20F4403008430E
:10224000C5F88800206800E024E0800307D5D5F8B1
:102250009C00A16A20F003000843C5F89C00208878
:10226000800507D5D5F88800E16A20F440200843AE
:10227000C5F888002088400519D5D5F88800216B5D
:1022800020F440100843C5F88800206BB0F5801F8B
:1022900009D00CE0D5F89000216D20F4407008437F
:1022A000C5F8900064E7E86840F48010E860208892
:1022B00000050FD5D5F88800616B20F44000084375
:1022C000C5F88800606BB0F5800F03D1E86840F472
:1022D0008010E8602088C0040FD5D5F88800A16B75
:1022E00020F040700843C5F88800A06BB0F1807FF3
:1022F00003D1E86840F48010E860208881044FF042
:1023000000600ED5D5F88810E26B21F040611143D2
:10231000C5F88810E16B814203D1E96841F480116E
:10232000E960218849040ED5D5F88810226C21F087
:1023300040611143C5F88810216C814203D1E868DF
:1023400040F48010E860208800040FD5D5F888009C
:10235000616C20F040500843C5F88800606CB0F113
:10236000805F03D1E86840F48030E8602068C003F3
:102370000FD5D5F88800A16C20F040400843C5F87F
:102380008800A06CB0F1804F03D1E86840F4803041
:10239000E860206840030FD5D5F89C00E16C20F47C
:1023A00040100843C5F89C00E06CB0F5001F03D155
:1023B000E86840F48010E8603846BDE8F88F000017
:1023C00000100240007000402DE9F0470D46040067
:1023D0004FF0000725D0DFF8AC91D9F8000000F0ED
:1023E0000F00A8420CD2D9F8001021F00F012943A8
:1023F000C9F80010D9F8000000F00F00A84210D171
:102400002168614EC80741F2883A58D06068DFF809
:102410007C81032808D0022830682CD04005002891
:102420002BDB0120BDE8F08730688001F9D5F0682A
:1024300000F00302F068C0F30310401C032A18D018
:10244000534AB2FBF0F0F268C2F306225043F2683E
:10245000C2F34162521C5200B0FBF2F0404517D962
:10246000B06810F0F00F0CD0880711D5A06840B10B
:102470000EE0484AE5E78003D1E700F0DDF840458B
:1024800006D9B06820F0F00040F08000B0608027EE
:10249000B068616820F003000843B060FFF7ECFB10
:1024A000804605E0FFF7E8FBA0EB080151453BD86B
:1024B000B068616800F00C00B0EB810FF2D12068C9
:1024C000810714D5400703D5B06840F4E060B060E0
:1024D0002078000705D5B06820F4605040F4E06033
:1024E000B060B068A16820F0F000084304E0802FDD
:1024F00003D1B06820F0F000B060D9F80010484671
:1025000001F00F01A94217D90168C84621F00F0157
:1025100029430160FFF7B0FB0746D14606E0FFF70D
:10252000ABFBC11B494501D903207BE7D8F800006C
:1025300000F00F00A842F2D12078400705D5B0681E
:10254000E16820F4E0600843B0602078000706D519
:10255000B068216920F4605040EAC100B06000F02A
:102560006BF8B1680C4AC1F30311515C01F01F0113
:10257000C8400A4908600A480068BDE8F047FFF70C
:1025800099BB0000002002400010024000B4C404C7
:102590000024F40000127A00CC84000828000020F7
:1025A0001C0000200F2202600C4A936803F0030312
:1025B0004360936803F0F0038360936803F4E0637F
:1025C000C36092684FF4E06303EAD20202610448F8
:1025D000006800F00F000860704700000010024023
:1025E00000200240014800687047000028000020D9
:1025F0000548064900688968054AC1F30221515C13
:1026000001F01F01C8407047280000200010024060
:10261000DC8400080548064900688968054AC1F35A
:10262000C221515C01F01F01C84070472800002002
:1026300000100240DC840008184A10B59068C0F30E
:102640008101174801290BD091684410C1F3810121
:10265000022906D09168C1F38101032903D000202B
:1026600010BD204610BDD16801F00303D168C1F34D
:102670000311491C032B02D0B0FBF1F001E0B4FBC5
:10268000F1F0D168C1F306214843D168C1F341613B
:10269000491C4900B0FBF1F010BD000000100240E1
:1026A0000024F4002DE9F843040078D02078F54D9B
:1026B000C00745D0A868E96800F00C0001F00301EC
:1026C0000C2802D0082817D001E0032914D0606834
:1026D000B0F5803F17D0B0F5A02F286817D020F4B0
:1026E00080302860286820F4802028606068D8B195
:1026F000FFF7C2FA064613E02868800320D5606819
:102700000028D2D01CE0286840F48030EDE740F487
:1027100080202860F7E7FFF7AFFA801B64286ED8A7
:1027200028688003F7D50BE0FFF7A6FA064604E019
:10273000FFF7A2FA801B6428F1D828688003F7D439
:10274000207880074BD5A868E96800F00C0001F0FC
:1027500003010C2802D004280DD001E002290AD080
:10276000E068002828682BD040F480702860FFF7CC
:1027700083FA064619E02868400502D5E06800287B
:1027800093D06868217C20F0FE4040EA01606860D8
:10279000BD480068FFF78EFA002800D11FE06DE108
:1027A000FFF76AFA801B0228B9D828684005F7D5D8
:1027B0006868217C20F0FE4040EA016068600EE01D
:1027C00020F480702860FFF757FA064604E0FFF710
:1027D00053FA801B0228A2D828684005F7D4207835
:1027E000000728D560690028D5F8940012D040F081
:1027F0000100C5F89400FFF73FFA064605E08FE0B8
:10280000FFF73AFA801B022889D8D5F89400800790
:10281000F6D510E020F00100C5F89400FFF72CFA7F
:10282000064604E0FFF728FA801B022878D8D5F87E
:1028300094008007F6D42078400761D5A86D002762
:10284000C00008D4A86D40F08050A865A86D01278D
:1028500000F0805000908D480168C90511D40168CE
:10286000804641F480710160FFF706FA064604E0F5
:10287000FFF702FA801B022852D8D8F80000C005E2
:10288000F6D5A068012815D00528D5F8900016D0F7
:1028900020F00100C5F89000D5F8900020F0040069
:1028A000C5F89000A06841F28838B8B1FFF7E4F9A4
:1028B00006460EE0D5F8900040F00100F0E740F049
:1028C0000400C5F89000F5E7FFF7D6F9811B4145F4
:1028D00026D8D5F890008007F6D50CE0FFF7CCF9A4
:1028E000064604E0FFF7C8F9811B414518D8D5F822
:1028F00090008007F6D41FB1A86D20F08050A86525
:102900002078800628D5A0690028D5F8980012D034
:1029100040F00100C5F89800FFF7AEF9064605E063
:1029200072E0FFF7A9F9801B02286DD8D5F898004E
:102930008007F6D510E020F00100C5F89800FFF7F9
:102940009BF9064604E0FFF797F9801B02285BD845
:10295000D5F898008007F6D4E069E8B3A968C1F318
:10296000810103295BD00228286820F0807028604C
:1029700003D0FFF781F9044649E0FFF77DF90646E9
:1029800004E0FFF779F9801B02283DD82868800110
:10299000F7D4F4E908016FF00F0202EB01110843CC
:1029A000218A5204490802EB4151A26841EA0221FE
:1029B0000843217D4FF07E42490802EB4161084304
:1029C000217B40EAC160E968314A11400843E86070
:1029D000286840F0807000E052E02860E86840F02D
:1029E0008070E860FFF748F9044604E0FFF744F917
:1029F000001B022808D828688001F7D540E0FFF7BF
:102A00003BF9001B022802D90320BDE8F88328689F
:102A10008001F4D4E8681F490840E86030E00128EC
:102A2000F3D0E868226A00F00301914226D1616A7E
:102A300000F0F0020901103991421FD1A26A00F49E
:102A4000FE41B1EB022F19D194F82C2000F078410F
:102A5000B1EBC26F12D1218E00F4C00249084905C2
:102A6000A1F50011914209D194F8341000F0C06032
:102A700049084906A1F10071814201D00120C4E753
:102A80000020C2E7001002401C000020007000403F
:102A90000C809F01FCFFEEFE704770477047704747
:102AA00070477047F0B590F83C20012A43D00125CB
:102AB00080F83C50022280F83D2003685A689C68E8
:102AC0001E4E1F4FDFF87CC0B34203D0BB4201D083
:102AD000634504D122F4700E4A6842EA0E02DFF820
:102AE00068E002EA0E02D1F800E04EEA020EC3F8F6
:102AF00004E00268B24212D0B2F1804F0FD0134B03
:102B00009A420CD0124B9A4209D0124B9A4206D0EC
:102B1000BA4204D0104B9A4201D0624504D1896870
:102B200024F080031943916080F83D50002180F823
:102B30003C100846F0BD0220F0BD0000002C014012
:102B400000340140005001408FFFFFFD00040040B1
:102B500000080040000C00400040014010B590F813
:102B60003C400023012C0FD0012480F83C406AB186
:102B7000042A21D0082A24D00C2A29D0012300219C
:102B800080F83C10184610BD022010BD0268D46DBC
:102B900024F00F040C43D465104A0168914202D01E
:102BA0000F4A914203D18A6E42F0010202E08A6E1E
:102BB00022F001028A66E2E70268D46D24F47064B0
:102BC00003E00268D46D24F470240C43D465D6E786
:102BD0000268D46D24F07064F7E7000000440140FF
:102BE00000480140704710B5040003D094F83D0040
:102BF00010B107E0012010BD002084F83C00204601
:102C000000F022F8022084F83D00211D206801F028
:102C10000BF9012084F8480084F83E0084F83F0056
:102C200084F8400084F8410084F8420084F84300AE
:102C300084F8440084F8450084F8460084F847008E
:102C400084F83D00002010BD70B586B00646142102
:102C50006846FDF797FB3068B0F1804F3AD11E49C6
:102C6000886D40F001008865886D00F001000590D6
:102C7000C86C40F00100C864C86C022100F001007B
:102C80000590012000258DE82300CDE90350694619
:102C90004FF09040FEF712FF114C10482060382092
:102CA000C4E901058020C4E9035065618001A56184
:102CB000C4E907502046FEF75BFE08B1FDF716FD9C
:102CC0007462002205211C20A662FFF763F81C2015
:102CD000FFF752F806B070BD001002401C00024021
:102CE0002C57002090F83D10012901D00120704799
:102CF000022180F83D1000681249884214D0B0F1DA
:102D0000804F11D0104988420ED0104988420BD014
:102D10000F49884208D00F49884205D00E498842A1
:102D200002D00E49884207D181680D4A1140062918
:102D300006D0B1F5803F03D0016841F00101016088
:102D400000207047002C01400004004000080040B3
:102D5000000C0040003401400040014000500140A0
:102D60000700010090F83D10012901D001207047B3
:102D7000022180F83D100168CA6842F00102CA6071
:102D800000681349884214D0B0F1804F11D0114926
:102D900088420ED0104988420BD01049884208D092
:102DA0000F49884205D00F49884202D00E49884217
:102DB00007D181680D4A1140062906D0B1F5803F40
:102DC00003D0016841F0010101600020704700005C
:102DD000002C01400004004000080040000C0040AE
:102DE0000034014000400140005001400700010054
:102DF0007047704770472DE9F041054690F83C0058
:102E000000260C46012810D0012085F83C0072B144
:102E1000042A1CD0082A2CD00C2A50D001260020CD
:102E200085F83C003046BDE8F0810220FBE7D4E99C
:102E30000012E368286801F079F92868816921F0B7
:102E40000C01816128688169A26811430FE0D4E90F
:102E50000012E368286801F0BBF92868816921F451
:102E60004061816128688169A26841EA022181612B
:102E7000D5E72868D4E9002C277B036A016A21F48E
:102E800080710162C16923F4206321F0030141EAEA
:102E90000C0121F0F00C39074FF420674CEA116166
:102EA00007EA02221A43C16102622868C16921F05F
:102EB0000C01C1612868C169A26811432AE0286831
:102EC000D4E90032E168076AD0F820C02CF4805CB5
:102ED000C0F820C0D0F81CC02CF4407C4CEA022280
:102EE0004FF6FF7C22F470420CEA0131114327F4C3
:102EF00020424FF4204707EA03331343C1610362C2
:102F00002868C16921F44061C1612868C169A2686B
:102F100041EA0221C16182E710B5040003D094F8B0
:102F20003D0010B107E0012010BD002084F83C00F6
:102F3000204600F022F8022084F83D00211D206880
:102F400000F072FF012084F8480084F83E0084F805
:102F50003F0084F8400084F8410084F8420084F87F
:102F6000430084F8440084F8450084F8460084F85F
:102F7000470084F83D00002010BD70472DE9F04166
:102F80001F4690460D0004464FF0000617D0042D52
:102F900018D0082D19D00C2D1AD0102D1BD094F854
:102FA0004300DDB1042D1CD0082D1DD094F847102E
:102FB00002281CD002291AD001281BD0C8E094F89E
:102FC0003E00EEE794F83F00EBE794F84000E8E7B6
:102FD00094F84100E5E794F84200E2E794F84410E1
:102FE000E6E794F84510E3E794F84610E0E702209E
:102FF000BDE8F081012974D1B8F1000F71D0002F24
:103000006FD00220F5B3042D48D0082D4BD00C2DE5
:103010004ED0102D4FD084F8430084F84700012291
:103020002946206800F072FF4D484E494E4A55B37C
:10303000042D57D0082D69D00C2D7BD001264B498B
:103040002068884214D0B0F1804F11D0484988429E
:103050000ED0484988420BD04749884208D047499A
:10306000884205D04649884202D04649884207D165
:103070008168454A1140062909D0B1F5803F06D044
:10308000016801E005E019E041F00101016030460E
:10309000AEE784F83E0084F84400C0E784F83F00BF
:1030A00084F84500BBE784F8400084F84600B6E7A2
:1030B00084F84100B1E784F84200AEE7636AD86261
:1030C000606A3B460163606A42632168424634316C
:1030D000606AFEF7ADFC20B92068C16841F4007158
:1030E00012E035E0A36AD862A06A3B460163A06A99
:1030F0004263216842463831A06AFEF799FC38BB2A
:103100002068C16841F48061C16098E7E36AD862D1
:10311000E06A3B460163E06A4263216842463C3113
:10312000E06AFEF785FC98B92068C16841F4006147
:10313000EAE7FFE7236BD862206B3B460163206B15
:103140004263216842464031206BFEF771FC08B1B2
:1031500001204DE72068C16841F48051D4E70000A8
:10316000273F0008953F0008CD3F0008002C014094
:103170000004004000080040000C00400034014002
:1031800000400140005001400700010070B50446B6
:1031900000260D460068324600F0B8FE3DB1042D11
:1031A0000CD0082D30D00C2D35D001262AE0206817
:1031B000C16821F40071C160606A05E02068C168DF
:1031C00021F48061C160A06AFEF796FB2068016A65
:1031D00041F21112114207D1016A9200114203D14A
:1031E000016821F0010101600120DDB1042D1CD036
:1031F000082D1DD00C2D1FD0102D20D084F8430099
:1032000084F84700304670BD2068C16821F4006131
:10321000C160E06AD8E72068C16821F48051C160CC
:10322000206BD1E704F83E0F04E004F83F0F01E003
:1032300004F8400FA071E5E784F84100E0E784F866
:103240004200DDE72DE9F04104460068C6680569E3
:103250004FF00007A90713D5B10711D5F91E016179
:1032600001202077206880698007204602D0FFF780
:10327000C0FD04E000F0B7F8204600F0B5F827776D
:10328000680716D5700714D521686FF0040008612F
:10329000022020772068806910F4407F204602D009
:1032A000FFF7A7FD04E000F09EF8204600F09CF830
:1032B0002777280715D5300713D521686FF0080048
:1032C0000861042020772068C0698007204602D06A
:1032D000FFF78FFD04E000F086F8204600F084F848
:1032E0002777E80616D5F00614D521686FF0100090
:1032F0000861082020772068C06910F4407F2046CC
:1033000002D0FFF776FD04E000F06DF8204600F0F3
:103310006BF82777E80708D0F00706D021686FF030
:1033200001000861204600F061F8280601D4A804D5
:1033300008D5300606D521686FF402500861204692
:10334000FFF7ABFBE80508D5300606D521686FF41A
:10335000807008612046FFF79FFB680608D570065D
:1033600006D521686FF040000861204600F07BF828
:10337000A80608D5B00606D521686FF020000861C0
:103380002046FFF78BFBE80208D5F00206D521683E
:103390006FF4801008612046FFF782FBA80208D571
:1033A000B00206D521686FF4001008612046FFF7CF
:1033B00076FB680208D5700206D521686FF480009C
:1033C00008612046FFF76DFB28020AD5300208D5B8
:1033D00021686FF4000008612046BDE8F041FFF766
:1033E00001BCBDE8F08170477047000010B504468D
:1033F00000680749884201D1FEF744FC2068B0F11B
:10340000804F03D1BDE8104002F016BD10BD000092
:103410000010004070B5044690F83C00012810D020
:10342000012584F83C50022084F83D00204600F03D
:1034300001FE002138B184F83D5084F83C10012091
:1034400070BD022070BD2068C26822F04002C260D8
:103450002068C26822F48042C26084F83D5084F83B
:103460003C10002070BD704790F88410012918D0DE
:10347000012180F884102421C0F8881001680A68AE
:103480000B6823F001030B6022F00051002242661A
:10349000036819602021C0F8881080F88420104645
:1034A00070470220704770B5044690F884000128E8
:1034B0001DD0012084F884002420C4F888002068EE
:1034C0000568026822F0010202602068826822F02A
:1034D00060620A438260204600F096FE2068056024
:1034E0002020C4F88800002084F8840070BD0220E9
:1034F00070BD70B5044690F8840001281DD00120ED
:1035000084F884002420C4F88800206805680268D4
:1035100022F0010202602068826822F060420A43C1
:103520008260204600F070FE206805602020C4F80C
:103530008800002084F8840070BD022070BD10B5A2
:10354000040003D0D4F8880010B107E0012010BDBA
:10355000002084F88400204600F026F82420C4F8D7
:1035600088002068016821F001010160A06A10B1A3
:10357000204600F06BFE204600F04CFF0128E6D00C
:103580002068416821F4904141602068816821F001
:103590002A0181602068016841F001010160204634
:1035A000BDE8104000F0B6BE10B59CB00446142132
:1035B00015A8FCF7E7FE54216846FCF7E3FE17491F
:1035C0002068884228D101200024CDE90004684603
:1035D000FEF76EFD08B1FDF789F81148016E41F460
:1035E00080410166016E01F480411A91C16C41F085
:1035F0000101C164C06C15A900F001001A904FF4DC
:10360000C06015900220CDE916040720CDE91840CE
:103610004FF09040FEF752FA1CB010BD0038014048
:10362000001002402DE9F8430446D0F888001F46F8
:1036300015460E46202802D00220BDE8F883AEB120
:10364000A5B10020C4F890002120C4F888001834E7
:10365000FEF712FBA5878146E58754F8100C183C4D
:103660004FF02008B0F5805F02D003E00120E4E7CE
:10367000206910B13546002610E000250EE08021BB
:10368000204601F013F8B8B9D5B115F8010B21683F
:103690008862B4F85600401EA4F85600B4F85600EC
:1036A0004B464FF0000200970028E8D14FF0400150
:1036B000204600F0FBFF40B1C4F888800320BCE73F
:1036C00036F8020BC0F30800E1E7C4F88880002058
:1036D000B3E7FEE700EB8100006E00F0F8407047B2
:1036E0008068C0F3C00070478068C0F30000704776
:1036F0008068C0F3800070478068C0F38000704726
:10370000C06810F4406F01D000207047012070475E
:10371000042303EAD15310B518444369C1F304519B
:1037200007248C40A3438A401343436110BD00EB40
:103730008100016E21F000411143016670470000D5
:1037400030B58BB0002408940994202168460A946F
:10375000FCF718FE21484FF0A041042501604FF40A
:103760004031C0E90114C4600461C0E90545047733
:1037700001214177016280F82440C462046380F82B
:103780003810C46380F84040FDF7DAFA08B1FCF75E
:10379000ADFF08A911480894FCF7F4FF08B1FCF745
:1037A000A5FF0F48009006200190022002907F2084
:1037B0000594CDE9030569460848FDF78BF808B183
:1037C000FCF794FF7F210548FCF792FF0122054991
:1037D0000248FDF771FC0BB030BD000064140020FE
:1037E000002090B61000002030B589B02021684636
:1037F000FCF7C8FD1E481D49002401604FF440310C
:10380000C0E90114C46004250461C0E905450477DA
:1038100001214177016280F82440C462046380F88A
:103820003810C46380F84040FDF78AFA08B1FCF70D
:103830005DFF1048009006200190022002907F203A
:103840000594CDE9030569460948FDF743F808B139
:10385000FCF74CFF7F210648FCF74AFF012206498E
:103860000348FDF729FC09B030BD000000010050FD
:10387000D0140020000029C3120000200B4810B50E
:103880000949016000215022C0E901120161C160B3
:10389000416121218161FDF7E5FC002803D0BDE8ED
:1038A0001040FCF723BF10BD00020140FC150020B2
:1038B0000C4810B50A4901608915416050218160AA
:1038C00000210161C160416121218161FDF7CAFCD4
:1038D000002803D0BDE81040FCF708BF10BD000071
:1038E000040201402016002010B58CB0302168463B
:1038F000FCF748FD20491F4808600846FDF761FFB6
:1039000008B1FCF7F3FE0220009000208DF80400BF
:103910008DF805000290039004210490CDE9050183
:103920000246079069461448FDF732FE08B1FCF7DD
:10393000DDFE102269461048FDF72AFE08B1FCF7AB
:10394000D5FE4FF4BA7400210B48FDF797FF002213
:10395000234611460848FDF77FFF10210648FDF772
:103960008DFF2346002210210348FDF775FF0CB0A0
:1039700010BD00000008005044160020094808B59A
:10398000816C41F004018164816C01F004010091BB
:10399000816C41F001018164806C00F001000090B5
:1039A00008BD00000010024010B50E4A0121082099
:1039B00001F04AFD0C4C0B4A0021E0606C3A0B48C8
:1039C00001F0A2FD074A2060483A0021084801F0B2
:1039D0009BFD044A6060243A0021064801F094FDF2
:1039E000A06010BD8C84000800000020F93B000896
:1039F000193D0008253C000810B586B01421684622
:103A0000FCF7C0FC1148C16C41F00101C164C16CFC
:103A100001F001010591C16C41F00201C164C06C6B
:103A20000B4C00F002000590012206212046FEF713
:103A30001DF906210120CDE900100021029103911A
:103A400069462046FEF73AF806B010BD0010024065
:103A5000000400480C4810B50A49016000216022AA
:103A6000C0E9011208220261012202758161C1626E
:103A7000FEF7C2F908B1FCF739FEBDE81040024874
:103A8000FEF76EBA00030140581600200C4810B52E
:103A90000A49016000216022C0E901120822026186
:103AA000012202758161C162FEF7A6F908B1FCF737
:103AB0001DFEBDE810400248FEF752BA0403014063
:103AC0009416002030B58DB0142107A8FCF75AFCDD
:103AD00000242D4D009401940294039404940594C1
:103AE0004FF08040069428600720C5E901044FF498
:103AF0007A70C5E903048020A8612846FFF773F8AF
:103B000008B1FCF7F3FD2048FFF706FA08B1FCF70F
:103B1000EDFD042007904020CDE9080407A91A48CC
:103B20000B94FFF777FC08B1FCF7E0FD00946946C1
:103B300015480294FEF7B6FF08B1FCF7D7FD0A203E
:103B400003900120CDE904040690002203A90E4849
:103B5000FFF751F908B1FCF7C9FD002201210A481D
:103B6000FEF7FCFF08B1FCF7C1FD29686FF001000A
:103B700008612868016841F0040101600248FFF70C
:103B8000B1F80DB030BD0000E0560020184810B567
:103B9000164901604FF461214160002181600C22CF
:103BA000C160C0E904128161C16101624162816248
:103BB000FFF7C5FC08B1FCF799FD00210C48FFF7A1
:103BC00098FC08B1FCF792FD00210948FFF76BFC57
:103BD00008B1FCF78BFD0648FFF746FC002803D030
:103BE000BDE81040FCF782BD10BD00000038014068
:103BF0008C570020FEE7FEE7094D4FF4FA740022CF
:103C000002212846FEF732F8204601F0A9FB0122E6
:103C100002212846FEF72AF8204601F0A1FBEEE734
:103C20000004004818213548FCF7ACFBDFF8CC90C5
:103C30004FF0010A4FF4FA684FF0020B00273048AA
:103C4000008830494C464843010C2F48A9F802101F
:103C500000882C4A5043020CA9F80E202BA000F03B
:103C60004FFF0025A14605EB450609EB8604217AA6
:103C7000042912D2DFE801F0020C1C2709F8267093
:103C80006088A0F5FA7040452FD884F808A016E0A7
:103C90006088A0F5FA70404501D9277225E001F04F
:103CA0006CFB6268801A64281FD309F826A00FE015
:103CB0006088A0F5FA70404517D90320207201F002
:103CC0005CFB606011E06088A0F5FA70404502D8A6
:103CD00084F808B009E001F050FB6268801A0A28F5
:103CE00003D309F82670042020726D1CEDB2022D5A
:103CF000B9D34FF47A7001F033FBA0E74C140020E5
:103D000010000020809C010012000020202564206B
:103D1000202564200D0A00000F4D104E104FADF607
:103D2000080D4FF0FF38434600220DF50061E868AA
:103D300001F058FB9DF8000836F81010891E8CB26F
:103D400007EBC02122466846491CFCF7F4FA2146DD
:103D5000684601F0C5F9E6E700000020D0560020D3
:103D6000D016002010B54FF0E020006904F0A0F953
:103D7000012803D0BDE8104003F05CBE10BD00B5C3
:103D800093B038216846FCF7FDFA14210EA8FCF721
:103D9000F9FA0020FEF726F9222000904FF48070F7
:103DA00003904020049001210220CDE90610CDE9C6
:103DB00008011421CDE90A100421CDE90C10684650
:103DC000FEF770FC08B172B6FEE70F200E900320DC
:103DD0000F90002010901190129004210EA8FEF771
:103DE000F3FA002801D072B6FEE713B000BD000060
:103DF0000248016841F470010160704788ED00E0FD
:103E00000148FFF71FBA0000E056002010B5044833
:103E1000FFF718FABDE810400248FDF79EBC00000D
:103E200020580020441600202DE9F04F02682E4D46
:103E30002E4E2F4FDFF8BCC02F4B304C4FF0804B35
:103E4000A8420BD0584509D0B04207D0B84205D09F
:103E5000604503D0984201D0A04204D122F07008FE
:103E60004A6842EA0802DFF89880DFF89890DFF8A5
:103E700098A0A84211D058450FD0B0420DD0B842FA
:103E80000BD0604509D0984207D0404505D0484541
:103E900003D0504501D0A04203D122F44076CA6835
:103EA00032434E6922F08002324302608A68C26265
:103EB0000A688262A84209D0984207D0404505D0DE
:103EC000484503D0504501D0A04201D109690163A2
:103ED000012141610169C90703D0016921F0010194
:103EE0000161BDE8F08F0000002C0140000400409B
:103EF00000080040000C0040003401400050014028
:103F000000400140004401400048014010B501F06C
:103F10001F010123046A8B409C430462036A8A40A8
:103F20001343036210BD10B5846A0121626A8242A4
:103F300007D12177C06938BB84F83E1084F844105B
:103F400022E0A26A824208D102222277C069D8B94F
:103F500084F83F1084F8451016E0E26A824208D1E6
:103F600004222277C06978B984F8401084F846109A
:103F70000AE0226B824207D108222277C06918B971
:103F800084F8411084F847102046FEF732FF0020E5
:103F9000207710BD10B5846A616A814201D1012089
:103FA0000DE0A16A814201D1022008E0E16A81426C
:103FB00001D1042003E0216B814201D10820207748
:103FC0002046FEF717FF0020207710BD10B5846A49
:103FD0000121626A824203D1217784F83E1019E000
:103FE000A26A824204D10220207784F83F1011E0B7
:103FF000E26A824204D10420207784F8401009E06C
:10400000226B824204D10820207784F8411001E01D
:1040100084F83D102046FEF7EBFE0020207710BD0F
:1040200010B5846842EA032224F47F440A43224301
:10403000826010BD70B50268002495682F4B1D404A
:104040004B682B432E4D2B400D681D4395604A68ED
:10405000702A26D00CDC12F00F0F1FD14FEA22126B
:10406000072A1BD2DFE802F01B1B1B1B243D430069
:104070002449501A8A4212D00ADCB2F5801F0ED0B1
:10408000B2F1101F0BD0203AB2F5801F06D106E026
:10409000102804D0202802D0402800D00124204637
:1040A00070BD0B69D1E902210068FFF7B9FFF6E79F
:1040B0000A68052A13D0B2F1011F10D00268136AF2
:1040C000156A25F00105156202689569096925F0F0
:1040D000F00545EA0111916100680362DFE7012004
:1040E00070BD0A698968006800F00EF8D7E70A69B0
:1040F0008968006800F05AF8D1E700008FFFCFFF11
:10410000F8FFFEFF3000100010B5046A036A23F0C8
:1041100001030362836923F0F00343EA021324F0EE
:104120000A020A438361026210BD000070B5056A8D
:10413000046A24F0010404628469154EB04214D06C
:10414000B0F1804F11D0134EB0420ED0124EB0429B
:104150000BD0124EB04208D0114EB04205D0114ED5
:10416000B04202D0104EB04203D124F003041443F5
:1041700001E044F001041A0724F0F00444EA12625A
:1041800025F00A0301F00A0119438261016270BD42
:10419000002C01400004004000080040000C0040DA
:1041A00000340140004001400050014010B5036A56
:1041B000046A24F010040462846923F0A00324F448
:1041C000704444EA023243EA01118261016210BD87
:1041D00030B5046A056A25F010050562856925F485
:1041E000407545EA022222F470454FF6FF7202EA5A
:1041F000033224F0A0032A43A02404EA0111194346
:104200008261016230BD000030B5416EB9B1026813
:1042100091689268C1F342610B4C520FA35CDD00C0
:1042200004F108039A5CB5FBF2F2A0F86A20625C24
:10423000595CD200B2FBF1F1A0F8681030BD012149
:10424000A0F86A10F8E70000BC84000890F8281075
:10425000090706D501684A68836B22F400421A43B5
:104260004A6090F82810C90706D001684A68C36AF6
:1042700022F400321A434A6090F82810890706D5C4
:1042800001684A68036B22F480321A434A6090F84E
:104290002810490706D501684A68436B22F480223A
:1042A0001A434A6090F82810C90606D501688A6842
:1042B000C36B22F480521A438A6090F82810890652
:1042C00006D501688A68036C22F400521A438A609A
:1042D00090F82810490611D501684A68436C22F409
:1042E00080121A434A60416CB1F5801F06D1016803
:1042F0004A68836C22F4C0021A434A6090F828107E
:10430000090606D501684A68C06C22F400220243FF
:104310004A6070472DE9F84300250446C0F89050E4
:10432000FDF7AAFC8046206800684FF020060007D1
:104330006FF07E4713D54346002231042046009794
:1043400000F0B4F958B1206850E8001F21F0800156
:1043500040E80012002AF6D1C4F8886021E0206805
:104360000068400722D5434600224FF480012046D2
:10437000009700F09BF9C8B1206850E8001F21F4B5
:10438000907140E80012002AF6D12068083050E809
:10439000001F21F0010140E80012002AF5D1C4F805
:1043A0008C6084F884500320BDE8F883C4F88860EA
:1043B000C4F88C6044F86C5F656025760020F3E7F4
:1043C00010B5016851E8002F22F4907241E80023F3
:1043D000002BF6D10E4B0168083151E8002F1A402E
:1043E00041E80024002CF6D1C16E012908D10168F2
:1043F00051E8002F22F0100241E80023002BF6D1F3
:104400002021C0F88C100021C166416710BD00005A
:10441000FEFFFFEF2DE9F041044600682269A16824
:10442000E66911436269002532431143934B0268E8
:10443000934E32400A43026020684168E26821F4EA
:104440004051114341602168A069994201D0226A1C
:1044500010438A688B4E324002438A602068C16AEA
:10446000626A21F00F011143C162874922688748BF
:104470008A420DD1D0F8880010F0030006D0012840
:1044800067D0022854D0032851D164E001204FE0C6
:104490007F498A420BD1D0F8880010F00C0047D039
:1044A000042845D0082852D00C2840D153E079493F
:1044B0008A420BD1D0F8880010F0300038D0102894
:1044C00047D0202843D0302831D144E072498A4275
:1044D0000BD1D0F8880010F0C00029D0402838D087
:1044E000802834D0C02822D135E06C498A420ED1D0
:1044F000D0F8880010F440701AD0B0F5807F28D032
:10450000B0F5007F23D0B0F5407F10D123E09A4270
:104510000DD1D0F8880010F4406009D0B0F5806F5C
:1045200017D0B0F5006F12D0B0F5406F13D0102047
:104530005B495C4E00274FF4004C9A423BD160B17E
:10454000022813D004280BD0082872D10DE00220D5
:10455000EEE70420ECE70820EAE7FEF749F801E07F
:10456000FEF76AF8010001D17CE06146606A36F826
:1045700010206668B1FBF2F006EB4603834270D868
:10458000B0EB063F6DD8002308461946FBF7A2FEA4
:10459000090241EA1061020270081018794132469E
:1045A0000023FBF797FE404AA0F54071914258D88E
:1045B0002168C86056E0E2694FF6EF7862452CD179
:1045C00009284ED2DFE800F00508114D0D4D4D4D84
:1045D0001000FEF70DF801E0FEF71CF8010004D111
:1045E00040E0FEF729F8F9E76146606A36F8100006
:1045F000B1FBF0F04100606801EB5001B1FBF0F05D
:10460000A0F1100141452CD84FF6F0710140C0F3E4
:10461000420001432068C16024E0092821D2DFE87C
:1046200000F0050912200E2020201100FDF7E0FF08
:1046300002E016E0FDF7EEFF010004D112E0FDF705
:10464000FBFFF9E76146606A36F81000B1FBF0F154
:10465000606801EB5001B1FBF0F0A0F110014145A1
:104660000AD901250120A4F86A0024F8680F284619
:10467000E7602761BDE8F08180B299E700800040E3
:10468000F369FFCFFFF4FF11003801400010024032
:104690000044004000480040004C004000500040F2
:1046A0000024F400A4840008FFFC0F002DE9F0476B
:1046B0001F4690460D4604464FF00009089E32E022
:1046C000701C30D0FDF7D8FAC01BB04218D8BEB16C
:1046D00020680168490726D5802D24D0402D22D09E
:1046E000C169C94309070DD4082505622046FFF7B3
:1046F00067FEC4F8905084F884900120BDE8F087EC
:104700000320FBE7C069C04300050CD421684FF4C7
:10471000006008622046FFF753FE2020C4F8900096
:1047200084F88490ECE72068C06935EA000004D082
:1047300000204045C4D00020E0E70120F9E7000058
:104740002DE9FF5FDFF8A8A3DAF80400B0F84460B1
:10475000DFF8A093300440F68F7B7DD49BE0B0F867
:10476000446016F00F0478D030F824805FEA0841E6
:104770003CD530F8241001EA0B0141F0800120F80B
:104780002410DAF80400B0F850100A1840F206417C
:1047900001EBC401575C04EB440209EBC2053B4644
:1047A000B5F8D820D5F8DC10D03500F06DFDE868FC
:1047B0003844E8602869C01B28616869C2196A61C9
:1047C00035F8D009B8427CD8D5F8E000002878D078
:1047D000DAF8040030F824104BF68F72114081F49F
:1047E000405148F28002114320F824105FEA08602B
:1047F00049D5DAF80400574630F8241048F60F720D
:10480000114041F4004120F82410DAF80400B0F817
:10481000501004EB44030A1840F2024101EBC401BA
:10482000515AC1F3090209EBC301CB691344CB61AF
:104830000B6A9B1A0B624B6A1A444A620B6A002B82
:104840007ED00A8A934200D313469DB20A8BC9696F
:104850002B4600F02DFD01E015E0B5E07868B0F8DA
:104860005010084400EBC400A0F80254786830F8F7
:10487000241048F6BF72114081F0300148F28002E6
:10488000114320F82410DAF804005546B0F844101B
:1048900009043FF564AF70051FD54FF4C871954802
:1048A000FBF770FD4021C9F80C10002002F048F819
:1048B000DAF8040001884BF68F72114081F4405100
:1048C00000E009E148F2800211430180DAF80400B7
:1048D00030F8441F21F480610180700406D5DAF8B5
:1048E000040030F8441F21F480410180B00406D553
:1048F000DAF8040030F8441F21F400510180F0047C
:1049000014D5DAF8040030F8402F22F004020280B7
:10491000DAF8040030F8402F22F008020280DAF8BA
:10492000040030F8441F21F480510180300540D547
:10493000DAF8041000206B46524631F8204000E0BF
:10494000CFE023F81040401CC0B20828F5D331F85E
:10495000400F40F001000880506830F8401F21F0FF
:10496000010101805068B0F844104905FBD530F8CA
:10497000441F21F4806101800020546833F8101036
:1049800024F82010401CC0B20828F6D3506830F834
:10499000401F41F008010180506830F8441F21F4A5
:1049A00000610180DAF8040030F8401F41F0040192
:1049B0000180F00506D5DAF8040030F8441F21F430
:1049C00080710180BDE8FF9FF10601883ED448F662
:1049D0000F72114041F4004101806868B0F8501036
:1049E0004FF0000808444F46B0F802048021C0F39D
:1049F0000904D9F81C002044C9F81C00D9F820008B
:104A0000001BC9F82000D9F8240002194046C9F853
:104A1000242001F043FFF88810B13878000605D44F
:104A200000231A461946184601F046FE387A002837
:104A30003FF429AF002C7FF426AF387A696840F044
:104A40008000A1F84C0087F808801CE70A0516D5FD
:104A5000018801EA0B0141F080010180DAF80400CD
:104A6000B0F85010B9F8D820014491F80634214923
:104A700000F00AFC1F49002001F0FAFE03E70904D8
:104A8000E3D5018801EA0B0141F080010180DAF8E9
:104A90000400B0F850104D46014435F8D82F91F875
:104AA000064400272346696800F0EEFB6868394633
:104AB00020446860A868001BA860E868021900200C
:104AC000EA6001F003FF002CBFD100231A4619460B
:104AD000184601F0F1FDD6E62146002001F0F6FE71
:104AE00084E644F08001002001F0D8FECBE600000F
:104AF000AC00002040B500200020FFF721BEFEE7FB
:104B00000FB4054B10B503A9044A029800F0B8F899
:104B100010BC5DF814FB0000715200080C0100206D
:104B20000907090E002804DB00F1E02080F80014DA
:104B3000704700F00F0000F1E02080F8141D70476E
:104B400002E008C8121F08C1002AFAD17047704756
:104B5000002001E001C1121F002AFBD170470000B4
:104B60002DE9F8430746C8884FF400780D464045C4
:104B70000CD92878000609D432A0FFF7C1FF36A06F
:104B8000FFF7BEFF3BA0FFF7BBFF3AE0CF2017FBCC
:104B900000F13A48002600EB810404F11C00A060FB
:104BA000E988E160E988216126750090E88868B1AC
:104BB000287800060AD4022084F81E02EB8800211F
:104BC0003846A26801F078FDBDE8F88304F11003CF
:104BD0006A462946384602F03BF980B1E8882269E6
:104BE000824200D30246E26042450FD915A0FFF78A
:104BF00087FF19A0FFF784FF1EA0FFF781FF84F84D
:104C00001E628021384601F039FDDDE7A068009979
:104C1000884201D001F086F9E368012613B184F8D7
:104C20001E6202E0032084F81E0280213846A2683A
:104C300001F06EFDE98820698142C5D98006C3D1A3
:104C40002675C1E71B5B33316D5B452F757362645D
:104C50005F636F72655D20005265717565737420C6
:104C600062756666657220746F6F20736D616C6C1F
:104C70000D0A00001B5B306D0000000010010020D9
:104C80002DE9FF4F8DB00F460546002606E025288A
:104C90000BD0DDE90F1290476D1C761C2878002898
:104CA000F5D111B03046BDE8F08F0024A246A146F0
:104CB0000122E94900E0044315F8013F203B02FAD4
:104CC00003F00842F7D128782A2810D06FF02F027D
:104CD0002878A0F13001092914D80AEB8A0102EBE7
:104CE000410144F0020400EB010A6D1CF0E701CF22
:104CF0005FEA000A03D544F40054CAF1000A44F004
:104D000002046D1C28782E2817D115F8010F44F0E5
:104D100004042A280ED06FF02F022878A0F1300169
:104D200009290AD809EB890102EB410100EB0109CD
:104D30006D1CF2E757F8049B6D1C28786C280FD087
:104D400006DC4C2817D068280DD06A2814D104E05E
:104D5000742810D07A280FD10DE044F400140AE032
:104D600044F4801401E044F440146978814202D193
:104D700004F580146D1C6D1C28786E281ED00CDC88
:104D8000632830D004DC00288BD0582811D19FE054
:104D9000642867D069280CD164E073282DD004DC26
:104DA0006F2872D0702804D194E075286ED07828CE
:104DB0006DD0DDE90F129047761C4BE1C4F3025031
:104DC000022806D0032809D0042801CF09D00660A4
:104DD00040E101CFF117C0E900613BE101CF06805E
:104DE00038E1067036E117F8040B8DF8000000205A
:104DF0008DF80100EB46012003E057F804BB4FF0AB
:104E0000FF3061074FF0000102D40DE008F101010D
:104E1000884649450FDA8045F8DB1BF80810002961
:104E2000F4D108E008F1010188468142FADB1BF861
:104E300008100029F6D1DDE90F23AAEB080081460E
:104E4000214600F031F9304400EB080604E0DDE9CA
:104E50000F121BF8010B9047B8F10108F7D2214659
:104E60004846F2E00A21C4F302524FF0000B0891C9
:104E7000022A04D001CFC117032A09D00AE0FF1D7E
:104E800027F00707F7E8020108E02CE01EE01FE02A
:104E900000B2C117042A01D140B2C117021E71F13C
:104EA000000206DA0023D0EB030063EB01012D22A0
:104EB00002E0220504D52B228DF82420012203E0F4
:104EC000E20701D02022F7E7904653E00A210BE0E9
:104ED000102109E010214FF0000B44F004044FF0C2
:104EE0000809089103E008214FF0000B0891C4F372
:104EF0000252022A04D001CF0021032A06D006E084
:104F0000FF1D27F00707F7E8020103E080B2042A3B
:104F100000D1C0B24FF0000822072BD52A78702AA2
:104F200007D0DDF820C08CF0100C5CEA0B0C05D02B
:104F30000EE040228DF82420012208E050EA01030F
:104F400006D030238DF824308DF82520022290469B
:104F5000089B83F0080353EA0B030BD150EA0102CC
:104F600001D1620706D530228DF824204FF00108C8
:104F7000A9F101092A78582A04D038A20B9208AA6C
:104F80000A920BE03AA2F9E75B46089AFBF7A2F90E
:104F90000B9B9B5C0A9A521E0A92137050EA010204
:104FA000F2D10A98ADEB000000F1200B600702D5AA
:104FB00024F4803401E04FF00109D94502DDA9EB6A
:104FC0000B0000E0002000EB0B0141440890AAEB2D
:104FD000010AE00306D4DDE90F232146504600F024
:104FE00063F806444FF0000908E009A911F8090028
:104FF000DDE90F12904709F10109761CC145F4DB88
:10500000E0030CD5DDE90F232146504600F04CF8B3
:10501000064404E0DDE90F1230209047761C089921
:10502000481E08900029F5DC08E00A980A990078E3
:10503000491C0A91DDE90F129047761CBBF1000173
:10504000ABF1010BF1DC21465046DDE90F2300F006
:1050500019F806446D1C21E609280100303132336D
:1050600034353637383961626364656600000000A4
:10507000303132333435363738394142434445468E
:10508000000000002DE9F041044600251E461746A9
:10509000880404D405E039462020B0476D1C641E06
:1050A000F9D52846BDE8F0812DE9F04104460025F8
:1050B0001E469046C80301D5302700E0202788040B
:1050C00004D505E041463846B0476D1C641EF9D54D
:1050D0002846BDE8F0810000004870476E86000851
:1050E0002DE9F043ADF2046D0E4607464FF48061A2
:1050F0006846FBF747F900252C46A946E84620E01C
:10510000395DA1F14000062803D808F80590641C19
:1051100010E0A1F11C00092819D8601CB0420BD284
:10512000381940781C2807D3252805D8012108F80C
:105130000510A41C6D1C04E0214624A0FFF7E0FC30
:10514000641CB442DCD3002069463F220CE02246B6
:105150002BA0FFF7D5FCF3E70C180B5C6478A34297
:1051600001D1484603E0401C9042F5DB012040B3EA
:10517000A5F14002144668464031FBF7DCF84FF4D5
:1051800000710DF58060FBF7FDF800226E460DF50D
:10519000806711460EE0002318460D18755D05F076
:1051A000010585401D43401CEBB20528F5DBBB54CF
:1051B000491D521C081DA042EDDB0DF2046DBDE837
:1051C000F0831CA0FFF79CFCF7E700004572726FAC
:1051D000723A20756E6578706563746564207369D2
:1051E0006E676C652068616C662D626974206174FD
:1051F00020696E64657820256C75200D0A0000001A
:105200004572726F723A20756E6B6E6F776E2069A1
:105210006E74657276616C2076616C7565202564AC
:1052200020617420696E64657820256C75200D0AF4
:10523000000000004E6F20747261696E696E672015
:10524000636F64652064657465637465642E0A0029
:10525000004870475C86000800487047A586000833
:1052600001700A0A42700A0C8270090EC170704700
:1052700013B54FF47A73012269460248FEF7D2F95A
:1052800000981CBD8C57002010B510445C0800F538
:10529000806008D030F8022B01F8012B120A01F8C7
:1052A000012B641EF6D1DA0701D00088087010BD0A
:1052B00010B55B1C10445B0800F5806009D011F844
:1052C000012B11F8014B42EA042220F8022B5B1E4D
:1052D000F5D110BDCF2110FB01F0044901EB800096
:1052E00090F81C02002800D0012070471001002017
:1052F000FCF7D0FCFEF743FDFEF77EFBFEF73EFB1E
:10530000FEF71EFAFEF7BAFAFEF7D2FAFEF7DAFB5C
:10531000FEF73CFCFEF768FAFEF7E6FAFEF79AFBAA
:10532000FEF7B4FB0649002002F0D8FA05A0FFF70B
:10533000E7FB00F029F8FEF737FB00F037F8FEE74F
:10534000005C00402A2A2A2A207374617274207239
:10535000756E20636F6465202A2A2A2A0D0A0000D0
:1053600010B5EFF3058111B16FF0050403E00024DF
:1053700008B102F0CFF9204610BDEFF3058008B167
:1053800002F0AABE02F0A2BEEFF3058010B16FF0EA
:10539000050070470448016811B14FF0FF307047B5
:1053A00001210160002070477C00002010B5EFF360
:1053B000058010B16FF0050010BD08480168012993
:1053C00002D04FF0FF3010BD054A002182F8141DB5
:1053D0000221016002F006FA002010BD7C000020CE
:1053E0000BE000E0F8B51D466FF003036FF0020616
:1053F0004FF00004EFF30582A2B1F0B1E9B1E5B9D5
:10540000002200926A4602F071FD012817D100982F
:10541000B0B10C494FF080500860BFF34F8FBFF31D
:105420006F8F0DE048B141B12A4602F0C3FC01285C
:1054300006D025B16FF0010402E01C4600E03446BE
:105440002046F8BD04ED00E0F8B514464FF0000525
:10545000EFF3058212BB08B301B3A4B1D4E9023261
:1054600063B1502A1AD32269C2B1676900FB01F601
:10547000B74213D3009502F014FB07E072B922691A
:1054800062B9626952B9002202F0EAFA050005D059
:105490000CB1216800E0002102F008F92846F8BDAF
:1054A000F8B51D466FF003036FF002064FF00004DD
:1054B000EFF30582AAB100B3F9B1F5B900221346A2
:1054C00000926A4602F016FC012818D10098B8B183
:1054D0000C494FF080500860BFF34F8FBFF36F8FC0
:1054E0000EE050B149B100232A4602F051FB0128D9
:1054F00006D025B16FF0010402E01C4600E03446FE
:105500002046F8BD04ED00E02DE9FF410B464FF0C9
:105510000005EFF30581039549BB40B380261821B0
:1055200000244AB3176807B13C46976907B139466A
:105530004F1E382F02D21779FF0703D0002004B086
:10554000BDE8F081576907B1BE08D2F808C0BCF1C8
:10555000000F0DD0D5685C2D18D312693AB137B160
:105560008DE806103246214602F075FD03900DE0ED
:10557000D7685FB912694AB903AACDE90012B2B27D
:10558000214602F03BFD012800D003950398D6E7A1
:105590002DE9F041134E0F460446F5683068001DB2
:1055A00001F086FF601C07D137B13168BDE8F041DA
:1055B0000D48091D01F0CCBF30682C44AC4244605A
:1055C000316805D2B06BBDE8F041091D01F0A8BFFC
:1055D000706B091D01F0A4FFB06A844200D2B4626E
:1055E000BDE8F0812C0000205C5D00202DE9F04139
:1055F000054601F0B9FF2D4EB068401CB060306820
:105600002B4F10B1706930B32BE03560B0680128C2
:1056100027D1002404EB840007EB800001F072FF27
:10562000641C382CF6D3234801F06CFF2148143059
:1056300001F068FF1F48283001F064FF1D483C302E
:1056400001F060FF1B48503001F05CFF19487063A7
:105650001430B06305E03068E96AC06A884200D857
:105660003560706A401C70626864E86A316988421B
:1056700000D9306100EB800007EB8000291D01F0AC
:1056800067FF01F091FF706900280CD03068E96A6B
:10569000C06A884207D208494FF080500860BFF3C3
:1056A0004F8FBFF36F8FBDE8F08100002C0000200A
:1056B000AC5800200C5D002004ED00E038B501F08E
:1056C00053FF104C2068C8B90F4801F01BFF0E486B
:1056D000143001F017FF0C48E060143020610A4BD1
:1056E0000020F03B009003F1500210210A2002F04C
:1056F000D8F9206010B105A101F0D8FFBDE838400D
:1057000001F052BF68000020605E0020546D7251AD
:105710000000000030B4026C0B46002A0BD0C168B8
:105720001144C1608468A14201D30168C16030BCEA
:105730001846FAF700BE30BC70472DE9F041856B82
:10574000174604460026026C82B1C7B1E068FAF73A
:10575000F2FDE168206C091AE1602268914202D2F0
:10576000A168081AE060022F16D017E02068A8B9D7
:10577000A06802F01DFD06460020A0600EE06068F3
:10578000FAF7D9FD216C606808446060A16888421E
:1057900004D32068606001E005B16D1E6D1CA56337
:1057A0003046BDE8F08110B5044690F8590058B174
:1057B00001280CD002280FD0502080F31188BFF3AD
:1057C0004F8FBFF36F8FFEE7206B01F001FF204684
:1057D000BDE8104001F0FCBE10BD000010484FF4C1
:1057E000A041420706D0C01D0D4920F00700411A14
:1057F000C1F5A0410B4A00230144C2E90003083966
:10580000183A21F0070111604B600B600B1AC0E9D8
:10581000001393604FF000405360506170470000E8
:105820004065002098000020134E144DA6F29C47BE
:105830004FF08058DFF8489011E001F095FEF068D5
:10584000C468201D01F034FEA868401EA860686886
:10585000401E686001F0A8FE2046FFF7A4FF6868BC
:105860000028EAD138680128F9D9C9F80080BFF3C7
:105870004F8FBFF36F8FF2E7485D00202C000020B0
:1058800004ED00E070B51D46049C49B12260C4E9F6
:105890000F010121204602F037F984F84C5070BD09
:1058A0002460F4E72DE9F05F0E46DDE90B9417461E
:1058B000834691009A460A9DA522206BFAF75BFD6C
:1058C0006FF00301206B01EB8701084420F007070C
:1058D000780707D0502080F31188BFF34F8FBFF3B4
:1058E0006F8FFEE74FF0000866B100202218315C90
:1058F00082F83410315C11B1401C1028F6D384F8C2
:10590000438001E084F83480382D00D33725E562E8
:10591000C4E91358201D01F000FE04F1180001F045
:10592000FCFD2461C5F138006462A061C4F85480B4
:1059300084F8588052465946384600F05DFA206097
:10594000B9F1000F01D0C9F80040BDE8F09F000098
:1059500030B5114900E011460A688242FBD34B681A
:105960005C18844203D14068184448600846436884
:105970001C18944209D1084C183C2468A24209D052
:1059800052681A4442600A6812680260814200D07C
:10599000086030BD0460F9E79800002070B500246D
:1059A00041600B4D0061914206D8D11A8269914243
:1059B00006D2011D286907E09A4203D2994201D319
:1059C000012403E0011DE86801F0AAFD204670BD36
:1059D0006800002010B5044601F0C6FDA06B20B1A0
:1059E000002401F0E1FD204610BD0124F9E700008C
:1059F00030B587B03C4D6EE00198002806DADDE94D
:105A00000301029A90470198002864DB039C6069B7
:105A100010B1201D01F04CFD05A800F0D7F802469A
:105A200001980A2857D2DFE800F00505052D334A12
:105A300005052D3394F8280040F0010084F8280073
:105A40000298A169034601442046FFF7A7FF68B307
:105A5000216A2046884794F8280040073BD500205B
:105A600000900298A169002342181946204602F0CE
:105A7000A5FCD8B9502080F31188BFF34F8FBFF336
:105A80006F8FFEE714F8280F20F00100207022E04D
:105A900094F8280040F0010084F828000298A061E2
:105AA00028B1811813462046FFF778FF13E05020F5
:105AB00080F31188BFF34F8FBFF36F8FFEE794F829
:105AC0002800810703D4204601F082FD03E020F086
:105AD000010084F82800002201A9286802F06AF970
