:020000040800F2
:1000000000830020B10200080F3C000801370008FF
:100010000D3C000851060008434C00080000000099
:10002000000000000000000000000000F1010008D6
:1000300017070008000000004D020008853D000879
:10004000CB020008CB020008CB020008CB0200085C
:10005000CB020008CB020008CB020008CB0200084C
:10006000CB020008CB020008CB020008CB0200083C
:10007000CB020008CB020008CB020008CB0200082C
:10008000CB020008CB020008CB020008CB0200081C
:100090003D4C0008CB020008CB020008CB02000850
:1000A000CB020008CB020008CB020008CB020008FC
:1000B000213E0008CB020008CB020008CB0200085A
:1000C000CB020008CB020008CB020008CB020008DC
:1000D000CB020008CB020008CB020008CB020008CC
:1000E000CB020008CB020008CB020008CB020008BC
:1000F000CB020008CB020008CB020008CB020008AC
:10010000CB020008CB020008CB020008CB0200089B
:10011000CB020008CB0200082D3E0008CB020008ED
:10012000CB020008CB020008CB020008CB0200087B
:10013000CB020008CB020008CB020008CB0200086B
:1001400055060008CB020008CB02000800000000A2
:10015000000000000000000000000000000000009F
:10016000000000000000000000000000CB020008BA
:10017000CB020008CB020008CB020008CB0200082B
:10018000CB020008CB020008CB020008CB0200081B
:10019000CB02000800000000CB020008CB020008E0
:1001A000CB020008CB020008CB020008CB020008FB
:1001B000CB020008CB020008CB020008CB020008EB
:1001C000CB020008CB020008CB020008CB020008DB
:1001D000CB020008CB020008DFF810D000F0F6F8E0
:1001E0000048004785540008AFF3008000830020DA
:1001F0002C4B19680868B0E8F04F80F30988BFF30A
:100200006F8F4FF0000080F31188704700000000EE
:1002100008480068006880F308884FF0000080F309
:10022000148862B661B6BFF34F8FBFF36F8F00DFE4
:1002300000BF00BF08ED00E0DFF80C00016841F4EA
:1002400070010160704700BF88ED00E0EFF30980A6
:10025000BFF36F8F134B1A681EF0100F08BF20ED0D
:10026000108A20E9F04F106009B44FF0500080F37D
:100270001188BFF34F8FBFF36F8F07F009FD4FF069
:10028000000080F3118809BC19680868B0E8F04FD5
:100290001EF0100F08BFB0EC108A80F30988BFF37E
:1002A0006F8F704724000020EFF305807047000037
:1002B0000648804706480047FEE7FEE7FEE7FEE700
:1002C000FEE7FEE7FEE7FEE7FEE7FEE7113E000879
:1002D000D90100082DE9F05F0546002092469B46B3
:1002E00088460646814640241BE02846414647464C
:1002F000224600F05AF853465A46C01A914110D38C
:1003000011461846224600F041F82D1A67EB010805
:100310004F4622460120002100F038F817EB000973
:100320004E41201EA4F10104DFDC484631462A4636
:100330004346BDE8F09F40EA01039B0703D009E074
:1003400008C9121F08C0042AFAD203E011F8013BC1
:1003500000F8013B521EF9D27047D2B201E000F81A
:10036000012B491EFBD270470022F6E710B5134659
:100370000A4604461946FFF7F0FF204610BD421C0E
:1003800010F8011B0029FBD1801A7047202A04DBDA
:10039000203A00FA02F1002070479140C2F1200398
:1003A00020FA03F3194390407047202A04DB203AD7
:1003B00021FA02F00021704721FA02F3D040C2F185
:1003C000200291400843194670470000064C074D33
:1003D00006E0E06840F0010394E807009847103415
:1003E000AC42F6D3FFF7FCFECC8B0008EC8B000888
:1003F00070B58C1810F8015B15F0070301D110F8E7
:10040000013B2A1106D110F8012B03E010F8016B13
:1004100001F8016B5B1EF9D12B0705D40023521E96
:100420000DD401F8013BFAE710F8013BCB1A921CFE
:1004300003E013F8015B01F8015B521EF9D5A142FC
:10044000D8D3002070BD10B5846AE16D11F0500F53
:1004500006D0E16DC90630D5204600F0A5FC10BDE0
:10046000E06D40F40070E06520680168090712D56E
:1004700003F05DF9E8B12068C068800419D4E06D2C
:1004800020F48070E065E06DC00412D4E06D40F0AF
:100490000100E0650DE0C06880070AD4E06D20F43B
:1004A0008070E065E06DC00403D4E06D40F00100B1
:1004B000E065204600F076FC10BD616D496BBDE83B
:1004C0001040084710B5806AC16D41F04001C16518
:1004D000016E41F00401016600F066FC10BD10B52C
:1004E000806A00F060FC10BD70B504462068816829
:1004F000C1F3400503F00FF978B375BB206881683C
:1005000001F00D01012909D0E06D40F01000E06517
:10051000206E40F001002066012070BD8168124A03
:100520001140891C816021680320086001F02EFCC5
:10053000054613E001F02AFC401B02280ED9206872
:100540008068C0070AD0E06D40F01000E065206EC2
:1005500040F001002066012070BD03E02068806843
:10056000C007E7D10020F7E7C0FFFF7FF8B50446DA
:1005700000200090206803F0CEF8002859D12068B0
:1005800081682D4A114209D0E06D40F01000E0650D
:10059000206E40F0010020660120F8BD8168264EE3
:1005A0007F3E3140491C81602068B0F1A04F02D0ED
:1005B0002249884201D1224800E02248806800F0A8
:1005C000E070000210D5204820490068B0FBF1F02F
:1005D000401C00EB40008000009002E00098401EAC
:1005E000009000980028F9D101F0D0FB05461BE0EF
:1005F00003F091F820B9206881683140491C81607E
:1006000001F0C4FB401B02280ED920680068C043DB
:10061000C00709D0E06D40F01000E065206E40F0AA
:10062000010020660120F8BD20680168C943C907A0
:10063000DED10020F8BD00003F0000800001005026
:10064000000300500007005020000020400D030070
:10065000FEE7000010B5044800F014FEBDE81040AD
:10066000024800F00FBE0000E4150020081600202C
:100670000D4902688A4201D20C4901E00B49203140
:10068000D2B2083A1423B2FBF3F2436C23F0030313
:100690001944816405498031C16402F01F020121BF
:1006A00091400165704700000804024000080240C4
:1006B0000179074A491E02EB81024265044A403231
:1006C000826501F01F0201219140C1657047000061
:1006D0000009024030B5D0E913546C60446D002C21
:1006E00002D0D0E916546C6090F8444004F01F0525
:1006F0000124AC40056C6C60046863608368102B57
:1007000004D0036899600068C26030BD03689A60D5
:100710000068C16030BD704772B6FEE7F8B50446A8
:100720000E460025009594F85800012810D00120AD
:1007300084F858002046FFF7D7FE0346180009D07A
:10074000E06D40F01000E06584F858501846F8BDA0
:100750000220F8BDE06D20F4885040F00200E06512
:1007600020688168124A114006F08042114341F02E
:10077000004181600F4920680FE0009A521C0092EE
:10078000009A8A4209D3E06D20F0020040F0100088
:10079000E06584F858500120F8BD8268D20F002A25
:1007A000EBD1E06D20F0020040F00100E065CBE706
:1007B000C0FFFF3F02DE04002DE9F04F9DB004466C
:1007C0000D464FF0000A94F85800012811D001207E
:1007D00084F85800002719971A9720684FF0A04B0B
:1007E000DFF82881DFF828914A4E584505D1029656
:1007F00009E002201DB0BDE8F08F404502D1CDF8E0
:10080000089000E00297029840B1029802F08BFF36
:100810000190206802F087FF40B109E0E06D40F0F0
:100820002000E06584F858700120E3E7019848B1A2
:10083000E06D40F02000E0654FF0010A84F8587048
:100840005046D7E72068584501D0B04201D1324820
:1008500000E03248324B296840F61F7281B381684C
:1008600094F838C021F4604141EA4C31D5F804C015
:1008700041EA0C0181602168594501D0B14208D19B
:10088000DBF80810C1F30001B368C3F30003194398
:100890000CE0D8F80810C1F30001D9F80860C6F3DD
:1008A000000631439B68C3F3000319430029C5D1F7
:1008B000AB68296819438368934319438160BDE796
:1008C000FFE7816821F4604181602168594501D0CA
:1008D000B14208D1DBF80810C1F30001B368C3F3DB
:1008E000000319430CE0D8F80810C1F30001D9F84F
:1008F0000850C5F3000529439B68C3F3000319435F
:1009000000299BD181689143816097E700040050E2
:100910000005005000010050000300500007005087
:10092000000600502DE9F84F04460D46002600272A
:100930000097DFF8349494F85800012811D04FF054
:10094000010884F85880206802F0E9FE58B1E06D93
:1009500040F02000E065012684F858703046BDE87C
:10096000F88F0220FBE7A98820682A6801F4407309
:1009700000EB9310036B01F01F014FF01F0C0CFAFA
:1009800001FCC2F3846223EA0C038A40134303632D
:10099000206802F0C4FE8246206802F0B8FE5AEADF
:1009A000000A3CD1AA68B2F1004F39D0296820680A
:1009B00002F0C5FE2068416921F0004141612068D4
:1009C0006A69C168C1F3C10149008A4029690429E3
:1009D00034D02B6800EB8100016EDFF890C303F088
:1009E000F84301EA0C011343194341F00041016649
:1009F00020682A69A96900EB8200026E22F08072E9
:100A00000A430266297F20682A69012913D0002140
:100A100000EB8200026E22F000720A4302667CE064
:100A200029680022206802F08AFE2068416941F0AE
:100A300000414161C3E74FF00071E9E7002102F096
:100A400060FE40036ED00021206802F05AFE90FA4A
:100A5000A0F0B0FA80F1286842036AD090FAA0F0C2
:100A6000B0FA80F0814204D100221146206802F0E1
:100A700075FE0121206802F044FE40035CD0012194
:100A8000206802F03EFE90FAA0F0B0FA80F12868EB
:100A9000420358D090FAA0F0B0FA80F0814204D11D
:100AA00000220121206802F059FE0221206802F094
:100AB00028FE40034AD00221206802F022FE90FA6C
:100AC000A0F0B0FA80F12868420346D090FAA0F076
:100AD000B0FA80F0814204D100220221206802F0A5
:100AE0003DFE0321206802F00CFE400338D00321B4
:100AF000206802F006FE90FAA0F0B0FA80F12868B3
:100B0000420334D090FAA0F0B0FA80F0814204D1D0
:100B100000220321206802F021FE206802F0FBFD84
:100B200040B3B0E00021206802F0EBFDC0F3846127
:100B300091E7C0F3846095E70121206802F0E1FDB0
:100B4000C0F38461A3E7C0F38460A7E702212068B3
:100B500002F0D7FDC0F38461B5E7C0F38460B9E764
:100B60000321206802F0CDFDC0F38461C7E7C0F324
:100B70008460CBE720682A7B296850F8B03FC1F336
:100B8000120C23EA0C0302F0180C794A22FA0CF238
:100B90000A4013430360E868484574D1286841035C
:100BA00019D090FAA0F1B1FA81F1491C01F01F01AE
:100BB000092931D84103002910D090FAA0F1B1FAE7
:100BC00081F101F1010101F01F0108FA01F808D1DA
:100BD000C0F3846109E0C0F38461E6E7C0F3846197
:100BE000EFE790FAA0F1B1FA81F101F1010101F012
:100BF0001F0148EA816102D1C0F3846003E090FAEA
:100C0000A0F0B0FA80F000F1010000F01F0000EB4E
:100C1000400041EA005132E04FEA403100290DD056
:100C200090FAA0F1B1FA81F101F1010101F01F0187
:100C300008FA01F805D1C0F3846106E0C0F38461CD
:100C4000F2E790FAA0F1B1FA81F101F1010101F0AE
:100C50001F0148EA816102D1C0F3846003E090FA89
:100C6000A0F0B0FA80F000F1010000F01F00A0F148
:100C70000A0000EB400041EA005040F00071AA6811
:100C8000206802F05CFD3B482A6802423FF464AEF3
:100C900020684FF0A048384BDFF8E0C0384D4045A1
:100CA00001D0A84201D1194600E06146896801F0EF
:100CB000E071DFF8D0904A4503D0DFF8CC904A4588
:100CC00026D15FEA012923D4404503D02F4A904220
:100CD0007FF442AE404502D0A84200D0634641F4C2
:100CE0000000996821F0E071014399602848294982
:100CF0000068B0FBF1F0401C00EB40008000009069
:100D000002E00098401E009000980028F9D123E6E8
:100D1000DFF884904A4514D15FEAC11911D4A84282
:100D200002D11E4A9042F2D0404502D0A84200D0E3
:100D3000634641F08070996821F0E0710143996049
:100D40000AE6DFF85C904A45E1D14A02DFD4A842C6
:100D5000DDD0404500D0634641F48000996821F021
:100D6000E07101439960F7E500007F4000F0FF0368
:100D7000FFFF07000000088000030050000700503C
:100D800000010050000021C31000C0900006005078
:100D900020000020400D0300000052C70005005055
:100DA000000084CB7047704770470000F8B50446D8
:100DB000002500260096002C02D0E06D10B107E05F
:100DC0000120F8BD204600F013F9266684F858602B
:100DD00020688168C1F3407119B18168794A114076
:100DE000816020688168C1F30071A1B98168764A89
:100DF000114041F080518160744875490068B0FB32
:100E0000F1F0401C4000009002E00098401E00906D
:100E100000980028F9D120688168C1F3007141B9B8
:100E2000E16D41F01001E165216E41F001012166A3
:100E3000012502F074FCE16DC90600D430B1E06D0B
:100E400040F01000E06501252846F8BDE06D20F473
:100E5000807040F00200E065206802F05CFC58BB46
:100E600020684FF0A0435B4A984201D0904207D1DE
:100E70009968C1F300019668C6F3000631430DE09E
:100E800055498968C1F30001544EB668C6F300069F
:100E90003143534EB668C6F30006314361B99842F8
:100EA00001D0904201D14F4800E04F48616882680C
:100EB00022F47C120A438260E168E06B627F08439F
:100EC000A16841EA4231084394F8241040EA014005
:100ED000012903D1218D491E40EA4140E16A29B12F
:100EE00001F47871226B014342EA01002168CA686B
:100EF0003E4B1A400243CA6020680169626B21F0D0
:100F0000406111430161206802F001FC80BB207F39
:100F100094F83810800340EA41012068C26844F226
:100F200002039A430A43C260206968B120680169DC
:100F300041F480310161206850F8C01F22696FF3CD
:100F40000D01114301600AE02068016921F480313C
:100F50000161206850F8C01F6FF30D01016094F823
:100F60004000012813D02068016921F001010161CE
:100F7000606901281CD02068016B21F00F0101631A
:100F8000E06D20F0020040F00100E0655CE7D4E98C
:100F900011100143D4E91302104301432068026990
:100FA00040F2FC739A43114341F001010161DFE714
:100FB0002068016B226A21F00F01521E1143016368
:100FC000DEE70000C0FFFF5FC0FFFF7F20000020C2
:100FD000400D0300000100500004005000050050C7
:100FE0000006005000030050000700500740F0FFCB
:100FF0002DE9F04F9BB00446142116A8FFF7B4F971
:10100000542101A8FFF7B0F94FF4004120680026F1
:101010008A03DFF828A18027494D4FF0030B4FF4D6
:1010200080784FF48069B0F1A04F12D0454B9842C0
:101030004ED10191129201A801F0E8F808B1FFF732
:101040006BFBDAF80400401CCAF80400012842D007
:1010500049E00191129201A801F0D8F808B1FFF718
:101060005BFBDAF80400401CCAF80400012807D131
:10107000E86C40F40050E864E86C00F40050009024
:10108000E86C40F00200E864E86C00F002000090B8
:1010900001201690CDF85CB0189616A92A4800F0E9
:1010A00097FD2B4D2948286005206860AE60EE60F2
:1010B0002F61C5F81480C5F818902020E8612E62D1
:1010C000284600F0DDFC08B1FFF726FB6565AC6241
:1010D0001BB0BDE8F08FE86C40F40050E864E86CA9
:1010E00000F400500090E86C40F00100E864E86C07
:1010F00000F0010000901697CDF85CB0189616A984
:101100004FF0904000F064FD1048114D28306035DC
:10111000286024206860AE60EE602F61C5F81480FE
:10112000C5F818902020E8612E62284600F0A8FC3F
:1011300008B1FFF7F1FA6565AC62C9E70C00002061
:101140000010024000010050000400480800024066
:10115000241500202DE9F047044689469246206870
:101160004FF0A0483D4F404501D0B84201D13C4925
:1011700000E03C49896801F01F0502F0D0FA10B187
:101180000220BDE8F08794F85800012808D001201B
:1011900084F8580034492068884203D1012002E0D5
:1011A0000220EEE70020401E28424FF0000607D044
:1011B000052D05D0092D03D0012084F85860E0E703
:1011C0002046FFF7D3F910B184F85860D9E7E06DF5
:1011D00040F60161884340F48070E0652068B842C1
:1011E00006D02249884202D1DFF8848000E08046A0
:1011F000804500D01DB9E06D20F48010E065E06D01
:10120000C00404D5206E20F00600206600E02666AB
:10121000616D1848C862616D17480863616D1748B1
:10122000486321681C20086084F858602068416881
:1012300041F0100141602068C16841F00101C160C6
:101240002168534640314A46606D00F079FC2168C0
:101250008A680B4B1A40121D8A6092E70001005009
:101260000003005000070050000600500005005029
:101270000004005047040008DF040008C50400080B
:10128000C0FFFF7F70B5274E264A01681436914291
:1012900002D14FF400121EE0224A121D914202D1E7
:1012A0004FF4800217E01F4A0832914201D18A06AA
:1012B00011E01C4A0C32914202D14FF080420AE008
:1012C000184A1032914201D1CA0604E0B14201D15C
:1012D000012200E002220023134D134C203DB142B5
:1012E00003D0104E1836B14209D1216832EA01010B
:1012F00003D0002151B1022308E00121FAE7296857
:1013000032EA01010AD0002101B10123002B04D0EF
:10131000022B05D02A6000F0DBF970BD0121F3E754
:101320002260F8E700020140340401402DE9F84F43
:101330000446002000900025002C05D02168096893
:10134000002903DA01251CE101251AE1617F21B999
:1013500020772062204600F029F92068016801F416
:101360000002D4E901311943E66863693343194344
:10137000236919430368844E33400B43036021689B
:101380000868000211D582B98048814A0068B0FB24
:10139000F2F0401C00EB80008000009002E000981A
:1013A000401E009000980028F9D17A4B79481433F8
:1013B000814202D14FF400101EE07648001D8142A8
:1013C00002D14FF4800017E072480830814201D109
:1013D000800611E06F480C30814202D14FF080400E
:1013E0000AE06C481030814201D1C00604E0994205
:1013F00001D1012000E00220A669674FDFF89CC1FF
:10140000674A5FEA867AA7F10408ACF104097CD048
:101410005FEAC66B07F1040A0CF104060DD5994288
:1014200001D0914205D1DAF800100143CAF800104A
:1014300010E03168014331600CE0994201D09142E3
:1014400005D1DAF800108143CAF8001002E03168D3
:1014500081433160217EDFF84CA1534E89060ED5C1
:101460002168994201D0914205D1DAF80010014378
:10147000CAF8001011E03168014331600DE02168C5
:10148000994201D0914205D1DAF800108143CAF89F
:10149000001002E03168814331602168994201D037
:1014A000914203D13F490831086002E03E490831CA
:1014B0000860217E89070ED52168994201D09142AA
:1014C00003D139680143396013E0DCF800100143AF
:1014D000CCF800100DE02168994201D0914203D16F
:1014E00039688143396004E0DCF800108143CCF8AE
:1014F0000010217EC90712D02168994201D0914283
:1015000007D1D8F80010014300E019E0C8F8001036
:1015100033E0D9F800100143C9F800102DE021682C
:10152000994201D0914205D1D8F800108143C8F802
:10153000001022E0D9F800108143C9F800101CE027
:10154000994201D0914203D139688143396004E066
:10155000DCF800108143CCF800102168994201D0DA
:10156000914205D1D8F800108143C8F8001004E07A
:10157000D9F800108143C9F80010607F08B9012034
:1015800060772846BDE8F88F0F7E00FF200000201E
:10159000400D030000020140240401400404014006
:1015A000180201402C0401400C0401402DE9F041D7
:1015B00086B00446142101A8FEF7D6FE2B48216808
:1015C00000242B4A022608254FF003084FF09047CD
:1015D000814224D1D06C40F00100D064D06C00F086
:1015E000010000900196CDF80880039401A93846C7
:1015F00000F0EEFA402001900296039404940595C1
:1016000001A9384600F0E4FA00220521402000F04C
:101610004BFC402000F03AFC06B0BDE8F0811348D6
:10162000001D8142F8D1D06C40F00100D064D06C34
:1016300000F00100009004200190029603940494AD
:10164000059501A9384600F0C3FA0195CDF8088048
:10165000039401A9384600F0BBFA0022052140207E
:1016600000F022FC402000F011FCD5E70002014010
:101670000010024008B5014600200090002905D066
:101680000A681368002B03DA012008BD012008BD99
:101690004B7F012B01D0012008BD136843F00103EB
:1016A000136002224A770849084A0968B1FBF2F13F
:1016B00001EB8101009102E00099491E009100991F
:1016C0000029F9D108BD00002000002080841E0000
:1016D000704770472DE9F05F04460D4693464FF082
:1016E0000009002C0FD075B1607901280ED04FF0A1
:1016F000010884F8058002202071A8680BF010060C
:10170000042805D051E00120BDE8F09F0220FBE74E
:1017100000F03CFB07464FF0030ABBF1000F11D06D
:1017200029E000F033FBC01B01280BD92068406B77
:10173000000407D5206940F00800206184F804A067
:101740000320E1E72068406B0004EAD42168686A5E
:10175000086417E000F01AFBC01B01280BD92068B1
:10176000406B002807DA206940F00800206184F807
:1017700004A00320C8E72068406B0028EADB21684A
:10178000686A48642068816C40F2FF32B24091433D
:10179000AA6AB240114381642068C16CFF22B24042
:1017A0009143EA6AB2401143C164E869012808D153
:1017B0002068826B1F21B1408A43296AB1401143DE
:1017C00081632068C16B0720B0408143A86901286C
:1017D0005BD002285BD06869F0B300206B69AA680F
:1017E0001A4302434FF4807000FA06F399432B79B1
:1017F000012B00D0002010434FF4007A0AFA06F2C1
:1018000091436A79012A01D04FF0000A4AEA000A9E
:1018100021F44047286802283DD007430AFA06FA17
:101820004AEA070A2068C0F83CA0206801684FF423
:101830008042B240914301602068026840F6FE7128
:10184000B1408A43E968B1401143016020680168F2
:10185000C022B240914300E01BE00160287BC0F34E
:101860008300297C01F03C0140EA81112068026E6E
:1018700040F60F73B3409A43B1400A43026684F8BE
:1018800004800020607148463EE70020A6E7012062
:10189000A4E70120A2E700F043FF0649884202D9ED
:1018A00047F40047BAE704498842B7D947F480476C
:1018B000B4E700000068890900B4C40470472DE94A
:1018C000F041044620680568466BA9044FF0040700
:1018D00010D5B1040ED52771216941F001012161B4
:1018E000F90241632068016821F4805101602046BB
:1018F000FFF7E4FFA80014D5B00012D527712069C6
:1019000040F00200206121684FF0005048632068D9
:10191000016821F0805101602046BDE8F041FFF7E9
:10192000D8BEBDE8F08170B50446002C03D0207904
:10193000002510B105E0012070BD6571204600F062
:1019400007F802202071256101202071002070BD60
:1019500010B586B00446142101A8FEF705FD15490F
:101960002068884223D11448C16C41F48031C1649D
:10197000C16C01F480310091C16C41F00101C1647E
:10198000C06C00F001000090302001900320029014
:101990000020039001A94FF0904000F019F90022B7
:1019A0000F21362000F080FA362000F06FFA06B0E2
:1019B00010BD0000000800500010024078B500245F
:1019C0000094002811D00068C46B01F010064FF499
:1019D0008075B5402C40009049B1009810441430F7
:1019E000009000980360002078BD012078BD009829
:1019F000104408300090F4E7F8B5002816D042797A
:101A0000012A15D001244471022505710268166867
:101A100001F0100304FA03F73E431660164A174E0E
:101A20001268B2FBF6F2521C009206E00120F8BDEB
:101A30000220F8BD009A521E0092009A002AF9D1A5
:101A400079B101680A689D4002F47812AA4203D174
:101A50004A6842F002024A6004710021417100208C
:101A6000F8BD01680A68C2F34402012AF4D14A6849
:101A700042F001024A60EFE720000020400D030021
:101A800070B50446002C0DD02A4A206814219042DB
:101A90000AD2294A0244B2FBF1F189006164274964
:101AA00021640BE0012070BD224A52420244B2FB85
:101AB000F1F1890061641F4908392164022184F829
:101AC0002510026847F6F0718A43D4E902131943DE
:101AD000D4E904352B431943A3691943E369194336
:101AE000236A1943114301602046FEF7C1FDA06837
:101AF0000025B0F5804F00D16560A16C20790860A9
:101B0000D4E9131048606068401E032808D82046B6
:101B1000FEF7CEFD606D0560D4E91610486002E066
:101B20006565A565E5652434A561012060702570B3
:101B3000002070BD08040240F8FFFDBF0000024015
:101B400070B50446002594F8240001280CD001202B
:101B500084F8240094F825600020012E06D084F833
:101B600024000225284670BD022070BD022684F89C
:101B70002560E0632068066826F0010606602046BE
:101B8000FEF7A8FD206B28B12068016841F00E0126
:101B9000016009E02068016821F00401016020680B
:101BA000016841F00A010160A06C0168C90303D516
:101BB000016841F480710160606D18B1016841F401
:101BC000807101602068016841F001010160C9E78E
:101BD0002DE9F84F0022DFF888914FF00108032724
:101BE0004FF00F0C09F1040AA9F1040BB1E008FA57
:101BF00002F52B40002B72D00C7904F00304012C69
:101C000001D0022C15D18668540007FA04FE26EA9A
:101C10000E06D1F80CE00EFA04FE4EEA060EC0F8ED
:101C200008E04468AC430D79C5F3001595402543A1
:101C300045600C79E443A40708D0C568540007FA4E
:101C400004F6B5438E68A6402E43C6600C7904F0B6
:101C50000304022C11D1D40800EB8406356A540722
:101C6000E40E0CFA04FE25EA0E05D1F810E00EFA97
:101C700004FE4EEA050EC6F820E00568540007FA97
:101C800004F6B5430E7906F00306A6402E4306601F
:101C90004C6814F4403F5BD0324C256E45F0010592
:101CA0002566246E04F0010400942F4C22F00305F5
:101CB0002E19B56894074FEA147E0CFA0EF4A5436A
:101CC000B0F1904F04D0294CA04203D1012417E079
:101CD000002415E0264CA04202D1022410E037E097
:101CE000244CA04201D103240AE0234CA04201D19C
:101CF000042405E0214CA04201D1052400E0062483
:101D000004FA0EF42C43B460D9F800409C434D68AB
:101D1000ED0200D51C43C9F80040DAF800409C43AE
:101D20004D68AD0200D51C43CAF80040DBF8004006
:101D30009C434D68AD0300D51C43CBF80040084DD3
:101D4000083D2C689C434E68F60300D51C432C606C
:101D5000521C0B6833FA02F47FF449AFBDE8F88FE8
:101D60000804014000100240000001400004004847
:101D700000080048000C004800100048001400480B
:101D8000002A01D0816170478162704701488068F4
:101D90007047000014000020024881684268114426
:101DA000816070471400002010B50024032000F06B
:101DB0009BF80F2000F008F808B1012401E000F0C2
:101DC00047F8204610BD000030B587B005461B48D7
:101DD000816D41F010018165806D00F01000009070
:101DE00001A902A800F07EFC00F0A0FC1449B0FBA1
:101DF000F1F1491E1448134A026040F2E732C26012
:101E0000416000210161816000F0C1FF044694B986
:101E10000D4801F031F804466CB9362000F036F870
:101E2000102D07D200222946362000F03DF8074841
:101E3000056000E0012407B0204630BD00100240DC
:101E400040420F0000100040F81F00201400002046
:101E500008B50D48016E41F001010166016E01F007
:101E600001010091816D41F080518165806D00F02C
:101E70008050009000220F21901E00F015F8BDE860
:101E8000084000F0BBB9000000100240002809DB48
:101E900000F01F02012191404009800000F1E02084
:101EA000C0F8001170470000F0B40D460D4B1B68E0
:101EB000C3F30223C3F10704042C00D90424191D21
:101EC000072901D2002300E0DB1E012606FA04F1F7
:101ED000491E294099409E40761E16403143F0BC71
:101EE00002F0C0BE0CED00E000F00701054A1068EA
:101EF0004FF6FF03184040EA0120034908431060F1
:101F0000704700000CED00E00000FA05F8B504464B
:101F10000025002C14D094F83A00052812D094F82B
:101F20003A00022810D03E48016E41F001010166DE
:101F3000006E00F00100009094F83A0030B108E023
:101F40000120F8BD0120F8BD0120F8BD002084F873
:101F50003900204600F068F8A168324A4FF48070DA
:101F6000402936D0602934D021680B68E66A23F016
:101F7000100333430B60D4E901131943D4E903364A
:101F800033431943237D012B00D000200143606AB5
:101F90000143A06A0143208E41EAC04094F8341006
:101FA00040EA01612068036813401943016020681A
:101FB0008169002909DBD4E906121143226A836989
:101FC00023F03F031A431143816194F83A0010B3A0
:101FD00024E021680B68E66A23F0100333430B60AA
:101FE000D4E901131943267D2369012E00D0002076
:101FF0000343606A19430143A06A0143208E41EA0A
:10200000C04094F8341040EA01612068036813402E
:1020100019430160CBE7012084F83A002846F8BD57
:1020200000100240113E00E010B586B004461421B5
:1020300001A8FEF799F92068164C002316490322DF
:10204000A04212D1C86C40F00100C864C86C00F016
:1020500001000090802001900292039301A94FF0AB
:102060009040FFF7B5FD06B010BD0A4C241DA042FC
:10207000F9D1C86C40F00200C864C86C00F00200DE
:102080000090012001900292039301A90348FFF7F9
:102090009FFDE8E7000301400010024000040048F3
:1020A000002100280AD090F83A20052A08D090F89C
:1020B0003A20012A06D00121084670470121FBE79A
:1020C0000121F9E70268136843F001031360042259
:1020D00080F83A20F0E7000010B596B0044654218D
:1020E00001A8FEF741F91049206888421AD140142E
:1020F00001900020109001A800F088F808B1FEF7C8
:102100000BFB0A48816D41F400018165806D00F48C
:1021100000000090002205211420FFF7C5FE1420C6
:10212000FFF7B4FE16B010BD005C00400010024086
:102130002F49304B0A6832214A432F4900280AD0E0
:10214000B0F5007F2DD0086820F4C06040F48060B6
:102150000860002070470868C0F34120022805D0BD
:1021600051F8800F20F480700860F2E7D1F8800009
:1021700020F48070C1F88000086820F4C06040F44A
:1021800000700860B2FBF3F0401C00E0401E4A699A
:10219000520501D50028F9D148694005D9D5032059
:1021A00070470868C0F34120022805D051F8800F1D
:1021B00040F480700860CCE7D1F8800040F4807073
:1021C000C1F88000086820F4C06040F40070086026
:1021D000B2FBF3F0401C00E0401E4A69520501D5F5
:1021E0000028F9D148694005B3D5032070470000A5
:1021F0002000002040420F0000700040024881682B
:1022000041F4804181607047007000402DE9F84F33
:102210000446002600272068BE4D000366D54FF017
:102220000008A86DC00009D4A86D40F08050A865D2
:10223000A86D00F0805000904FF00108DFF8D8A2A0
:10224000DAF8000040F48070CAF80000FFF79EFD45
:10225000814607E0FFF79AFDA0EB0900022801D9AB
:10226000032603E0DAF80000C005F3D526B13746AF
:10227000B8F1010F36D039E0D5F8900000F4407085
:1022800080B1216D81420DD055F8900F20F440703F
:10229000296841F480312960296821F4803129605E
:1022A00045F89009C00711D0FFF770FD814641F253
:1022B000883A07E0FFF76AFDA0EB0900504501D915
:1022C000032603E0D5F890008007F3D50EB137461A
:1022D000CEE7D5F89000216D20F440700843C5F892
:1022E0009000C5E7A86D20F08050A8652078C00751
:1022F00007D0D5F88800616820F003000843C5F8CE
:1023000088002078800707D5D5F88800A16820F0DC
:102310000C000843C5F888002078400707D5D5F899
:102320008800E16820F030000843C5F88800207874
:10233000000707D5D5F88800216920F0C0000843C0
:10234000C5F888002078C00607D5D5F888006169EF
:1023500020F440700843C5F888002078800607D52F
:10236000D5F88800A16920F440600843C5F88800CA
:102370002078400607D5D5F88800E16920F4405060
:102380000843C5F888002078000607D5D5F88800EE
:10239000216A20F440400843C5F888002088C00521
:1023A00007D5D5F88800616A20F440300843C5F8A5
:1023B00088002068800307D5D5F89C00A16A20F02A
:1023C00003000843C5F89C002088800507D5D5F890
:1023D0008800E16A20F440200843C5F8880020887E
:1023E00040050FD5D5F88800216B20F44010084334
:1023F000C5F88800206BB0F5801F03D1E86840F471
:102400008010E860208800050FD5D5F88800616B42
:1024100020F440000843C5F88800606BB0F5800FD9
:1024200003D1E86840F48010E8602088C0040FD52C
:10243000D5F88800A16B20F040700843C5F88800EB
:10244000A06BB0F1807F03D1E86840F48010E860B1
:1024500020884FF0006180040ED5D5F88800E26B2B
:1024600020F040601043C5F88800E06B884203D13B
:10247000E86840F48010E860208840040ED5D5F864
:102480008800226C20F040601043C5F88800206C62
:10249000884203D1E86840F48010E8602088000496
:1024A0000FD5D5F88800616C20F040500843C5F87E
:1024B0008800606CB0F1805F03D1E86840F4803040
:1024C000E8602068C0030FD5D5F88800A16C20F023
:1024D00040400843C5F88800A06CB0F1804F03D19C
:1024E000E86840F48030E860206840030FD5D5F8F4
:1024F0009C00E16C20F440100843C5F89C00E06C9F
:10250000B0F5001F03D1E86840F48010E860384659
:10251000BDE8F88F00100240007000402DE9F04740
:1025200004460D460027002C17D0DFF8A091D9F8FB
:10253000000000F00F00A84211D2D9F8000020F0EE
:102540000F002843C9F80000D9F8000000F00F0080
:10255000A84204D00120BDE8F0870120FBE72078E5
:102560005B4EC00741F2883A4ED06068DFF8648164
:10257000032806D002281ED03068400520D4012050
:10258000E9E73068800101D40120E4E701F040FB75
:10259000404520D9B06810F0F00F04D020788007B3
:1025A00019D5A068B8B9B06820F0F00040F08000FC
:1025B000B06080270FE03068800301D40120CAE7B3
:1025C00000F0D8F8404506D9B06820F0F00040F09F
:1025D0008000B0608027B068616820F00300084385
:1025E000B060FFF7D3FB804607E0FFF7CFFBA0EB1F
:1025F0000800504501D90320ADE7B068616800F0DC
:102600000C00B0EB810FF0D12068810715D5400791
:1026100003D5B06840F4E060B0602078000705D5CD
:10262000B06820F4605040F4E060B060B068A16829
:1026300020F0F0000843B06005E0802F03D1B068BF
:1026400020F0F000B060D9F8000000F00F00A842C0
:1026500017D9D9F8000020F00F002843C9F800006E
:10266000FFF794FB074606E0FFF790FBC01B5045C1
:1026700001D903206FE7D9F8000000F00F00A8424D
:10268000F2D12078400705D5B068E16820F4E06019
:102690000843B0602078000706D5B068216920F4AF
:1026A000605040EAC100B06000F064F8B1680A4AC6
:1026B000C1F30311515C01F01F01C84007490860D4
:1026C00007480068BDE8F047FFF77EBB00200240E6
:1026D0000010024000B4C4048C88000820000020D0
:1026E000140000200F2202600B4A936803F00303DA
:1026F0004360936803F0F0038360936803F4E0633E
:10270000C360926802F46052D20802610348006814
:1027100000F00F00086070470010024000200240E7
:1027200001480068704700002000002000B5FFF756
:10273000F7FF05498968054AC1F30221515C01F0A0
:102740001F01C84000BD0000001002409C88000826
:1027500000B5FFF7E5FF05498968054AC1F3C221C5
:10276000515C01F01F01C84000BD00000010024094
:102770009C88000810B51A4A9068C0F38101194876
:1027800001290BD091684410C1F38101022906D0C0
:102790009168C1F38101032903D0002010BD2046B8
:1027A00010BDD16801F00303D168C1F30311491CC6
:1027B000032B0DD0B0FBF1F0D168C1F306214843E3
:1027C000D168C1F34161491C4900B0FBF1F010BD73
:1027D000B4FBF1F0D168C1F306214843F0E70000F3
:1027E000001002400024F4002DE9F8430446002CB8
:1027F0000CD02078FE4DC00752D0A86800F00C0025
:10280000E96801F003010C2803D004E00120BDE8D1
:10281000F883032916D0082814D06068B0F5803FEB
:1028200017D0B0F5A02F19D0286820F48030286088
:10283000286820F480202860606818B3FFF7A6FAA3
:1028400006461BE0286880032AD5606840BB01204B
:10285000DDE7286840F480302860EDE7286840F420
:1028600080202860286840F480302860E4E7FFF783
:102870008DFA801B642801D90320C8E728688003EB
:10288000F5D50DE0FFF782FA064606E0FFF77EFA7F
:10289000801B642801D90320B9E728688003F5D498
:1028A000207880074ED5A86800F00C00E96801F098
:1028B00003010C2801D102290BD0042809D0E068BB
:1028C00070B3286840F480702860FFF75FFA06460E
:1028D0001BE02868400501D5E06868B16868217C84
:1028E00020F0FE4040EA01606860C2480068FFF7DF
:1028F0006BFA38B301208AE7012088E7FFF746FA30
:10290000801B022801D9032081E728684005F5D5FE
:102910006868217C20F0FE4040EA0160686011E0B8
:10292000286820F480702860FFF730FA064606E039
:10293000FFF72CFA801B022801D9032067E72868DB
:102940004005F5D4207800072CD56069A8B1D5F8EA
:10295000940040F00100C5F89400FFF717FA06460E
:1029600006E0FFF713FA801B022801D903204EE787
:10297000D5F894008007F4D514E0D5F8940020F041
:102980000100C5F89400FFF701FA064606E0FFF7DC
:10299000FDF9801B022801D9032038E7D5F89400FF
:1029A0008007F4D4207840076FD54FF00008A86D59
:1029B000C00009D4A86D40F08050A865A86D00F053
:1029C000805000904FF001088B4E3068C00511D444
:1029D000306840F480703060FFF7D8F9074606E0B1
:1029E000FFF7D4F9C01B022801D903200FE7306894
:1029F000C005F5D5A068012813D0052818D055F8D2
:102A0000900F20F001002860286820F0040045F8AD
:102A10009009A06841F2883608B3FFF7B7F9074676
:102A200018E0D5F8900040F00100C5F89000F0E7FC
:102A300055F8900F40F004002860286840F001002D
:102A400045F89009E5E7FFF7A1F9C01BB04201D9AD
:102A50000320DCE6D5F890008007F4D50EE0FFF700
:102A600095F9074606E0FFF791F9C01BB04201D97E
:102A70000320CCE6D5F890008007F4D4B8F1010F1C
:102A800003D1A86D20F08050A865207880062CD551
:102A9000A069A8B1D5F8980040F00100C5F89800E9
:102AA000FFF774F9064606E0FFF770F9801B02286D
:102AB00001D90320ABE6D5F898008007F4D514E0DF
:102AC000D5F8980020F00100C5F89800FFF75EF9EE
:102AD000064606E0FFF75AF9801B022801D90320B9
:102AE00095E6D5F898008007F4D4E069F0B3A968BA
:102AF0004FF0FF37C1F3810103295ED0022807D0D0
:102B0000286820F080702860FFF740F904464CE008
:102B1000286820F080702860FFF738F9064606E044
:102B2000FFF734F9801B022801D903206FE62868DB
:102B30008001F5D454F8201F6068228A401E41EAC3
:102B40000010A16807EB5202090241EA4251084312
:102B5000217D07EB510140EA4160217B40EAC160E1
:102B6000E968264A11400843E86000E062E028680E
:102B700040F080702860E86840F08070E860FFF7FF
:102B800005F9044606E0FFF701F9001B022801D908
:102B900003203CE628688001F5D54BE0FFF7F6F806
:102BA000001B022801D9032031E628688001F5D4F2
:102BB000E86813490840E8603CE0012838D0E8683C
:102BC000226A00F00301914230D1616A00F0F00204
:102BD000491EB2EB011F29D1A26A00F4FE41B1EBFC
:102BE000022F23D100F0784194F82C200AE0000055
:102BF0000010024014000020007000400C809F0173
:102C0000FCFFEEFEB1EBC26F10D1228E00F4C001CA
:102C100007EB5202B1EB425F08D194F8341000F098
:102C2000C06007EB5101B0EB416F03D00120EEE52E
:102C30000120ECE50020EAE57047704770477047D7
:102C4000704770472DE9F04190F83C20012A43D0AD
:102C5000012580F83C50022280F83D2003685A6824
:102C60009C681E4E1E4FDFF87CC0B34203D0BB42AF
:102C700001D0634504D122F470084A6842EA080290
:102C8000DFF8648002EA0802D1F8008048EA02080E
:102C9000C3F804800268B24212D0B2F1804F0FD064
:102CA000124B9A420CD0124B9A4209D0114B9A42C5
:102CB00006D0BA4204D0104B9A4201D0624504D1EA
:102CC00024F080038968194391603C3045700021ED
:102CD00001700020BDE8F0810220FBE7002C0140DC
:102CE00000340140005001408FFFFFFD0004004010
:102CF00000080040000C00400040014010B50023D7
:102D000090F83C40012C0FD0012480F83C406AB17F
:102D1000042A22D0082A27D00C2A2CD001230021F3
:102D200080F83C10184610BD022010BD0268D46D1A
:102D300024F00F040C43D465124A0168914202D07A
:102D4000114A914204D18A6E42F001028A66E6E796
:102D50008A6E22F001028A66E1E70268D46D24F4EB
:102D600070640C43D465DAE70268D46D24F47024EF
:102D70000C43D465D3E70268D46D24F070640C432F
:102D8000D465CCE70044014000480140704710B5CD
:102D90000446002C03D094F83D0010B107E0012058
:102DA00010BD002084F83C00204600F017F80220F7
:102DB00084F83D00211D206801F046F801203D34D3
:102DC000E0726070A070E07020716071A071E071BD
:102DD00020726072A0722070002010BD70B586B0A5
:102DE0000646142101A8FDF7BFFA3068B0F1804F04
:102DF0003AD11E49886D40F001008865886D00F069
:102E000001000090C86C40F00100C864C86C00F07C
:102E100001000090012001900221029100250395FC
:102E20000495059001A94FF09040FEF7D1FE114C9A
:102E30000F48206038206060A560E5608020206138
:102E40006561A561E56125622046FEF719FE08B1BE
:102E5000FDF762FC7462A662002205211C20FFF7C8
:102E600023F81C20FFF712F806B070BD00100240D6
:102E70001C000240041F002090F83D10012901D0E1
:102E800001207047022180F83D100168CA6842F0B5
:102E90000102CA6000681549884214D0B0F1804F21
:102EA00011D0134988420ED0124988420BD01249E2
:102EB000884208D01149884205D01149884202D081
:102EC000104988420CD181680F4A114006290BD065
:102ED000B1F5803F08D0016841F00101016003E0D5
:102EE000016841F00101016000207047002C0140A1
:102EF0000004004000080040000C00400034014085
:102F00000040014000500140070001007047704739
:102F1000704770B505460C46002695F83C00012820
:102F20000FD0012085F83C006AB1042A1CD0082A81
:102F30002CD00C2A3BD00126002085F83C003046DE
:102F400070BD022070BDD4E90012E368286801F06A
:102F500001F92868816921F00C0181612868816983
:102F6000A26811438161E7E7D4E90012E3682868A9
:102F700001F042F92868816921F440618161286883
:102F80008169A26841EA02218161D5E7D4E9001292
:102F9000E368286801F04BF92868C16921F00C0149
:102FA000C1612868C169A2681143C161C4E7D4E95D
:102FB0000012E368286801F053F92868C16921F418
:102FC0004061C1612868C169A26841EA0221C1610A
:102FD000B2E710B50446002C03D094F83D0010B1C0
:102FE00007E0012010BD002084F83C00204600F0DE
:102FF00017F8022084F83D00211D206800F024FF0E
:1030000001203D34E0726070A070E070207160714A
:10301000A071E07120726072A0722070002010BD5B
:10302000704700002DE9F04104460D4617469846CA
:103030000026002D17D0042D18D0082D19D00C2DE6
:103040001AD0102D1BD094F84300DDB1042D1CD0F4
:10305000082D1DD094F8471002281CD002291AD040
:1030600001281BD01CE094F83E00EEE794F83F00E6
:10307000EBE794F84000E8E794F84100E5E794F8BE
:103080004200E2E794F84410E6E794F84510E3E7DD
:1030900094F84610E0E70220BDE8F081012901D054
:1030A0000120F9E7B7B1B8F1000F13D002209DB1AC
:1030B000042D14D0082D15D00C2D16D0102D17D09E
:1030C00084F84300BDB1042D18D0082D19D084F820
:1030D000470018E00120DFE784F83E00F2E784F8BB
:1030E0003F00EFE784F84000ECE784F84100E9E7AF
:1030F00084F84200E6E784F8440004E084F84500E0
:1031000001E084F8460001222946206800F00EFF05
:1031100047484849484A65B3042D40D0082D54D04B
:103120000C2D68D0012645492068884214D0B0F1A2
:10313000804F11D0424988420ED0424988420BD07C
:103140004149884208D04149884205D040498842D7
:1031500002D04049884264D181683F4A1140062923
:1031600063D0B1F5803F60D0016841F0010101609A
:103170005BE0636AD862606A0163606A42632168E7
:10318000434634313A46606AFEF7DAFC08B1012062
:1031900082E72068C16841F40071C160C3E7A36A97
:1031A000D862A06A0163A06A42632168434638314D
:1031B0003A46A06AFEF7C4FC08B101206CE720681B
:1031C000C16841F48061C160ADE7E36AD862E06A3A
:1031D0000163E06A4263216843463C313A46E06A53
:1031E000FEF7AEFC08B1012056E72068C16841F443
:1031F0000061C16097E7236BD862206B0163206B8D
:1032000042632168434640313A46206BFEF798FC02
:1032100008B1012040E72068C16841F48051C160D5
:1032200081E7016841F001010160304634E70000A8
:10323000473F0008B53F0008F33F0008002C01405D
:103240000004004000080040000C00400034014031
:103250000040014000500140070001002DE9F0410D
:1032600004462068C66805694FF00007A90714D511
:10327000B10712D5F91E016101202077206880690D
:10328000800703D02046FFF742FE05E0204600F00D
:10329000BAF8204600F0B8F82777680717D5700706
:1032A00015D521686FF0040008610220207720689E
:1032B000806910F4407F03D02046FFF728FE05E028
:1032C000204600F0A0F8204600F09EF82777280757
:1032D00016D5300714D521686FF008000861042066
:1032E00020772068C069800703D02046FFF70FFED3
:1032F00005E0204600F087F8204600F085F82777A3
:10330000E80617D5F00615D521686FF010000861A2
:10331000082020772068C06910F4407F03D0204641
:10332000FFF7F5FD05E0204600F06DF8204600F0BF
:103330006BF82777E80708D0F00706D021686FF010
:1033400001000861204600F061F8280601D4A804B5
:1033500008D5300606D521686FF402500861204672
:10336000FFF76BFCE80508D5300606D521686FF439
:10337000807008612046FFF75FFC680608D570067C
:1033800006D521686FF040000861204600F07AF809
:10339000A80608D5B00606D521686FF020000861A0
:1033A0002046FFF74BFCE80208D5F00206D521685D
:1033B0006FF4801008612046FFF742FCA80208D590
:1033C000B00206D521686FF4001008612046FFF7AF
:1033D00036FC680208D5700206D521686FF48000BB
:1033E00008612046FFF72DFC28020AD5300208D5D7
:1033F00021686FF4000008612046BDE8F041FFF746
:10340000C5BCBDE8F08170477047000010B50446A8
:1034100007492068884201D1FEF7BEFC2068B0F160
:10342000804F03D1BDE8104002F0CCBD10BD0000BC
:103430000010004070B5044694F83C0001280FD0FD
:10344000012584F83C50022084F83D00204600F01D
:1034500005FE002130B13C3465702170012070BD43
:10346000022070BD2068C26822F04002C26020685D
:10347000C26822F48042C26084F83D5084F83C1057
:10348000002070BD704790F88410012918D00121E8
:1034900080F884102421C0F8881001680A680B683D
:1034A00023F001030B6022F0005100224266036802
:1034B00019602021C0F8881080F88420002070470F
:1034C0000220704770B5044694F8840001281DD08E
:1034D000012084F884002420C4F88800206805684E
:1034E000026822F0010202602068826822F06062B5
:1034F0000A438260204600F0CFFE2068056020204D
:10350000C4F88800002084F8840070BD022070BDDB
:1035100070B5044694F8840001281DD0012084F879
:1035200084002420C4F8880020680568026822F01E
:10353000010202602068826822F060420A438260D1
:10354000204600F0A9FE206805602020C4F888000D
:10355000002084F8840070BD022070BD10B50446C0
:10356000002C03D0D4F8880010B107E0012010BD72
:10357000002084F88400204600F028F82420C4F8B5
:1035800088002068016821F001010160A06A10B183
:10359000204600F0A5FE204600F086FF012813D04B
:1035A0002068416821F4904141602068816821F0E1
:1035B0002A0181602068016841F001010160204614
:1035C000BDE8104000F0F0BE012010BD10B59CB069
:1035D0000446142117A8FCF7C7FE542102A8FCF7E3
:1035E000C3FE17492068884228D101200290002498
:1035F000039402A8FEF70AFE08B1FDF78DF8114802
:10360000016E41F480410166016E01F48041019137
:10361000C16C41F00101C164C06C00F00100019077
:103620004FF4C06017900220189019941A94072044
:103630001B9017A94FF09040FEF7CAFA1CB010BDBE
:1036400000380140001002402DE9F84304460E46C0
:1036500015461F46D4F88800202802D00220BDE875
:10366000F8838EB185B100201834A067212020672F
:10367000FEF78CFB8146A587E58754F8100C183CB3
:10368000B0F5805F02D003E00120E8E7206920B1B7
:10369000354600264FF0200817E00025FAE74B4694
:1036A000002280212046009701F086F818B1C4F866
:1036B00088800320D3E7C5B1216815F8010B886223
:1036C000B4F85600401EA4F85600B4F8560000287E
:1036D000E5D14B46002240212046009701F06CF8CE
:1036E00050B1C4F888800320B9E736F8020B21688E
:1036F000C0F308008862E3E7C4F888800020AEE7E2
:10370000FEE700EB8100006E00F0F8407047806833
:10371000C0F3C00070478068C0F300007047806845
:10372000C0F3800070478068C0F380007047C068B5
:1037300010F4406F01D0002070470120704710B591
:1037400001F0007300EBD3504369C1F30451072427
:103750008C40A3438A401343436110BD00EB8100BA
:10376000016E21F0004111430166704730B58BB006
:103770000024089409940A9420216846FCF7F4FD7B
:1037800021484FF0A04101604FF440314160846016
:10379000C460046144610425856104770121417797
:1037A000016280F82440C462046380F83810C46366
:1037B00080F84040FDF7FAFA08B1FCF7ADFF089435
:1037C00008A91148FCF7F8FF08B1FCF7A5FF0F485E
:1037D000009006200190022002907F200390049523
:1037E000059469460848FDF79DF808B1FCF794FF79
:1037F0007F210548FCF792FF022205490248FDF7A8
:10380000A9FC0BB030BD00004C140020002090B685
:103810000C00002030B589B0202101A8FCF7A4FDE0
:103820001E481D4901604FF440314160002484600E
:10383000C4600461446104258561047701214177F6
:10384000016280F82440C462046380F83810C463C5
:1038500080F84040FDF7AAFA08B1FCF75DFF104878
:10386000019006200290022003907F20049005958D
:10387000069401A90948FDF755F808B1FCF74CFF7B
:103880007F210648FCF74AFF022206490348FDF75C
:1038900061FC09B030BD000000010050B8140020E8
:1038A000000029C30E00002010B50C480A49016031
:1038B00000214160502282600161C160416121218B
:1038C0008161FDF733FD08B1FCF726FFBDE810402C
:1038D0000248FDF7CFBE000000020140E4150020C1
:1038E00010B50C480A49016089154160502181607A
:1038F00000210161C160416121218161FDF716FD57
:1039000008B1FCF709FFBDE810400248FDF7B2BE60
:10391000040201400816002010B58CB03021684622
:10392000FCF722FD1F491E4808600846FDF7FBFF13
:1039300008B1FCF7F1FE0220009000208DF8040091
:103940008DF80500029003900490059004210691E3
:103950000790002269461348FDF7BCFE08B1FCF74A
:10396000DBFE102269460F48FDF7B4FE08B1FCF7F4
:10397000D3FEF82400210B48FEF73EF80022234630
:1039800011460848FEF71AF810210648FEF734F8E9
:103990002346002210210348FEF710F80CB010BD9A
:1039A000000800502C16002008B50948816C41F031
:1039B00004018164816C01F004010091816C41F08B
:1039C00001018164806C00F00100009008BD0000DE
:1039D0000010024010B50B4A0121082001F0C0FD83
:1039E000094CA060074A0021483A084801F0F6FD5A
:1039F0002060044A0021243A054801F0EFFD606090
:103A000010BD00004C88000800000020613C000848
:103A10008D3C000810B586B0142101A8FCF7A4FC69
:103A20001148C16C41F00101C164C16C01F0010198
:103A30000091C16C41F00201C164C06C00F0020051
:103A400000900A4C012206212046FEF799F9062132
:103A500001910121029100210391049101A92046C5
:103A6000FEF7B6F806B010BD001002400004004892
:103A700010B50C480A490160002141606022826053
:103A800008220261012202758161C162FEF73EFADD
:103A900008B1FCF741FEBDE810400248FEF700BB4C
:103AA000000301404016002010B50C480A4901608F
:103AB00000214160602282600822026101220275B9
:103AC0008161C162FEF722FA08B1FCF725FEBDE86C
:103AD00010400248FEF7E4BA040301407C160020BF
:103AE00010B58CB0142107A8FCF73EFC0024049408
:103AF00005940694009401940294039427484FF08F
:103B000080410160072141608460C821C160046177
:103B100080218161FFF73BF908B1FCF7FDFD1F48EB
:103B2000FFF757FA08B1FCF7F7FD04200790402093
:103B3000089009940B9407A91848FFF77BFC08B17B
:103B4000FCF7EAFD0494069404A91448FFF77AF8F8
:103B500008B1FCF7E1FD0A200090012001900294D9
:103B60000394002269460D48FFF7D3F908B1FCF72A
:103B7000D3FD002201210948FFF7C0F808B1FCF786
:103B8000CBFD0648FFF778F94FF40063044A0021A3
:103B90000248FFF747FA0CB010BD0000B81E002025
:103BA000B816002010B51848164901604FF461217D
:103BB000416000218160C16001610C22426181612C
:103BC000C161016241628162FFF7C8FC08B1FCF784
:103BD000A3FD00210C48FFF79BFC08B1FCF79CFDFE
:103BE00000210948FFF76EFC08B1FCF795FD064877
:103BF000FFF749FC002803D0BDE81040FCF78CBD5E
:103C000010BD000000380140641F0020FEE7FEE701
:103C10001049C86800F00302C868C0F30310401CD4
:103C2000032A0ED00C4AB2FBF0F0CA68C2F3062297
:103C30005043C968C1F34161491C4900B0FBF1F030
:103C40007047064AB2FBF0F0CA68C2F3062250433E
:103C5000EFE70000001002400024F40000127A0098
:103C6000094D4FF4FA74002202212846FEF788F825
:103C7000204601F02FFC012202212846FEF780F8A1
:103C8000204601F027FCEEE70004004818213948DF
:103C9000FCF76AFB374F4FF0010940F26D7A40F2B2
:103CA0006C7B4FF000083448344900884843000CCE
:103CB0007880334800884843000CF881002505EBE4
:103CC000450607EB8604207A052849D2DFE800F094
:103CD00003102530450007F826806088A0F596700F
:103CE00058453FD884F8089001F002FC606039E044
:103CF0006088A0F59670504502D384F8088031E0C2
:103D000001F0F6FB6168401A64282BD307F826906F
:103D100001F04CFB0220207224E06088A0F5967030
:103D200050451FD30320207201F0E2FB606019E0D0
:103D30006088A0F59670584502D80220207211E0E4
:103D400001F0D6FB6168401A0A280BD307F82680D9
:103D500001F02CFB0420207204E084F8088001E0CC
:103D600084F808806D1CEDB2022DA8D3052001F067
:103D7000B1FB98E7341400200C000020809C010067
:103D80000E00002010B54FF0E020006904F070FB39
:103D9000012803D0BDE8104004F068B810BD00B59C
:103DA00093B0382105A8FCF7DFFA14216846FCF728
:103DB000DBFA0020FEF7BCF9222005904FF480705A
:103DC00008904020099001210B9102200C900D9049
:103DD0000E9114210F91109004211191129005A8B9
:103DE000FEF702FD08B1FCF797FC0F2000900320BE
:103DF0000190002002900390049004216846FEF791
:103E00008DFB002801D0FCF787FC13B000BD00003B
:103E10000248016841F470010160704788ED00E0DC
:103E20000148FFF71BBA0000B81E002010B5044877
:103E3000FFF714FABDE810400248FDF740BD00004E
:103E4000F81F00202C1600202DE9F04F02682E4E9E
:103E5000DFF8B890DFF8B8A0DFF8B8B02E4B2F4CE1
:103E60004FF0804EB0420BD0704509D0484507D086
:103E7000504505D0584503D0984201D0A04203D107
:103E800022F070054A682A43254FDFF898C0DFF812
:103E90009880B04211D070450FD048450DD05045A4
:103EA0000BD0584509D0984207D0B84205D060459C
:103EB00003D0404501D0A04203D122F44075CA6826
:103EC0002A434D6922F080022A4302608A68C26256
:103ED0000A688262B04209D0984207D0B84205D041
:103EE000604503D0404501D0A04201D1096901637A
:103EF000012141610169C90703D0016921F0010174
:103F00000161BDE8F08F0000002C0140000400407A
:103F100000080040000C0040003401400050014007
:103F200000400140004401400048014010B501F04C
:103F30001F0101238B40046A9C430462036A8A4088
:103F40001343036210BD10B5846A0121626A824284
:103F500007D12177C06938BB84F83E1084F844103B
:103F600022E0A26A824208D102222277C069D8B92F
:103F700084F83F1084F8451016E0E26A824208D1C6
:103F800004222277C06978B984F8401084F846107A
:103F90000AE0226B824207D108222277C06918B951
:103FA00084F8411084F847102046FEF7B0FF002047
:103FB000207710BD10B5846A616A814202D1012068
:103FC000207710E0A16A814202D1022020770AE026
:103FD000E16A814202D10420207704E0216B814212
:103FE00001D1082020772046FEF792FF002020779D
:103FF00010BD10B5846A0121626A824203D1217723
:1040000084F83E1019E0A26A824204D1022020778F
:1040100084F83F1011E0E26A824204D10420207744
:1040200084F8401009E0226B824204D108202077F6
:1040300084F8411001E084F83D102046FEF766FF49
:104040000020207710BD10B5846824F47F4442EA34
:1040500003220A432243826010BD000070B5002491
:10406000026895682F4B1D404B682B432E4D2B400B
:104070000D681D4395604A68702A26D00CDC12F04A
:104080000F0F1FD14FEA2212072A1BD2DFE802F0DE
:104090001B1B1B1B243D43002449501A8A4212D08B
:1040A0000ADCB2F5801F0ED0B2F1101F0BD0A2F5C2
:1040B0008012203A06D106E0102804D0202802D031
:1040C000402800D00124204670BD0B69D1E90221AF
:1040D0000068FFF7B8FFF6E70A68052A13D0B2F1C7
:1040E000011F10D00268136A156A25F001051562D8
:1040F0000268956925F0F005096945EA01119161A9
:1041000000680362DFE7012070BD0A698968006802
:1041100000F00EF8D7E70A698968006800F05AF8DD
:10412000D1E700008FFFCFFFF8FFFEFF3000100047
:1041300010B5036A046A24F001040462846924F05F
:10414000F00444EA021423F00A020A438461026282
:1041500010BD000070B5056A046A24F00104046211
:104160008469154EB04214D0B0F1804F11D0134E77
:10417000B0420ED0124EB0420BD0124EB04208D018
:10418000114EB04205D0114EB04202D0104EB04296
:1041900003D124F00304144301E044F0010424F0AB
:1041A000F0041A0744EA126225F00A0301F00A013A
:1041B00019438261016270BD002C0140000400407F
:1041C00000080040000C0040003401400040014065
:1041D0000050014010B5036A046A24F01004046220
:1041E000846924F4704444EA023223F0A00343EAD1
:1041F00001118261016210BD30B5056A046A24F0C4
:1042000010040462846924F4407444EA022222F413
:1042100070444FF6FF7202EA0332224325F0A003F6
:10422000A02404EA011119438261016230BD30B556
:10423000056A046A24F480740462C46924F00304E7
:10424000144324F0F0041A0744EA126225F42063B0
:104250004FF4206404EA01211943C261016230BDB8
:1042600030B5056A046A24F480540462C46924F4F5
:10427000407444EA022222F470444FF6FF7202EACC
:104280000332224325F420434FF4204404EA013151
:104290001943C261016230BD30B5416E002917D0AB
:1042A00002689168C1F342619268520F0B4B9C5CAB
:1042B000E50003F10804A25CB5FBF2F2A0F86A2065
:1042C0005A5C615CD200B2FBF1F1A0F8681030BD1D
:1042D000012168304180018030BD00007C880008E9
:1042E00090F82810090706D501684A68836B22F404
:1042F00000421A434A6090F82810C90706D00168A6
:104300004A68C36A22F400321A434A6090F82810BF
:10431000890706D501684A68036B22F480321A4384
:104320004A6090F82810490706D501684A68436B2F
:1043300022F480221A434A6090F82810C90606D554
:1043400001688A68C36B22F480521A438A6090F82D
:104350002810890606D501688A68036C22F4005289
:104360001A438A6090F82810490611D501684A68F6
:10437000436C22F480121A434A60416CB1F5801FED
:1043800006D101684A68836C22F4C0021A434A606D
:1043900090F82810090606D501684A68C06C22F416
:1043A000002202434A6070472DE9F8430446002585
:1043B000C4F89050FDF7EAFC8046206800684FF092
:1043C000200600076FF07E4716D5434600223104D1
:1043D0002046009700F0F0F970B1206850E8001F07
:1043E00021F0800140E80012002AF6D18434666092
:1043F00025700320BDE8F88320680068400720D5B9
:10440000434600224FF480012046009700F0D4F983
:10441000B8B1206850E8001F21F4907140E8001204
:10442000002AF6D12068083050E8001F21F0010171
:1044300040E80012002AF5D18434A66025700320DC
:10444000D8E76C34E6612662256065602576002039
:10445000D0E7000010B5016851E8002F22F49072F7
:1044600041E80023002BF6D10E4B0168083151E8DA
:10447000002F1A4041E80024002CF6D1C16E01291A
:1044800008D1016851E8002F22F0100241E8002312
:10449000002BF6D12021C0F88C100021C1664167A5
:1044A00010BD0000FEFFFFEF2DE9F041044600259E
:1044B000B54B20682269A168E669114362693243FD
:1044C00011430268B14E32400A43026020684168DD
:1044D000E26821F4405111434160A069216899428A
:1044E00001D0226A10438A68A94E324002438A6092
:1044F0002068C16A626A21F00F011143C162A549B7
:104500002268A5488A4214D1D0F8880010F0030030
:1045100007D0012809D0022805D0032807D0102190
:1045200085E0012183E0022181E004217FE0082170
:104530007DE09A498A4214D1D0F8880010F00C002E
:1045400007D0042809D0082805D00C2807D010214E
:104550006DE000216BE0022169E0042167E00821A1
:1045600065E08F498A4214D1D0F8880010F03000FD
:1045700007D0102809D0202805D0302807D01021D6
:1045800055E0002153E0022151E004214FE00821D1
:104590004DE084498A4214D1D0F8880010F0C00060
:1045A00007D0402809D0802805D0C02807D0102186
:1045B0003DE000213BE0022139E0042137E0082101
:1045C00035E079498A4217D1D0F8880010F440705C
:1045D0000AD0B0F5807F0BD0B0F5007F06D0B0F5E3
:1045E000407F07D0102122E0002120E002211EE0C0
:1045F00004211CE008211AE09A4217D1D0F8880063
:1046000010F440600AD0B0F5806F0BD0B0F5006FA9
:1046100006D0B0F5406F07D0102108E0002106E079
:10462000022104E0042102E0082100E010215F489B
:104630005F4E00274FF4004C9A4239D1B9B102299C
:1046400005D0042916D0082917D00020012560B311
:10465000616A36F81120B0FBF2F1666806EB46039A
:104660008B4202D8B1EB063F09D9012582E0FEF763
:104670005DF8ECE7FEF77EF8E9E76046E7E7002340
:104680001946FBF727FE090241EA10610202700891
:104690001018794132460023FBF71CFE454AA0F56D
:1046A0004071914202D82168C86063E0012561E051
:1046B000E2694FF6EF78624530D1092911D2DFE87F
:1046C00001F0050812100B1010100E00FEF72EF866
:1046D00009E0FEF73DF806E0FEF74CF803E060461F
:1046E00001E000200125E8B3616A36F81110B0FB43
:1046F000F1F04100606801EB5001B1FBF0F0A0F176
:104700001001414508D84FF6F0710140C0F3420056
:1047100001432068C1602DE001252BE0092911D259
:10472000DFE801F0050812100B1010100E00FDF765
:10473000FDFF09E0FEF70CF806E0FEF71BF803E0CA
:10474000604601E00020012560B1616A36F8111071
:10475000B0FBF1F1606801EB5001B1FBF0F0A0F1AA
:10476000100100E006E0414503D8216880B2C8602E
:1047700000E001250120683460802080E760276127
:104780002846BDE8F081000000800040F369FFCFBB
:10479000FFF4FF11003801400010024000440040C7
:1047A00000480040004C0040005000400024F4004D
:1047B00064880008FFFC0F002DE9F0470446089EBE
:1047C0000D46174698464FF0000935E0701C33D06F
:1047D000FDF7DCFAA0EB0800B04219D8C6B120689A
:1047E0000168490728D5802D26D0402D24D0C169E5
:1047F000C94309070ED42068082505622046FFF743
:1048000029FEC4F8905084F884900120BDE8F08718
:104810000320FBE7C069C04300050DD421684FF4B5
:10482000006008622046FFF715FE2020C4F89000C3
:1048300084F884900320E9E72068C06935EA000025
:1048400004D00020B842C1D00020DFE70120F9E702
:104850002DE9FF5FDFF8DCA3DAF80400B0F844606C
:10486000DFF8D49330047DD540F68F7B97E0B0F825
:10487000446006F00F04002C75D030F824805FEA05
:1048800008413CD530F8241001EA0B0141F08001C9
:1048900020F82410DAF80400B0F850100A1840F29A
:1048A000064101EBC401575C04EB440109EBC1056F
:1048B000D0353B462A89E96800F050FDE868384465
:1048C000E8602869C01B28616869C2196A6135F807
:1048D000D009B8427ED8D5F8E00000287AD0DAF8BE
:1048E000040030F824104BF68F72114081F480518F
:1048F00081F4005148F28002114320F824105FEA4D
:1049000008604CD5DAF8040030F8241048F60F722D
:10491000114041F4004120F82410DAF80400B0F806
:1049200050100A1840F2024101EBC401515AC1F380
:10493000090204EB440109EBC101CB691344CB61CB
:104940000B6A9B1A0B624B6A1A444A620B6A002B71
:104950007ED00A8A934200D313469DB20A8BC9695E
:104960002B4601E022E0C0E000F00DFDDAF8040083
:10497000B0F85010084400EBC400A0F80254DAF874
:10498000040030F8241048F6BF72114081F0100185
:1049900081F0200148F28002114320F82410DAF857
:1049A0000400B0F8441009043FF561AF700521D54B
:1049B0004FF4C871A048FBF7D7FC4020C9F80C00A1
:1049C000002002F049F9DAF8040001884BF68F72F2
:1049D000114000E023E181F4805181F4005148F25C
:1049E000800211430180DAF8040030F8441F21F4FA
:1049F00080610180700406D5DAF8040030F8441FA5
:104A000021F480410180B00406D5DAF8040030F8C2
:104A1000441F21F400510180F00414D5DAF8040099
:104A200030F8401F21F004010180DAF8040030F86A
:104A3000401F21F008010180DAF8040030F8441F1B
:104A400021F480510180300544D500206A4600E001
:104A5000EAE0DAF8041031F8203022F81030401C77
:104A6000C0B20828F7D331F8400F40F001000880A9
:104A7000DAF8040030F8401F21F001010180DAF873
:104A80000400B0F844104905FBD530F8441F21F468
:104A9000806101800020DAF8043032F8101023F829
:104AA0002010401CC0B20828F5D3DAF8040030F812
:104AB000401F41F008010180DAF8040030F8441F7B
:104AC00021F400610180DAF8040030F8401F41F061
:104AD00004010180F00506D5DAF8040030F8441F1F
:104AE00021F480710180BDE8FF9FF1064AD401885E
:104AF00048F60F72114041F400410180DAF80400D9
:104B0000B0F850100844B0F80204C0F30904D9F812
:104B10001C0000252044C9F81C00D9F82000001B07
:104B2000C9F82000D9F824000219C9F824208021EE
:104B3000002002F03FF8B9F80600E0B199F8000053
:104B4000000605D400231A461946184601F03AFF1C
:104B500099F8080000283FF489AE002C7FF486AE57
:104B600099F80800DAF8041040F08000A1F84C0031
:104B700089F8085013E700231A461946184601F031
:104B800021FFE5E701880A0516D5018801EA0B0136
:104B900041F080010180DAF80400B0F850100144BF
:104BA00091F80634B9F8D820234900F0D7FB224900
:104BB000002001F0E9FFF2E60904DBD5018801EAF3
:104BC0000B0141F080010180DAF80400B0F85010C8
:104BD000014491F806440025B9F8D8202346D9F8B5
:104BE000DC1000F0BBFBD9F8DC002044C9F8DC0085
:104BF000D9F8E000001BC9F8E000D9F8E400021978
:104C0000C9F8E4202946002001F0ECFF002CB1D1C6
:104C100000231A461946184601F0D4FEBFE6214685
:104C2000002001F0DFFF6AE644F08001002001F07F
:104C3000C1FFB4E6A4000020187D00200020FFF78B
:104C400007BEFEE70FB4054B10B503A9044A02984E
:104C500000F0C4F810BC5DF814FB000045530008D8
:104C6000F40000200907090E002804DB00F1E02011
:104C700080F80014704700F00F0000F1E02080F889
:104C8000141D704702E008C8121F08C1002AFAD19B
:104C900070477047002001E001C1121F002AFBD1BC
:104CA000704700002DE9F84307460D464FF40078A1
:104CB000E888404511D9287800060ED438A0FFF7BF
:104CC000C1FF3CA0FFF7BEFF41A0FFF7BBFF802163
:104CD000384601F055FEBDE8F883CF2007FB00F110
:104CE0003D4800EB810404F11C00A060E988E1600C
:104CF000E9882161002626750090E88860B128784F
:104D0000000609D4022084F81E02EB8800213846F0
:104D1000A26801F057FEDEE704F110036A46294657
:104D2000384602F05DFAB8B1E8882269824200D3C1
:104D30000246E260424516D919A0FFF783FF1DA085
:104D4000FFF780FF22A0FFF77DFF84F81E6280211D
:104D5000384601F015FEBEE784F81E628021384611
:104D600001F00EFEB7E7A0680099884201D001F07B
:104D7000C1F9E368012613B184F81E6202E0032042
:104D800084F81E0280213846A26801F049FEE988B5
:104D9000206981429FD980069DD126759BE700003E
:104DA0001B5B33316D5B452F757362645F636F729C
:104DB000655D200052657175657374206275666665
:104DC000657220746F6F20736D616C6C0D0A00004A
:104DD0001B5B306D00000000F80000202DE9FF4F44
:104DE0008DB00F460546002606E025280BD0DDE9EC
:104DF0000F1290476D1C761C28780028F5D111B051
:104E00003046BDE8F08F0024A246A1460122E949C0
:104E100000E0044315F8013F203B02FA03F008428A
:104E2000F7D128782A2810D06FF02F022878A0F127
:104E30003001092914D80AEB8A0102EB410144F040
:104E4000020400EB010A6D1CF0E701CF5FEA000AE3
:104E500003D544F40054CAF1000A44F002046D1C66
:104E600028782E2817D115F8010F44F004042A28B9
:104E70000ED06FF02F022878A0F1300109290AD84E
:104E800009EB890102EB410100EB01096D1CF2E71E
:104E900057F8049B6D1C28786C280FD006DC4C2832
:104EA00017D068280DD06A2814D104E0742810D0D7
:104EB0007A280FD10DE044F400140AE044F4801481
:104EC00001E044F440146978814202D104F5801471
:104ED0006D1C6D1C28786E281ED00CDC632830D029
:104EE00004DC00288BD0582811D19FE0642867D0BB
:104EF00069280CD164E073282DD004DC6F2872D0AF
:104F0000702804D194E075286ED078286DD0DDE942
:104F10000F129047761C4BE1C4F30250022806D0D2
:104F2000032809D0042801CF09D0066040E101CF51
:104F3000F117C0E900613BE101CF068038E106705E
:104F400036E117F8040B8DF8000000208DF8010001
:104F5000EB46012003E057F804BB4FF0FF30610738
:104F60004FF0000102D40DE008F1010188464945E7
:104F70000FDA8045F8DB1BF808100029F4D108E0AF
:104F800008F1010188468142FADB1BF8081000296C
:104F9000F6D1DDE90F23AAEB08008146214600F097
:104FA00031F9304400EB080604E0DDE90F121BF88C
:104FB000010B9047B8F10108F7D221464846F2E0CC
:104FC0000A21C4F302524FF0000B0891022A04D0C8
:104FD00001CFC117032A09D00AE0FF1D27F00707F8
:104FE000F7E8020108E02CE01EE01FE000B2C11764
:104FF000042A01D140B2C117021E71F1000206DA83
:105000000023D0EB030063EB01012D2202E0220517
:1050100004D52B228DF82420012203E0E20701D0E1
:105020002022F7E7904653E00A210BE0102109E027
:1050300010214FF0000B44F004044FF008090891D0
:1050400003E008214FF0000B0891C4F30252022A3A
:1050500004D001CF0021032A06D006E0FF1D27F06F
:105060000707F7E8020103E080B2042A00D1C0B2CA
:105070004FF0000822072BD52A78702A07D0DDF8D8
:1050800020C08CF0100C5CEA0B0C05D00EE0402226
:105090008DF82420012208E050EA010306D03023D5
:1050A0008DF824308DF8252002229046089B83F04D
:1050B000080353EA0B030BD150EA010201D1620746
:1050C00006D530228DF824204FF00108A9F10109FE
:1050D0002A78582A04D038A20B9208AA0A920BE028
:1050E0003AA2F9E75B46089AFBF7F4F80B9B9B5C46
:1050F0000A9A521E0A92137050EA0102F2D10A98DB
:10510000ADEB000000F1200B600702D524F48034E1
:1051100001E04FF00109D94502DDA9EB0B0000E0E9
:10512000002000EB0B0141440890AAEB010AE003C8
:1051300006D4DDE90F232146504600F063F806440B
:105140004FF0000908E009A911F80900DDE90F1284
:10515000904709F10109761CC145F4DBE0030CD549
:10516000DDE90F232146504600F04CF8064404E0E8
:10517000DDE90F1230209047761C0899481E0890F0
:105180000029F5DC08E00A980A990078491C0A9180
:10519000DDE90F129047761CBBF10001ABF1010B6A
:1051A000F1DC21465046DDE90F2300F019F80644F2
:1051B0006D1C21E609280100303132333435363791
:1051C0003839616263646566000000003031323353
:1051D00034353637383941424344454600000000F3
:1051E0002DE9F041044600251E461746880404D4E4
:1051F00005E039462020B0476D1C641EF9D52846CD
:10520000BDE8F0812DE9F041044600251E46904698
:10521000C80301D5302700E02027880404D505E025
:1052200041463846B0476D1C641EF9D52846BDE896
:10523000F08100002DE9FC4107460C4615469846D2
:1052400026796178202913D021292BD022291AD040
:10525000232935D01DA0FFF7F5FC61781FA0FFF7CB
:10526000F1FC28A0FFF7EEFC4FF0FF30BDE8FC8119
:10527000E2886846296800F0D7FE6A46314638461B
:1052800001F062F820E0A17801F00102C1F34004CE
:105290003146384601F04CF822463146384601F096
:1052A00054F811E06A463146384600F0CDFF072237
:1052B0006946286800F0B8FE0720C8F8000003E03F
:1052C0003146384601F032F80020CFE71B5B33331C
:1052D0006D5B572F5553425D20000000556E68618D
:1052E0006E646C65642043444320436C6173732097
:1052F0006252657175657374203078253032780D8F
:105300000A0000001B5B306D000000000048704781
:105310008689000800487047748900080048704773
:10532000E889000801700A0A42700A0C8270090EAE
:10533000C170704701700A0A42700A0C8270090E2F
:10534000C170704713B54FF47A7301226946024861
:10535000FEF77AF900981CBD641F002010B55C08A8
:10536000104400F58060002C08D030F8022B0A7041
:10537000120A4A70891C641E002CF6D1DA0701D08B
:105380000088087010BD10B55B1C5B08104400F568
:105390008060002B09D00A784C78891C42EA0422EC
:1053A00020F8022B5B1E002BF5D110BD10B518485C
:1053B0004FF47A74017A01290FD0007D012819D0A9
:1053C00000F096F8B0FBF4F104FB1102B0FBF4F12D
:1053D000BDE810400FA0FFF735BC00F089F8B0FB26
:1053E000F4F104FB1102B0FBF4F1BDE8104010A091
:1053F000FFF728BC00F07CF8B0FBF4F104FB1102CD
:10540000B0FBF4F1BDE8104010A0FFF71BBC00009A
:10541000341400205B256C752E256C755D204E6F55
:105420002043432064657465637465640D0A00005D
:105430005B256C752E256C755D20434331206465BA
:105440007465637465640D0A000000005B256C756B
:105450002E256C755D20434332206465746563744A
:1054600065640D0A00000000CF214843044901EBA8
:10547000800090F81C02002800D001207047000036
:10548000F8000020FCF790FCFEF789FCFEF7C2FA5A
:10549000FEF78AFAFEF76AF9FEF706FAFEF720FA37
:1054A000FEF71EFBFEF77EFBFEF7B4F9FEF734FABB
:1054B000FEF7DEFAFEF7F8FA0549002002F01CFCC0
:1054C00000F01EF8FEF786FA00F02EF8FEE7000066
:1054D000005C004010B5EFF30581002902D06FF0A9
:1054E000050403E0002408B102F014FB204610BDBF
:1054F000EFF30580002801D002F0CEBF02F0C6BF56
:10550000EFF30580002802D06FF0050070470548D2
:10551000016811B14FF0FF30704701210160002098
:10552000704700007400002010B5EFF305800028DC
:1055300002D06FF0050010BD07480168012902D0B4
:105540004FF0FF3010BD054A0021117002210160AB
:1055500002F04EFB002010BD740000201FED00E0A3
:10556000F8B514464FF00005EFF30582002A33D159
:1055700090B389B3521EB4B1A3685BB1E668502EF4
:1055800008D3266936B1676900FB01F6B74201D33B
:10559000012209E043B9E36833B9236923B9636998
:1055A00013B9002200E00022012A01D042B10BE031
:1055B00000220092A368226902F090FC054603E0F5
:1055C000002202F069FC054635B10CB1216800E00B
:1055D0000021284602F068FA2846F8BD2DE9FF4769
:1055E0000B464FF00008CDF80C80EFF3058199BB16
:1055F00090B3802618240025691E72B3176807B17E
:105600003D46976907B13C46671E382F02D217798D
:10561000FF0703D0002004B0BDE8F087576907B149
:10562000BE08D2F808C0BCF1000F0CD0D2F80C9024
:10563000B9F15C0F07D3D2F81090B9F1000F02D086
:105640000FB101210BE0BCF1000F08D1D76837B9C9
:10565000176927B9002102E01BE0FFE700210129BB
:1056600001D059B115E0916812690291CDE900426B
:105670003246294602F0CEFE03900AE003A9CDE9A6
:105680000041B2B2294602F093FE012801D0CDF8C4
:105690000C800398BFE700002DE9F04104460F4657
:1056A000134EF5683068001D02F0FEF8601C07D14B
:1056B00037B13168BDE8F041091D0E4802F044B928
:1056C0002C4430684460AC4206D23168B06B091D8E
:1056D000BDE8F04102F020B93168706B091D02F09D
:1056E0001BF9B06A844200D2B462BDE8F0810000C8
:1056F000240000203425002070B5044602F030F963
:105700001C4DA868401CA860286810B1686938B1B1
:105710000CE02C60A868012808D100F099F905E098
:105720002868E16AC06A884200D82C60686A401C18
:1057300068626064E06A2969884200D928610E497C
:1057400000EB800001EB8000211D02F0FDF802F06B
:1057500027F9686900280CD02868E16AC06A884285
:1057600007D206494FF080500860BFF34F8FBFF358
:105770006F8F70BD240000208420002004ED00E025
:1057800038B502F0EDF8104C2068C8B90F4802F0A7
:10579000B5F80E48143002F0B1F80C48E06014304F
:1057A00020610A4B0020F03B009003F150021021D1
:1057B0000A2002F093FB206010B105A102F074F9F9
:1057C000BDE8384002F0ECB8600000203826002028
:1057D000546D72510000000070B50C4D0C4E11E07C
:1057E00002F0BEF8F068C468201D02F05DF8A868F9
:1057F000401EA8606868401E686002F0D1F820462C
:1058000000F053F868680028EAD170BD2400002039
:105810002025002030B40B46026C002A0CD0C16851
:105820001144C1608468A14201D30168C160C168AC
:1058300030BC1846FAF77FBD30BC70472DE9F04107
:10584000044617460026A56B226C002A10D0C7B16B
:10585000E068FAF770FDE168206C091AE1602268DF
:10586000914202D2A168081AE060022F16D017E018
:105870002068A8B9A06802F07DFE06460020A0605E
:105880000EE06068FAF757FD216C606808446060BC
:10589000A168884204D32068606001E005B16D1EF4
:1058A0006D1CA5633046BDE8F08110B5044694F840
:1058B000590000280BD0012811D0022814D0502004
:1058C00080F31188BFF34F8FBFF36F8FFEE7206B1C
:1058D00002F07CF82046BDE8104002F077B8204680
:1058E000BDE8104002F072B810BD00000749CA6858
:1058F0001168002904D00021016019B1002070470F
:105900000121F9E7D06800687047000060000020BE
:105910004FF4A0410F48420706D0C01D20F00700F9
:105920000C49411AC1F5A0410B4A10600023536095
:105930000144083921F00701183A11604B600B60EF
:105940000B1A436001604068906050604FF0004067
:1059500050617047182D002090000020074E4FF036
:105960008054074DFFF738FF30680128FAD92C60C2
:10597000BFF34F8FBFF36F8FF4E700008420002048
:1059800004ED00E070B51D46049C002909D022609A
:10599000E06321640121204602F0D6FA84F84C50DD
:1059A00070BD2460F4E72DE9F05F8246DDE90A5915
:1059B0000C9C0E4617469B46B900A522206BFAF7B1
:1059C000CCFC206B7F1E00EB870020F007077807D8
:1059D00007D0502080F31188BFF34F8FBFF36F8F34
:1059E000FEE74FF0000866B100202218315C82F813
:1059F0003410315C11B1401C1028F6D384F8438078
:105A000001E084F83480382D00D33725E562E56461
:105A1000C4F85080201D01F07CFF04F1180001F053
:105A200078FF2461C5F13800A0616462C4F8548035
:105A300084F858805A465146384600F0A7FA20604C
:105A4000B9F1000F01D0C9F80040BDE8F09F000097
:105A500070B50024114D04EB840005EB800001F0CB
:105A60004DFF641C382CF6D30D4801F047FF0C485D
:105A7000143001F043FF0A48283001F03FFF084886
:105A80003C3001F03BFF0648503001F037FF05483D
:105A9000034941631431816370BD000084200020FC
:105AA000E42400202400002030B5134900E0114612
:105AB0000A688242FBD34B685C18844203D1406879
:105AC0001844486008460D6844682318AB420DD15D
:105AD000094B183B1B689A4206D052682244426028
