:020000040800F2
:10000000E86F0020B1020008733A00085B35000871
:10001000713A0008CD050008CF4400080000000038
:10002000000000000000000000000000F1010008D6
:1000300073060008000000004D020008D13A0008D5
:10004000CB020008CB020008CB020008CB0200085C
:10005000CB020008CB020008CB020008CB0200084C
:10006000CB020008CB020008CB020008CB0200083C
:10007000CB020008CB020008CB020008CB0200082C
:10008000CB020008CB020008CB020008CB0200081C
:10009000CB020008CB020008CB020008CB0200080C
:1000A000CB020008CB020008CB020008CB020008FC
:1000B0006D3B0008CB020008CB020008CB02000811
:1000C000CB020008CB020008CB020008CB020008DC
:1000D000CB020008CB020008CB020008CB020008CC
:1000E000CB020008CB020008CB020008CB020008BC
:1000F000CB020008CB020008CB020008CB020008AC
:10010000CB020008CB020008CB020008CB0200089B
:10011000CB020008CB020008793B0008CB020008A4
:10012000CB020008CB020008CB020008CB0200087B
:10013000CB020008CB020008CB020008CB0200086B
:10014000CB020008CB020008CB0200080000000030
:10015000000000000000000000000000000000009F
:10016000000000000000000000000000CB020008BA
:10017000CB020008CB020008CB020008CB0200082B
:10018000CB020008CB020008CB020008CB0200081B
:10019000CB02000800000000CB020008CB020008E0
:1001A000CB020008CB020008CB020008CB020008FB
:1001B000CB020008CB020008CB020008CB020008EB
:1001C000CB020008CB020008CB020008CB020008DB
:1001D000CB020008CB020008DFF810D000F004F9D1
:1001E000004800479D460008AFF30080E86F0020FC
:1001F0002C4B19680868B0E8F04F80F30988BFF30A
:100200006F8F4FF0000080F31188704700000000EE
:1002100008480068006880F308884FF0000080F309
:10022000148862B661B6BFF34F8FBFF36F8F00DFE4
:1002300000BF00BF08ED00E0DFF80C00016841F4EA
:1002400070010160704700BF88ED00E0EFF30980A6
:10025000BFF36F8F134B1A681EF0100F08BF20ED0D
:10026000108A20E9F04F106009B44FF0500080F37D
:100270001188BFF34F8FBFF36F8F05F0E9F84FF090
:10028000000080F3118809BC19680868B0E8F04FD5
:100290001EF0100F08BFB0EC108A80F30988BFF37E
:1002A0006F8F70471C000020EFF30580704700003F
:1002B0000648804706480047FEE7FEE7FEE7FEE700
:1002C000FEE7FEE7FEE7FEE7FEE7FEE75D3B000830
:1002D000D90100082DE9F05F0546002092469B46B3
:1002E00088460646814640241BE02846414647464C
:1002F000224600F069F853465A46C01A914110D37D
:1003000011461846224600F050F82D1A67EB0108F6
:100310004F4622460120002100F047F817EB000964
:100320004E41201EA4F10104DFDC484631462A4636
:100330004346BDE8F09F40EA01039B0703D009E074
:1003400008C9121F08C0042AFAD203E011F8013BC1
:1003500000F8013B521EF9D27047D2B201E000F81A
:10036000012B491EFBD270470022F6E710B5134659
:100370000A4604461946FFF7F0FF204610BD30B587
:100380000B46014600202022012409E021FA02F553
:100390009D4205D303FA02F5491B04FA02F52844ED
:1003A000151EA2F10102F1DC30BD202A04DB203A47
:1003B00000FA02F1002070479140C2F1200320FAB8
:1003C00003F3194390407047202A04DB203A21FAB6
:1003D00002F00021704721FA02F3D040C2F120025E
:1003E0009140084319467047064C074D06E0E06807
:1003F00040F0010394E8070098471034AC42F6D36C
:10040000FFF7EEFE185F0008385F000810B5846A39
:10041000E16D11F0500F06D0E16DC90625D52046DB
:1004200000F05CFC10BDE06D40F40070E0652068F9
:100430000168090716D503F0A3F878B12068C068F1
:10044000800400280ADBE06D20F48070E065E06D38
:10045000C00403D4E06D40F00100E065204600F0E8
:100460003BFC10BDC0688007EBE7616D496BBDE8E0
:100470001040084710B5806AC16D41F04001C16568
:10048000016E41F00401016600F028FC10BD10B5BA
:10049000806A00F022FC10BD70B5044600688168D7
:1004A0008268C1F3400112F0010F28D039BB816886
:1004B00001F00D01012914D18168124A1140891CF3
:1004C000816021680320086001F066FB054612E0A8
:1004D00001F062FB401B02280DD920688068C0072C
:1004E00009D0E06D40F01000E065206E40F00100A2
:1004F0002066012070BD20688068C007E8D1002018
:1005000070BD0000C0FFFF7FF8B5044600200090DA
:100510002068816811F0010F4AD18168254A114293
:1005200037D18168D5432940491C81602068B0F1EA
:10053000A04F02D02049884201D1204800E0204845
:10054000806800F0E07000020DD51E481E4900686A
:10055000B0FBF1F0401C00EB4000800000E0401ECA
:1005600000900028FBD101F017FB06461BE08168D4
:1005700011F0010F03D181682940491C816001F00D
:100580000BFB801B02280ED920680068C043C007FF
:1005900009D0E06D40F01000E065206E40F00100F1
:1005A00020660120F8BD20680168C943C907DED173
:1005B0000020F8BD3F000080000100500003005003
:1005C0000007005018000020400D0300FEE7000067
:1005D0000D4902688A4201D20C4901E00B492031E1
:1005E000D2B21423083AB2FBF3F2436C02F01F02BA
:1005F00023F003031944816404498031C16401215B
:100600009140016570470000080402400008024064
:100610000179074A02EB81024265054A4432491ECC
:10062000826501F01F0201219140C1657047000001
:10063000FC08024030B5D0E913456560446D14B143
:10064000D0E91645656090F8444004F01F05012488
:10065000AC40056C6C60046863608368102B0368B1
:1006600003D099600068C26030BD9A600068C160C4
:1006700030BD704772B6FEE7F8B500260446009616
:1006800090F858000D4601280BD0012084F858003E
:100690002046FFF701FF0100E06D04D040F010009C
:1006A0002AE00220F8BD20F4885040F00200E06506
:1006B00020688268134B1A4005F080431A4342F0C9
:1006C00000428260104A20680EE0009B5B1C009391
:1006D000934209D3E06D20F0020040F01000E06585
:1006E00084F858600120F8BD8368DB0FEDD1E06D20
:1006F00020F0020040F00100E06584F858600846F0
:10070000F8BD0000C0FFFF3F02DE04002DE9F04FFE
:10071000044690F858009BB00F464FF0000B01289C
:1007200012D0012084F858000026179618962068E9
:100730004FF0A048DFF81C91DFF81CA1474D404561
:1007400006D12846009508E002201BB0BDE8F08FD6
:1007500048450AD15046CDF800A002F00DFF0090A8
:10076000206802F009FF40B109E0E06D40F0200090
:10077000E06584F858600120E7E7009850B1E06D2B
:1007800040F02000E0654FF0010B00BF84F8586096
:100790005846DAE720684146884201D0A84201D194
:1007A0002F4800E02F48D7F800C02F4B40F61F72AB
:1007B000BCF1000F2DD0D0F808C094F838802CF48C
:1007C000604C4CEA483CD7F804804CEA080CC0F86E
:1007D00008C0D4F800C08C4501D0AC4504D189686C
:1007E000AB6801F0010109E0D9F80810DAF8085007
:1007F00001F0010105F001059B68294303F00103A5
:100800001943C3D1BB6839681943836893431943BB
:100810001DE0876827F46047876027688F4201D012
:10082000AF4204D18968AB6801F0010109E0D9F851
:100830000810DAF8085001F0010105F001059B6885
:10084000294303F001031943A0D1816891438160DA
:100850009CE700000004005000050050000100501B
:100860000003005000070050000600502DE9F84F2B
:1008700000270446009790F85800DFF81C840D46C6
:10088000B946012811D0012684F85860206802F08A
:100890006FFE60B1E06D40F02000E0655FF00107A1
:1008A00084F858903846BDE8F88F0220FBE7D5E978
:1008B00000210C23206803EA91131844036B01F014
:1008C0001F014FF01F0C0CFA01FCC2F3846223EAF3
:1008D0000C038A4013430363206802F049FE8246FA
:1008E000206802F041FE5AEA00003CD1AA6829685B
:1008F0002068B2F1004F37D002F04AFE206841690B
:1009000021F00041416120686969C268C2F3C102F7
:10091000520091402A69042A31D000EB82002B68F2
:10092000026EDFF878C303F0F84302EA0C020B43CF
:100930001A4342F00041016622682869A96902EB66
:100940008000026E22F080720A430266297F2268CC
:100950002869012910D0002102EB8000026E22F0EC
:1009600000720A4302667DE0002202F011FE206858
:10097000416941F00041C5E74FF00071ECE700210B
:1009800002F0ECFD400320684FF0000172D002F04D
:10099000E5FD90FAA0F0B0FA80F1286842036ED02D
:1009A00090FAA0F0B0FA80F0814204D10022114602
:1009B000206802F0FCFD0121206802F0CFFD400319
:1009C00020684FF001015DD002F0C8FD90FAA0F060
:1009D000B0FA80F12868420359D090FAA0F0B0FA3A
:1009E00080F0814204D100220121206802F0DFFD65
:1009F0000221206802F0B2FD400320684FF002019E
:100A000048D002F0ABFD90FAA0F0B0FA80F128686F
:100A1000420344D090FAA0F0B0FA80F0814204D1B1
:100A200000220221206802F0C2FD0321206802F0AA
:100A300095FD400320684FF0030133D002F08EFD96
:100A400090FAA0F0B0FA80F1286842032FD090FA13
:100A5000A0F0B0FA80F0814204D100220321206886
:100A600002F0A5FD2068816811F0010F22D0ACE0F2
:100A700000E004E002F072FDC0F384618DE7C0F392
:100A8000846091E702F06AFDC0F38461A2E7C0F3DD
:100A90008460A6E702F062FDC0F38461B7E7C0F3AB
:100AA0008460BBE702F05AFDC0F38461CCE7C0F379
:100AB0008460D0E72A7B296850F8B03FC1F3120C5C
:100AC00023EA0C0302F0180C754A22FA0CF20A40D1
:100AD00013430360E968414577D1286841031CD07E
:100AE00090FAA0F1B1FA81F1491C01F01F01092926
:100AF0004FEA403132D8002912D000BF90FAA0F15D
:100B0000B1FA81F101F1010101F01F0106FA01F6CC
:100B100009D100BFC0F3846109E0C0F38461E3E759
:100B2000C0F38461EEE790FAA0F1B1FA81F101F12E
:100B3000010101F01F0146EA816102D1C0F3846026
:100B400003E090FAA0F0B0FA80F000F1010000F0AC
:100B50001F0000EB400041EA005132E000290ED0B6
:100B600090FAA0F1B1FA81F101F1010101F01F0148
:100B700006FA01F606D100BFC0F3846106E0C0F3B7
:100B80008461F1E790FAA0F1B1FA81F101F101017C
:100B900001F01F0146EA816102D1C0F3846003E0E5
:100BA00090FAA0F0B0FA80F000F1010000F01F0010
:100BB0003C4A00EB400002EB005041EA000141F0EA
:100BC0000071AA68206802F0E3FC37482B680342F2
:100BD0003FF466AE21684FF0A04C3448344E354D9A
:100BE000614501D0A94201D1024600E03246926837
:100BF000DFF8C48002F0E072434503D0DFF8BC8028
:100C0000434521D15FEA02281ED4614506D02C4B12
:100C100099427FF445AEA94200D0304642F400012B
:100C2000826822F0E0720A43826026482649006802
:100C3000B0FBF1F0401C00EB4000800000E0401EE3
:100C400000900028FBD12BE6DFF8808043450FD1D0
:100C50005FEAC2180CD4A94202D11D4B9942F2D0CE
:100C6000614502D0A94200D0304642F080710CE0CC
:100C7000DFF860804345E6D15302E4D4A942E2D0D4
:100C8000614500D0304642F48001826822F0E07273
:100C90000A43826004E6000000007F4000F0FF038A
:100CA000FFFF0700000020FE000008800003005046
:100CB0000007005000010050000021C31000C09048
:100CC0000006005018000020400D0300000052C72D
:100CD00000050050000084CB70477047704700004B
:100CE000F8B54FF0000504002E46009502D0E06DE7
:100CF00010B107E00120F8BD204600F009F9266692
:100D000084F8586020688168C1F3407119B1816826
:100D1000734A1140816020688168C1F3007189B90C
:100D20008168704A114041F0805181606E486F497E
:100D30000068B0FBF1F04000801C00E0401E009015
:100D40000028FBD120688168C1F3007141B9E16DD1
:100D500041F01001E165216E41F00101216601259C
:100D600002F006FCE16DC90600D430B1E06D40F040
:100D70001000E06501252846F8BDE06D20F4807084
:100D800040F00200E0652068816811F0010F27D172
:100D90004FF0A043564A984201D0904204D199683E
:100DA000966801F001010AE052498968524E01F04B
:100DB0000101B66806F001063143504EB66806F0F0
:100DC000010631430CD1984201D0904201D14C48E8
:100DD00000E04C486168826822F47C120A43826019
:100DE000E168E06B627F0843A16841EA4231084351
:100DF00094F8241040EA0140012904D1218D424A8F
:100E000002EB41410843E16A29B101F47871226B98
:100E1000014342EA01002268D1683C4B194001437A
:100E2000D16020680169626B21F04061114301616A
:100E3000206802F099FB70BB207F94F8381022687C
:100E4000800340EA4100D16844F202039943014320
:100E5000D16020690028206801690AD041F48031FE
:100E60000161206850F8C01F22696FF30D01114322
:100E700007E021F480310161206850F8C01F6FF352
:100E80000D01016094F8400001280CD02068016930
:100E900021F001010161606901282068016B21F0E6
:100EA0000F0111D013E0D4E911010843D4E9131262
:100EB0001143084321680A6940F2FC739A431043C6
:100EC00040F001000861E6E7226A521E1143016307
:100ED000E06D20F0020040F00100E0654BE700000B
:100EE000C0FFFF5FC0FFFF7F18000020400D030020
:100EF00000010050000400500005005000060050A2
:100F000000030050000700500000FEFF0740F0FF04
:100F10002DE9F0419CB00646142115A8FFF724FAEC
:100F200054216846FFF720FA4FF4004130688A03E5
:100F3000394F0325394C4FF00008B0F1A04F10D0C5
:100F4000374B984231D168461192009101F098F8E0
:100F500008B1FFF78FFB7868401C7860012827D024
:100F60002EE068461192009101F08AF808B1FFF76F
:100F700081FB7868401C7860012807D1E06C40F460
:100F80000050E064E06C00F400501A90E06C40F017
:100F90000200E064E06C15A900F002001A90012044
:100FA00081E821011F4800F0CDFC1CB0BDE8F081B4
:100FB000E06C40F40050E064E06C00F400501A90E3
:100FC000E06C40F00100E064E06C802700F001007C
:100FD0001A90CDE91575454615A94FF09040CDF80A
:100FE0005C8000F0AFFC114C0F4820602420C4E965
:100FF00001057800E560C4E904708000A06120204C
:10100000C4E90705204600F0F7FB08B1FFF732FB03
:101010007465A662C9E700000400002000100240C9
:101020000001005000040048300002407801002018
:101030002DE9F047044600684FF0A0483D4F914627
:101040008A46404501D0B84201D13B4900E03B49C6
:10105000896801F01F0502F08BFA002868D194F826
:101060005800012864D0012084F8580034492068D1
:10107000884201D1012000E00020401E28424FF0AC
:10108000000605D0052D03D0092D01D0012003E075
:101090002046FFF739FA18B184F85860BDE8F087A8
:1010A000E06D40F60161884340F48070E06520689F
:1010B000B84201D1414605E02249884201D1224986
:1010C00000E00146814200D01DB9E06D20F480109F
:1010D000E065E06DC00404D5206E20F006002066B7
:1010E00000E02666616D1948C862616D18480863A2
:1010F000616D1848486321681C20086084F85860B6
:101100002068416841F0100141602068C16841F0E9
:101110000101C16021684B4652464031606D00F0CC
:10112000CBFB21688A680C4B1A40121D8A60B5E718
:101130000220B3E7000100500003005000070050F8
:101140000006005000050050000400500D04000887
:101150008F04000875040008C0FFFF7F2DE9F84FD9
:1011600004004FF000000546009003D02168096894
:10117000002901DA0125FCE0617F21B92077206296
:10118000204600F00BF921680868E66800F40003C7
:10119000D4E90120104362693243104322691043AD
:1011A0000A68754E324002430A60D4F800C0DCF889
:1011B000000000020ED56BB9704871490068B0FBA1
:1011C000F1F0401C00EB8000800000E0401E009029
:1011D0000028FBD16B486B4914308C4502D14FF489
:1011E00000111EE06749091D8C4502D14FF48001B2
:1011F00017E0644908318C4501D1890611E0614945
:101200000C318C4502D14FF080410AE05D4910312C
:101210008C4501D1C90604E0844501D1012100E0DB
:101220000221A269584B92465FEA8278574E584A8B
:10123000A3F10407A6F1040977D05FEACA6803F1B5
:10124000040A06F1040B0BD5844501D0944501D165
:10125000D44600E0DC46DCF8008048EA01080AE0F9
:10126000844501D0944501D1D44600E0DC46DCF849
:10127000008028EA0108CCF8008094F818C0DFF854
:1012800018A15FEA8C68DFF80CC1D4F8008009D59A
:10129000804502D0904500D0D446DCF8008048EA72
:1012A000010808E0804502D0904500D0D446DCF823
:1012B000008028EA0108CCF80080D4F800C08445FA
:1012C00001D0944504D1DFF8CCC00CF1080C03E048
:1012D000DFF8C4C00CF1080CCCF8001094F818C06A
:1012E0005FEA8C7CD4F800C009D5844501D09445D0
:1012F00002D11E680E4308E033680B4309E08445C1
:1013000001D0944503D11E688E431E6002E033680D
:101310008B433360237EDB070DD02368834201D0EB
:10132000934203D1386808430CE00DE0D9F800205F
:1013300048460A4318E02368834201D093420FD104
:1013400038688843386010E0844501D0944503D163
:101350001E688E431E60EEE733688B433360EAE716
:10136000D9F8002048468A430260607F08B901200E
:1013700060772846BDE8F88F0F7E00FF1800002038
:10138000400D030000020140240401400404014018
:10139000180201402C0401400C040140F0B587B054
:1013A000044614216846FEF7DFFF214B2268002423
:1013B00020490226032708254FF090409A4217D172
:1013C000CA6C42F00102CA64C96C009601F00101C6
:1013D0000591CDE901746946074600F0B3FA402053
:1013E0000090CDE9016469463846CDE903451AE02D
:1013F0000F4B1B1D9A4218D1CA6C42F00102CA64FD
:10140000C96C01F00101059104210091CDE901644D
:1014100069460646CDE9034500F094FA0095CDE90A
:1014200001746946304600F08DFA07B0F0BD000047
:10143000000201400010024008B501004FF000001A
:10144000009003D00A681368002B01DA012008BD60
:101450004B7F012BFAD1136843F001031360022282
:101460004A770649064A0968B1FBF2F101EB8101AE
:1014700000E0491E00910029FBD108BD18000020A2
:1014800080841E00704700002DE9F04790460D460D
:1014900004004FF0000A0FD075B1607901280ED01A
:1014A0004FF0010984F8059002202071A96808F026
:1014B0001006042905D04AE00120BDE8F08702208B
:1014C000FBE700F069FB07465FEA08004FF00308FE
:1014D00009D022E000F060FBC01B012803D920687E
:1014E000406B000411D42068406B0004F2D42168E2
:1014F000686A086418E000BF00F04EFBC01B0128BA
:101500000BD92068406B002807DA206940F00800FA
:10151000206184F804800320CFE72068406B002816
:10152000EADB2168686A48642068816C40F2FF3217
:10153000B2409143AA6AB240114381642068C16CF1
:10154000FF22B2409143EA6AB2401143C164E869A4
:10155000012808D12268916B1F20B0408143286A7E
:10156000B040084390632068C06B0721B1408843B6
:10157000A969012903D0022957D06969F1B3002173
:101580006B69AA681A430A434FF4807101FA06F3A3
:1015900098432B79012B00D0002111434FF40072A6
:1015A00002FA06F398436B79012B00D0002220F455
:1015B0004047286842EA0108022838D057EA000765
:1015C000216808FA06F03843C863206801684FF4C0
:1015D0008042B240914301602268116840F6FE707B
:1015E000B0408143E868B04008431060206801685B
:1015F000C022B24091430160287B00E015E0297CC5
:10160000C0F3830001F03C0140EA811021680A6EBA
:1016100040F60F73B3409A43B04002430A6684F821
:10162000049000206071504647E70121A8E700F0D0
:10163000B5FF0649884202D947F40047C0E704498C
:101640008842BDD947F48047BAE70000006889099D
:1016500000B4C40470472DE9F041044600680668F0
:10166000456BB1044FF0040710D5A9040ED52771BE
:10167000216941F001012161F9024163206801689B
:1016800021F4805101602046FFF7E4FFB00014D53B
:10169000A80012D52771206940F00200206121685E
:1016A0004FF0005048632068016821F080510160CC
:1016B0002046BDE8F041FFF7E5BEBDE8F08170B51A
:1016C000040003D02079002510B105E0012070BD91
:1016D0006571204600F008F8022020712561012084
:1016E0002071002070BD000010B586B004461421A2
:1016F0006846FEF739FE15492068884223D1144810
:10170000C16C41F48031C164C16C01F48031059138
:10171000C16C41F00101C164C06C694600F0010078
:1017200005903020009003200190002002904FF09F
:10173000904000F007F900220F21362000F0BAFA9D
:10174000362000F0A9FA06B010BD000000080050D5
:101750000010024018B50024009448B10068C46B22
:101760000090104431B1143000900360002018BD87
:10177000012018BD0830F7E7F8B5A8B14279012A71
:1017800014D0012242710223037105682F6801F011
:10179000100402FA04F637432F60154D154E2D68DC
:1017A000B5FBF6F56D1C04E00120F8BD0220F8BD84
:1017B0006D1E0095002DFBD1002901680ED00D682B
:1017C000A34005F478159D4203D14B6843F0020312
:1017D0004B600271002141710846F8BD0B68C3F3EC
:1017E0004403012BF5D14B6843F00103F0E70000FF
:1017F00018000020400D030070B504000CD02B4AE7
:1018000021681420914209D2294A0A44B2FBF0F01F
:101810008000606427480AE0012070BD234A5242DC
:101820000A44B2FBF0F0800060642048083820646D
:10183000022084F825000A6847F6F0708243D4E954
:1018400002031843D4E904352B431843A369184312
:10185000E3691843236A1843104308602046FEF7E3
:10186000B7FEA0680025B0F5804F00D16560A16C7F
:1018700020790860D4E9130141606068401E0328A4
:1018800008D82046FEF7C4FE606D0560D4E9160155
:10189000416002E06565A565E565E563012084F8C2
:1018A000250084F82450002070BD00000804024088
:1018B000F8FFFDBF0000024070B5044690F8240018
:1018C000002501280CD0012084F8240094F825601C
:1018D0000020012E06D084F824000225284670BD81
:1018E000022070BD022684F82560E0632068066847
:1018F00026F0010606602046FEF79CFE206B0028BD
:101900002068016802D041F00E0106E021F00401D8
:1019100001602068016841F00A010160A06C016863
:10192000C90303D5016841F480710160606D18B18D
:10193000016841F4807101602068016841F0010193
:101940000160CBE72DE9F04FDFF82092002301265C
:101950000324A9F1040B85B00F2709F1040AABF1A8
:10196000040EFAE006FA03F52A407CD091F804C090
:101970000CF0030CBCF1010F02D0BCF1020F26D118
:10198000D0F808C0CDF800C04FEA430C04FA0CF8B8
:10199000CDF810C0DDF800C02CEA080CCDF800C06E
:1019A000D1F80C80DDF810C008FA0CF8DDF800C0A2
:1019B00048EA0C08C0F80880D0F804C02CEA050CEE
:1019C0000D79C5F300159D4045EA0C0545600D797C
:1019D000ED43AD070ED0C5684FEA430804FA08FC92
:1019E00025EA0C05D1F808C00CFA08FC4CEA050CF5
:1019F000C0F80CC00D7905F00305022D16D1DD08E5
:101A000000EB850CCDF808C0DCF820805D074FEABC
:101A1000D56C07FA0CF528EA05080D6905FA0CF5EE
:101A2000DDF808C045EA0805CCF8205005684FEA03
:101A3000430CCDF808C004FA0CFC25EA0C0591F81B
:101A400004C00CF00308DDF808C008FA0CF848EAF6
:101A50000508C0F800804D6815F4403F7CD0444D27
:101A6000D5F860C000E077E04CF0010CC5F860C02C
:101A70002D6E23F0030C05F0010500953D4D6544E6
:101A80000295AD684FEA837C4FEA1C7807FA08FCA0
:101A900025EA0C05B0F1904F06D0DFF8DCC06045B8
:101AA00005D14FF0010C20E04FF0000C1DE0DFF8F5
:101AB000CCC0604502D14FF0020C16E0DFF8C0C088
:101AC000604502D14FF0030C0FE0DFF8B8C060456D
:101AD00002D14FF0040C08E0DFF8ACC0604502D141
:101AE0004FF0050C01E04FF0060C0CFA08FC4CEA34
:101AF000050C029DC5F808C0D9F80050CC46D1F8B5
:101B0000048095435FEAC82800D51543CCF80050FF
:101B1000DAF80050D446D1F8048095435FEA88286B
:101B200000D51543CCF80050DBF80050DC46D1F866
:101B3000048095435FEA883800D51543CCF80050FF
:101B4000DEF80050F446D1F8048095435FEAC838C7
:101B500000D51543CCF800505B1C0A6832FA03F537
:101B60007FF400AF05B0BDE8F08F0000080401402D
:101B70000010024000000140000400480008004836
:101B8000000C004800100048001400480AB18161B0
:101B9000704781627047000001488068704700000C
:101BA0000C0000200248816842681144816070473F
:101BB0000C00002010B50024032000F09BF80F203B
:101BC00000F008F808B1012401E000F047F82046D1
:101BD00010BD000030B505461B4887B0816D41F04F
:101BE00010018165806D06A900F01000009001A829
:101BF00000F0B4FC00F0D8FC1449154AB0FBF1F138
:101C00001448491E0260416040F2E7320021C0E9F9
:101C10000321816000F0CBFF040012D10D4801F0D8
:101C200045F804000DD1362000F036F8102D07D20B
:101C300000222946362000F03DF80748056000E004
:101C4000012407B0204630BD0010024040420F0082
:101C500000100040C80E00200C0000200D4808B500
:101C6000016E41F001010166016E01F00101009178
:101C7000816D41F080518165806D002200F08050BF
:101C800000900F21901E00F015F8BDE8084000F00C
:101C9000EFB9000000100240002809DB00F01F022D
:101CA000012191404009800000F1E020C0F80011BE
:101CB00070470000F0B40E4B1B680C46C3F30223C0
:101CC000C3F10705042D00D90425191D072901D2E8
:101CD000002300E0DB1E012606FA05F1491E214023
:101CE00099409E40761E16403143F0BC02F000BC85
:101CF0000CED00E0064900F0070208684FF6FF030C
:101D0000184040EA0220034A104308607047000070
:101D10000CED00E00000FA05F8B504004FF00005F6
:101D200014D094F83A00052810D094F83A0002280C
:101D30000CD03448016E41F001010166006E00F0E4
:101D40000100009094F83A0010B104E00120F8BDC1
:101D5000002084F83900204600F058F8A0682A4A8C
:101D60004FF48071402836D0602834D02068036852
:101D7000E66A23F0100333430360D4E901031843F8
:101D8000D4E9033633431843237D012B00D00021CF
:101D90000843616A0843A16A0843218E40EAC140B2
:101DA00094F8341040EA0161206803681340194335
:101DB000016020688169002909DBD4E9061211431A
:101DC000226A836923F03F031A431143816194F827
:101DD0003A0090B114E020680368E66A23F010032B
:101DE00033430360D4E901031843267D2369012EA0
:101DF00000D000210B431843CBE7012084F83A00C0
:101E00002846F8BD00100240113E00E010B586B033
:101E1000044614216846FEF7A7FA2368154C0021F2
:101E200015480322A3420FD1C36C43F00103C364DE
:101E3000C06C00F00100059080200090CDE90121E8
:101E400069464FF0904011E00A4C241DA3420FD187
:101E5000C36C43F00203C364C06C00F00200059041
:101E600001200090CDE9012169460448FFF76AFD91
:101E700006B010BD000301400010024000040048FD
:101E8000002138B190F83A20052A03D090F83A2082
:101E9000012A02D00121084670470268136843F006
:101EA00001031360042280F83A20F4E7012201685C
:101EB000C0F8D022002280F8C82231F8540F40F038
:101EC00001000880088840F0020008801046704732
:101ED00070B5040004D094F89102002510B106E01A
:101EE000012070BD84F89052204600F03FF8032096
:101EF00084F89102206802F0E2FA002001260BE04B
:101F000000EB800104EBC1014E740874CD740D62C6
:101F10004D62401CC0B28D6221798142F0D8002010
:101F200012E000BF00EB800104EBC10181F85151C8
:101F300081F8500181F85351C1F86051C1F86451E2
:101F4000401CC0B2C1F8685121798142EAD894E8B6
:101F5000070002F0ABFA257384F89162A07A012899
:101F600002D12046FFF7A2FF002070BD10B596B049
:101F7000044654216846FEF7F7F90C492068884268
:101F800012D14014009000200F90684600F078F8BD
:101F900008B1FEF76FFB0648816D41F400018165D1
:101FA000806D00F40000159016B010BD005C00407C
:101FB000001002402B492C4B0A6832214A432B491E
:101FC00040B1B0F5007F086829D020F4C06040F42B
:101FD00080602CE00868C0F34120022804D051F84A
:101FE000800F20F4807022E0D1F8800020F480700F
:101FF000C1F88000086820F4C06040F400700860F8
:10200000B2FBF3F0401C00E0401E4A69520501D5C6
:102010000028F9D1486940050AD503207047C0F36C
:102020004120022806D051F8800F40F480700860EB
:1020300000207047D1F8800040F48070C1F8800023
:10204000086820F4C06040F400700860B2FBF3F050
:10205000401C00E0401E4A695205DBD50028F9D13A
:10206000D8E700001800002040420F000070004038
:102070000248816841F480418160704700700040EF
:102080002DE9F843044600680026BB4D00035ED5E9
:10209000A86D0027C00008D4A86D40F08050A86546
:1020A000A86D012700F080500090DFF8D092D9F899
:1020B000001041F48071C9F80010FFF76DFD8046F3
:1020C00006E000BFFFF768FDA0EB080002282BD850
:1020D000D9F80000C005F5D5D5F8900010F440708F
:1020E00014D0216D814211D0D5F89000D5F8901010
:1020F00020F4407041F48031C5F89010D5F890106C
:1021000021F48031C5F89010C5F89000C00711D0B7
:10211000FFF742FD804641F2883907E0FFF73CFDBA
:10212000A0EB0801494501D903260BE0D5F8900042
:102130008007F3D5D5F89000216D20F44070084356
:10214000C5F890001FB1A86D20F08050A8652078D8
:10215000C00707D0D5F88800616820F00300084365
:10216000C5F888002078800707D5D5F88800A168D1
:1021700020F00C000843C5F888002078400707D5F8
:10218000D5F88800E16820F030000843C5F88800E1
:102190002078000707D5D5F88800216920F0C00015
:1021A0000843C5F888002078C00607D5D5F8880010
:1021B000616920F440700843C5F8880020788006E3
:1021C00007D5D5F88800A16920F440600843C5F818
:1021D00088002078400607D5D5F88800E16920F40A
:1021E00040500843C5F888002078000607D5D5F888
:1021F0008800216A20F440400843C5F88800208800
:10220000C00507D5D5F88800616A20F4403008433E
:10221000C5F888002068800307D5D5F89C00A16A1E
:1022200020F003000843C5F89C002088800507D5EE
:10223000D5F88800E16A20F440200843C5F88800FA
:10224000208840050FD5D5F88800216B20F4401078
:102250000843C5F88800206BB0F5801F03D1E868FB
:1022600040F48010E860208800050FD5D5F888007C
:10227000616B20F440000843C5F88800606BB0F53E
:10228000800F03D1E86840F48010E8602088C00423
:102290000FD5D5F88800A16B20F040700843C5F831
:1022A0008800A06BB0F1807F03D1E86840F4801013
:1022B000E86020884FF0006180040ED5D5F88800D2
:1022C000E26B20F040601043C5F88800E06B884264
:1022D00003D1E86840F48010E860208840040ED5FF
:1022E000D5F88800226C20F040601043C5F88800C3
:1022F000206C884203D1E86840F48010E8602088B0
:1023000000040FD5D5F88800616C20F040500843D8
:10231000C5F88800606CB0F1805F03D1E86840F4D4
:102320008030E8602068C0030FD5D5F88800A16C24
:1023300020F040400843C5F88800A06CB0F1804F01
:1023400003D1E86840F48030E860206840030FD58E
:10235000D5F89C00E16C20F440100843C5F89C00BF
:10236000E06CB0F5001F03D1E86840F48010E8602D
:102370003046BDE8F88300000010024000700040C5
:102380002DE9F0470E4605004FF0000725D0DFF895
:10239000AC81D8F8000000F00F00B0420CD2D8F8A1
:1023A000001021F00F013143C8F80010D8F80000E8
:1023B00000F00F00B04210D12968614CC80741F20B
:1023C000883A5AD06868DFF87C91032808D0022840
:1023D00020682DD0400500282CDB0120BDE8F087C7
:1023E00020688001F9D5E06800F00302E068C0F3DE
:1023F0000310401C032A19D0534A00BFB2FBF0F06F
:10240000E268C2F306225043E268C2F34162521C02
:102410005200B0FBF2F0484517D9A06810F0F00F59
:102420000CD0880711D5A86840B10EE0474AE5E70F
:102430008003D0E700F0DCF8484506D9A06820F01A
:10244000F00040F08000A0608027A068696820F05C
:1024500003000843A060FFF79FFB814606E000BF32
:10246000FFF79AFBA0EB090151453AD8A0686968CB
:1024700000F00C00B0EB810FF2D12868810714D571
:10248000400703D5A06840F4E060A060287800070A
:1024900005D5A06820F4605040F4E060A060A0681A
:1024A000A96820F0F000084304E0802F03D1A06861
:1024B00020F0F000A060D8F80010404601F00F01B5
:1024C000B14216D9016821F00F0131430160FFF7D5
:1024D00063FB074607E000BFFFF75EFBC11B5145EA
:1024E00001D903207AE7D8F8000000F00F00B042CD
:1024F000F2D12878400705D5A068E96820F4E060AB
:102500000843A0602878000706D5A068296920F450
:10251000605040EAC100A06000F06AF8A1680C4A6F
:10252000C1F30311515C01F01F01C8400949086063
:1025300009480068BDE8F047FFF74CBB00200240A7
:102540000010024000B4C4040024F40000127A0019
:10255000F85E0008180000200C0000200F22026026
:102560000C4A936803F003034360936803F0F0039D
:102570008360936803F4E063C36092684FF4E063A0
:1025800003EAD20202610448006800F00F0008600C
:10259000704700000010024000200240014800681F
:1025A0007047000018000020054806490068896847
:1025B000054AC1F30221515C01F01F01C840704778
:1025C0001800002000100240085F00080548064976
:1025D00000688968054AC1F3C221515C01F01F01FE
:1025E000C84070471800002000100240085F000833
:1025F000184910B58868C0F381021748012A0BD02A
:102600008A684310C2F38102022A06D08A68C2F3A4
:102610008102032A03D0002010BD184610BDCA68ED
:1026200002F00304CA68C2F30312521C032C02D046
:10263000B0FBF2F001E0B3FBF2F0CA68C968C2F384
:1026400006225043C1F34161491C4900B0FBF1F03F
:1026500010BD0000001002400024F4002DE9F843F2
:1026600004007AD02078F84DC00747D0A868E96800
:1026700000F00C0001F003010C2802D0082817D04C
:1026800001E0032914D06068B0F5803F17D0B0F5A1
:10269000A02F286817D020F480302860286820F404
:1026A000802028606068E0B1FFF776FA064614E003
:1026B0002868800322D560680028D2D01EE02868F0
:1026C00040F48030EDE740F480202860F7E700BF59
:1026D000FFF762FA801B642870D828688003F7D55A
:1026E0000CE0FFF759FA064605E000BFFFF754FA81
:1026F000801B6428F0D828688003F7D420788007EE
:102700004CD5A868E96800F00C0001F003010C2822
:1027100002D004280DD001E002290AD0E068002888
:1027200028682BD040F480702860FFF735FA064601
:1027300019E02868400502D5E068002891D0686853
:10274000217C20F0FE4040EA01606860BF480068DC
:10275000FFF740FA002800D120E072E1FFF71CFAF1
:10276000801B0228B8D828684005F7D56868217C06
:1027700020F0FE4040EA016068600FE020F48070C5
:102780002860FFF709FA064605E000BFFFF704FAE4
:10279000801B0228A0D828684005F7D420780007BD
:1027A00029D560690028D5F8940013D040F00100C5
:1027B000C5F89400FFF7F0F9064606E090E000BF88
:1027C000FFF7EAF9801B022886D8D5F89400800725
:1027D000F6D510E020F00100C5F89400FFF7DCF911
:1027E000064604E0FFF7D8F9801B022878D8D5F810
:1027F00094008007F6D42078400761D5A86D0026A4
:10280000C00008D4A86D40F08050A865A86D0126CE
:1028100000F0805000908E480168C90511D401680D
:10282000804641F480710160FFF7B6F9074604E085
:10283000FFF7B2F9C01B022852D8D8F80000C00533
:10284000F6D5A068012815D00528D5F8900016D037
:1028500020F00100C5F89000D5F8900020F00400A9
:10286000C5F89000A06841F28838B8B1FFF794F934
:1028700007460EE0D5F8900040F00100F0E740F088
:102880000400C5F89000F5E7FFF786F9C11B414544
:1028900026D8D5F890008007F6D50CE0FFF77CF934
:1028A000074604E0FFF778F9C11B414518D8D5F871
:1028B00090008007F6D41EB1A86D20F08050A86566
:1028C0002078800629D5A0690028D5F8980013D073
:1028D00040F00100C5F89800FFF75EF9064606E0F3
:1028E00075E000BFFFF758F9801B02286FD8D5F8B4
:1028F00098008007F6D510E020F00100C5F8980098
:10290000FFF74AF9064604E0FFF746F9801B022864
:102910005DD8D5F898008007F6D4E069F0B3A968CF
:10292000C1F3810103295DD00228286820F080705E
:10293000286003D0FFF730F904464BE0FFF72CF98D
:10294000064604E0FFF728F9801B02283FD82868D4
:102950008001F7D4F4E908016FF00F0202EB0111D6
:102960000843218A5204490802EB4151A26841EA16
:1029700002210843217D4FF07E42490802EB41616C
:102980000843217B40EAC160E968324A11400843AC
:10299000E860286840F08070286000E05EE0E86849
:1029A00040F08070E860FFF7F7F8044605E000BFEC
:1029B000FFF7F2F8001B022809D828688001F7D534
:1029C0004CE000BFFFF7E8F8001B022802D9032003
:1029D000BDE8F88328688001F4D4E8681E490840FF
:1029E000E8603BE00128F3D0E868226A00F00301C8
:1029F000914226D1616A00F0F0020901103991423A
:102A00001FD1A26A00F4FE41B1EB022F19D194F854
:102A10002C2000F07841B1EBC26F12D1218E00F46E
:102A2000C00249084905A1F50011914209D194F865
:102A3000341000F0C06049084906A1F100718142DC
:102A40000CD00120C4E70000001002400C00002060
:102A5000007000400C809F01FCFFEEFE0020B7E7F5
:102A6000704770477047704770477047F0B590F8EF
:102A70003C20012A43D0012580F83C50022280F8F6
:102A80003D2003685A689C681E4E1F4FDFF87CC0CB
:102A9000B34203D0BB4201D0634504D122F4700E8F
:102AA0004A6842EA0E02DFF868E002EA0E02D1F854
:102AB00000E04EEA020EC3F804E00268B24212D00F
:102AC000B2F1804F0FD0134B9A420CD0124B9A4266
:102AD00009D0124B9A4206D0BA4204D0104B9A4207
:102AE00001D0624504D1896824F0800319439160C4
:102AF00080F83D50002180F83C100846F0BD0220CF
:102B0000F0BD0000002C01400034014000500140A5
:102B10008FFFFFFD0004004000080040000C004053
:102B20000040014010B590F83C400023012C0FD02C
:102B3000012480F83C406AB1042A21D0082A24D01C
:102B40000C2A29D00123002180F83C10184610BD22
:102B5000022010BD0268D46D24F00F040C43D4652C
:102B6000104A0168914202D00F4A914203D18A6E05
:102B700042F0010202E08A6E22F001028A66E2E778
:102B80000268D46D24F4706403E00268D46D24F408
:102B900070240C43D465D6E70268D46D24F07064C9
:102BA000F7E700000044014000480140704710B5BD
:102BB000040003D094F83D0010B107E0012010BDDF
:102BC000002084F83C00204600F022F8022084F81F
:102BD0003D00211D206800F0DDFF012084F8480041
:102BE00084F83E0084F83F0084F8400084F84100F7
:102BF00084F8420084F8430084F8440084F84500D7
:102C000084F8460084F8470084F83D00002010BD99
:102C100070B586B0064614216846FDF7A5FB3068FE
:102C2000B0F1804F39D11E49886D40F001008865B0
:102C3000886D00F001000590C86C40F00100C86488
:102C4000C86C022100F001000590012000258DE8EC
:102C50002300CDE9035069464FF09040FEF772FE25
:102C6000114C104820603820C4E901058020C4E9D7
:102C700003506561A561E56120462562FEF7BCFD54
:102C800008B1FDF7F7FC7462002205211C20A66242
:102C9000FFF710F81C20FEF7FFFF06B070BD000024
:102CA000001002401C000240F80A002090F83D107D
:102CB000012901D001207047022180F83D100168F0
:102CC000CA6842F00102CA6000681349884214D001
:102CD000B0F1804F11D0114988420ED0104988427E
:102CE0000BD01049884208D00F49884205D00F49BF
:102CF000884202D00E49884207D181680D4A1140AE
:102D0000062906D0B1F5803F03D0016841F00101EA
:102D10000160002070470000002C014000040040CA
:102D200000080040000C0040003401400040014019
:102D300000500140070001007047704770472DE9BF
:102D4000F041054690F83C0000260C46012810D0C2
:102D5000012085F83C0072B1042A1CD0082A2CD02E
:102D60000C2A50D00126002085F83C003046BDE8F2
:102D7000F0810220FBE7D4E90012E368286801F043
:102D80008BF82868816921F00C01816128688169CC
:102D9000A26811430FE0D4E90012E368286801F04B
:102DA000CDF82868816921F44061816128688169D2
:102DB000A26841EA02218161D5E72868D4E9002CA4
:102DC000277B036A016A21F480710162C16923F4DF
:102DD000206321F0030141EA0C0121F0F00C3907D6
:102DE0004FF420674CEA116107EA02221A43C161DD
:102DF00002622868C16921F00C01C1612868C169BB
:102E0000A26811432BE02868D4E90021E768036A2F
:102E1000D0F820C02CF4805CC0F820C0D0F81CC0D2
:102E200023F420432CF4407C4CEA012121F4704C23
:102E30004FF6FF7101EA07314FF4204741EA0C01D8
:102E400007EA02321A43C16102622868C16921F4AB
:102E50004061C1612868C169A26841EA0221C1617B
:102E600081E710B5040003D094F83D0010B107E0ED
:102E7000012010BD002084F83C00204600F022F81C
:102E8000022084F83D00211D206800F083FE01200F
:102E900084F8480084F83E0084F83F0084F840003D
:102EA00084F8410084F8420084F8430084F8440028
:102EB00084F8450084F8460084F8470084F83D0013
:102EC000002010BD704700002DE9F0411F469046DC
:102ED0000D0004464FF0000613D0042D16D0082D27
:102EE00019D00C2D1CD0102D1DD094F8430000BF1C
:102EF00094F84710022819D0022917D0012818D0B9
:102F0000C5E094F83E0094F84410F3E794F83F00CD
:102F100094F84510EEE794F8400094F84610E9E77D
:102F200094F84100E4E794F84200E1E70220BDE8AC
:102F3000F081012974D1B8F1000F71D0002F6FD04A
:102F40000220EDB3042D48D0082D4BD00C2D4ED0CF
:102F5000102D4FD084F8430084F847000122294601
:102F6000206800F089FE4D484D494E4A4DB3042D6E
:102F700057D0082D69D00C2D7BD001264A492068F6
:102F8000884214D0B0F1804F11D0484988420ED009
:102F9000474988420BD04749884208D04649884271
:102FA00005D04649884202D04549884207D1816808
:102FB000444A1140062909D0B1F5803F06D001E00E
:102FC00006E01AE0016841F0010101603046AEE719
:102FD00084F83E0084F84400C0E784F83F0084F899
:102FE0004500BBE784F8400084F84600B6E784F863
:102FF0004100B1E784F84200AEE7636AD862606AD4
:103000003B460163606A4263216842463431606A2C
:10301000FEF752FC20B92068C16841F4007112E04B
:1030200035E0A36AD862A06A3B460163A06A4263A6
:10303000216842463831A06AFEF73EFC38BB206862
:10304000C16841F48061C16098E7E36AD862E06AD0
:103050003B460163E06A4263216842463C31E06AD4
:10306000FEF72AFC98B92068C16841F40061EAE7DC
:10307000FFE7236BD862206B3B460163206B426302
:10308000216842464031206BFEF716FC08B1012052
:103090004DE72068C16841F48051D4E7933C0008B3
:1030A000013D0008393D0008002C014000040040AB
:1030B00000080040000C0040003401400040014086
:1030C00000500140070001002DE9F041044600686E
:1030D000C66805694FF00007A90713D5B10711D5D8
:1030E000F91E016101202077206880698007204651
:1030F00002D0FFF722FE04E000F0B7F8204600F00F
:10310000B5F82777680716D5700714D521686FF0D2
:1031100004000861022020772068806910F4407F55
:10312000204602D0FFF709FE04E000F09EF820469A
:1031300000F09CF82777280715D5300713D52168AC
:103140006FF008000861042020772068C0698007BC
:10315000204602D0FFF7F1FD04E000F086F820469B
:1031600000F084F82777E80616D5F00614D5216814
:103170006FF010000861082020772068C06910F403
:10318000407F204602D0FFF7D8FD04E000F06DF844
:10319000204600F06BF82777E80708D0F00706D044
:1031A00021686FF001000861204600F061F82806F0
:1031B00001D4A80408D5300606D521686FF4025062
:1031C00008612046FFF74DFCE80508D5300606D516
:1031D00021686FF4807008612046FFF741FC6806A3
:1031E00008D5700606D521686FF0400008612046BA
:1031F00000F07DF8A80608D5B00606D521686FF066
:10320000200008612046FFF72DFCE80208D5F002F7
:1032100006D521686FF4801008612046FFF724FC72
:10322000A80208D5B00206D521686FF40010086125
:103230002046FFF718FC680208D5700206D5216801
:103240006FF4800008612046FFF70FFC28020AD5C2
:10325000300208D521686FF4000008612046BDE8FF
:10326000F041FFF7A3BCBDE8F08170477047000054
:1032700010B5044600680749884201D1FEF792FC68
:103280002068B0F1804F03D1BDE8104001F0F8BED6
:1032900010BD00000010004070B5044690F83C00DE
:1032A000012812D0012584F83C50022084F83D000A
:1032B000204600F075FD01004FF0000007D084F8B3
:1032C0003D5084F83C00012070BD022070BD216893
:1032D000CA6822F04002CA602168CA6822F48042AB
:1032E000CA6084F83D5084F83C00002070BD7047EF
:1032F00090F88410012918D0012180F8841024212D
:10330000C0F8881001680A680B6823F001030B609D
:1033100022F0005100224266036819602021C0F8A3
:10332000881080F88420104670470220704770B5DE
:10333000044690F8840001281DD0012084F8840000
:103340002420C4F8880020680568026822F0010281
:1033500002602068826822F060620A438260204630
:1033600000F008FE206805602020C4F888000020D6
:1033700084F8840070BD022070BD70B5044690F8DA
:10338000840001281DD0012084F884002420C4F882
:10339000880020680568026822F001020260206847
:1033A000826822F060420A438260204600F0E2FD1B
:1033B000206805602020C4F88800002084F884007C
:1033C00070BD022070BD10B5040003D0D4F8880091
:1033D00010B107E0012010BD002084F884002046D1
:1033E00000F026F82420C4F888002068016821F045
:1033F00001010160A06A10B1204600F0DDFD204609
:1034000000F0BEFE0128E6D02068416821F490411A
:1034100041602068816821F02A018160206801688C
:1034200041F0010101602046BDE8104000F028BED7
:1034300010B59CB00446142115A8FCF795FF542143
:103440006846FCF791FF17492068884228D101207F
:103450000024CDE900046846FEF712FE08B1FDF72E
:1034600009F91148016E41F480410166016E01F4D1
:1034700080411A91C16C41F00101C164C06C15A971
:1034800000F001001A904FF4C06015900220CDE9C1
:1034900016040720CDE918404FF09040FEF752FA8D
:1034A0001CB010BD00380140001002402DE9F84367
:1034B0000446D0F88800984616460D46202802D0CB
:1034C0000220BDE8F883A5B19EB10020C4F89000A9
:1034D0002120C4F888001834FEF75EFBA6878146D9
:1034E000E68754F8100C2027183CB0F5805F02D016
:1034F00003E00120E5E7206910B12E46002510E029
:1035000000260EE08021204600F086FFC0B9DEB123
:1035100016F8010B21688862B4F85600401EA4F822
:103520005600B4F856004B464FF00002CDF800802C
:103530000028E7D14FF04001204600F06DFF40B178
:10354000C4F888700320BCE735F8020BC0F308000C
:10355000E0E7C4F888700020B3E7FEE700EB8100E5
:10356000006E00F0F84070478068C0F3C0007047FC
:103570008068C0F3800070478068C0F380007047A7
:10358000C06810F4406F01D00020704701207047E0
:10359000042303EAD15310B518444369C1F304511D
:1035A00007248C40A3438A401343436110BD00EBC2
:1035B0008100016E21F00041114301667047000057
:1035C00030B58BB0002408940994202168460A94F1
:1035D000FCF7CAFE20484FF0A041042501604FF4DB
:1035E0004031C0E90114C4600461C0E905450477B5
:1035F00044770121016280F82440C462046380F8AA
:103600003840C46380F84040FDF76AFB08B1FDF71D
:1036100031F808A910480894FDF778F808B1FDF7CB
:1036200029F80E4800900620CDE901047F2005947A
:10363000CDE9030569460848FDF718F908B1FDF71B
:1036400019F87F210448FDF717F8022204490248BF
:10365000FDF7EEFC0BB030BDA0000020002090B6BE
:103660000400002030B589B020216846FCF77CFEBC
:103670001E481D49002401604FF44031C0E9011487
:10368000C46004250461C0E9054504770121417740
:10369000016280F82440C462046380F83810C46377
:1036A00080F84040FDF71CFB08B1FCF7E3FF104831
:1036B000009006200190022002907F200594CDE921
:1036C000030569460948FDF7D1F808B1FCF7D2FFB8
:1036D0007F210648FCF7D0FF022206490348FDF788
:1036E000A7FC09B030BD0000000100500C01002013
:1036F000000029C3060000200B4810B509490160ED
:1037000000215022C0E901120161C1604161816163
:10371000FDF724FD08B1FCF7ADFFBDE810400248FD
:10372000FDF78ABE00020140D80100200C4810B508
:103730000A490160891541605021816000210161C1
:10374000C16041618161FDF709FD08B1FCF792FF9D
:10375000BDE810400248FDF76FBE000004020140C2
:10376000FC01002010B58CB030216846FCF7FCFD50
:103770001F491E4808600846FDF7A1FF08B1FCF785
:1037800079FF0220009000208DF804008DF80500DC
:103790000290039004210490CDE9050102460790B0
:1037A00069461348FDF770FE08B1FCF763FF10226D
:1037B00069460F48FDF768FE08B1FCF75BFFF82487
:1037C00000210B48FDF7D8FF002223461146084888
:1037D000FDF7C0FF10210648FDF7CEFF234600226B
:1037E00010210348FDF7B6FF0CB010BD00080050D3
:1037F00020020020094808B5816C41F00401816471
:10380000816C01F004010091816C41F0010181643F
:10381000806C00F00100009008BD00000010024024
:1038200010B5044A0021044800F096FF03490860DF
:1038300010BD0000AC5E0008753A000800000020D2
:1038400010B586B014216846FCF78EFD1148C16C96
:1038500041F00101C164C16C01F001010591C16C2D
:1038600041F00201C164C06C0B4C00F002000590F5
:10387000012206212046FEF789F90620009001204A
:103880000021CDE90101039169462046FEF75AF86F
:1038900006B010BD00100240000400480C4810B5EE
:1038A0000A49016000216022C0E901120822026178
:1038B000012202758161C162FEF72EFA08B1FCF7A0
:1038C000D9FEBDE810400248FEF7DABA0003014015
:1038D000340200200C4810B50A4901600021602222
:1038E000C0E9011208220261012202758161C162F0
:1038F000FEF712FA08B1FCF7BDFEBDE81040024821
:10390000FEF7BEBA040301407002002010B58CB06F
:10391000142104A8FCF728FD00242B480A940B94DA
:1039200009940094019402944FF080410394016043
:103930002721C0E90114C821C0E903148021816155
:10394000FFF735F908B1FCF795FE1F48FFF789FA34
:1039500008B1FCF78FFE042004904020CDE9050457
:1039600004A919480894FFF797FC08B1FCF782FEF8
:10397000099409A914480B94FFF778F808B1FCF7EB
:1039800079FE0A2000900120CDE901040022694659
:103990000D480394FFF7D3F908B1FCF76BFE002242
:1039A00001210948FFF7BEF808B1FCF763FE06489D
:1039B000FFF77CF94FF40063044A00210248FFF747
:1039C00083FA0CB010BD0000AC0A0020AC0200204D
:1039D000184810B5164901604FF46121416000217B
:1039E00081600C22C160C0E904128161C161016281
:1039F00041628162FFF7E7FC08B1FCF73BFE002162
:103A00000C48FFF7BAFC08B1FCF734FE0021094866
:103A1000FFF78DFC08B1FCF72DFE0648FFF768FCA8
:103A2000002803D0BDE81040FCF724BE10BD000004
:103A300000380140580B00200C4810B50A490160BD
:103A40000821017102214171C1710021017241728D
:103A50008172C172FEF73CFA002803D0BDE8104025
:103A6000FCF708BE10BD0000005C0040EC0B00201D
:103A7000FEE7FEE70D4C0E4E0E4F4FF4FA75002296
:103A800002212046FEF782F8284600F02AFE012295
:103A900002212046FEF77AF8284600F022FE3288FE
:103AA000398805A000F014FDE9E700000004004893
:103AB00006000020040000204144432056616C753C
:103AC00065733A202564202564200D0A000000005B
:103AD00010B54FF0E020006902F032F8012803D061
:103AE000BDE8104001F060BD10BD00B593B03821B5
:103AF0006846FCF739FC14210EA8FCF735FC0020C1
:103B0000FEF758FA222000904FF480700390402076
:103B1000049001210220CDE90610CDE9080114210D
:103B2000CDE90A100421CDE90C106846FEF796FD98
:103B300008B172B6FEE70F200E9003200F90002010
:103B400010901190129004210EA8FEF719FC002885
:103B500001D072B6FEE713B000BD00000248016854
:103B600041F470010160704788ED00E00148FFF703
:103B7000ABBA0000AC0A002010B50448FFF7A4FA65
:103B8000BDE810400248FDF766BD0000C80E0020E9
:103B9000200200202DE9F04F02682E4B2E4E2F4FB1
:103BA000DFF8BCC02F4C304D4FF0804B98420BD00B
:103BB000584509D0B04207D0B84205D0604503D07F
:103BC000A04201D0A84204D122F070084A6842EA1B
:103BD0000802DFF89880DFF89890DFF898A0984204
:103BE00011D058450FD0B0420DD0B8420BD060452F
:103BF00009D0A04207D0404505D0484503D05045E4
:103C000001D0A84203D122F44076CA6832434E69FB
:103C100022F08002324302608A68C2620A688262CD
:103C2000984209D0A04207D0404505D0484503D06E
:103C3000504501D0A84201D10969016301214161C8
:103C40000169C90703D0016921F001010161BDE8E3
:103C5000F08F0000002C01400004004000080040EC
:103C6000000C004000340140005001400040014081
:103C7000004401400048014010B501F01F0301213C
:103C8000046A99408C430462016A9A4011430162BC
:103C900010BD10B5846A0121626A824207D1217782
:103CA000C06938BB84F83E1084F8441022E0A26A50
:103CB000824208D102222277C069D8B984F83F1025
:103CC00084F8451016E0E26A824208D10422227785
:103CD000C06978B984F8401084F846100AE0226B75
:103CE000824207D108222277C06918B984F84110AE
:103CF00084F847102046FFF720F80020207710BDF9
:103D000010B5846A616A814201D101200DE0A16A87
:103D1000814201D1022008E0E16A814201D1042000
:103D200003E0216B814201D1082020772046FFF774
:103D300005F80020207710BD10B5846A0121626A61
:103D4000824203D1217784F83E1019E0A26A8242B0
:103D500004D10220207784F83F1011E0E26A824209
:103D600004D10420207784F8401009E0226B8242BD
:103D700004D10820207784F8411001E084F83D1038
:103D80002046FEF7D9FF0020207710BD10B58468CB
:103D900042EA032224F47F440A432243826010BD96
:103DA00070B505680024AA682F4B1A404B6813436E
:103DB0002E4A13400A681A43AA604A68702A26D01D
:103DC0000CDC12F00F0F1FD14FEA2212072A1BD270
:103DD000DFE802F01B1B1B1B243D43002449501A43
:103DE0008A4212D00ADCB2F5801F0ED0B2F1101F49
:103DF0000BD0203AB2F5801F06D106E0102804D07F
:103E0000202802D0402800D00124204670BD0B6934
:103E1000D1E902210068FFF7B9FFF6E70A68052A31
:103E200013D0B2F1011F10D00268156A136A23F093
:103E30000103136202689369096923F0F00343EAFE
:103E40000111916100680562DFE7012070BD0A6918
:103E50008968006800F00EF8D7E70A698968006889
:103E600000F05AF8D1E700008FFFCFFFF8FFFEFF08
:103E70003000100010B5036A046A24F001040462E3
:103E8000846924F0F00444EA021423F00A020A438D
:103E90008461026210BD000070B5056A046A24F0F6
:103EA000010404628469154EB04214D0B0F1804F11
:103EB00011D0134EB0420ED0124EB0420BD0124E63
:103EC000B04208D0114EB04205D0114EB04202D0DF
:103ED000104EB04203D124F00304144301E044F037
:103EE00001041A0724F0F00444EA126225F00A03E0
:103EF00001F00A0119438261016270BD002C01408A
:103F00000004004000080040000C00400034014064
:103F1000004001400050014010B5036A046A24F0DB
:103F200010040462846923F0A00324F4704444EA7A
:103F3000023243EA01118261016210BD30B5046AA8
:103F4000056A25F010050562856925F4407545EA86
:103F5000022222F470454FF6FF7202EA033224F087
:103F6000A0032A43A02404EA0111194382610162DB
:103F700030BD000030B5416EB9B1026891689268F9
:103F8000C1F342610B4B520F9C5CE50003F1080446
:103F9000A25CB5FBF2F2A0F86A205A5C615CD20028
:103FA000B2FBF1F1A0F8681030BD0121A0F86A1051
:103FB000F8E70000E85E000890F82810090706D529
:103FC00001684A68836B22F400421A434A6090F801
:103FD0002810C90706D001684A68C36A22F4003273
:103FE0001A434A6090F82810890706D501684A6884
:103FF000036B22F480321A434A6090F82810490774
:1040000006D501684A68436B22F480221A434A604D
:1040100090F82810C90606D501688A68C36B22F497
:1040200080521A438A6090F82810890606D50168E4
:104030008A68036C22F400521A438A6090F82810B0
:10404000490611D501684A68436C22F480121A436C
:104050004A60416CB1F5801F06D101684A68836CE3
:1040600022F4C0021A434A6090F82810090606D5C7
:1040700001684A68C06C22F4002202434A6070471B
:104080002DE9F84300260446C0F89060FDF784FD52
:104090008046206800684FF0200500076FF07E47DB
:1040A00013D54346002229042046009700F0B4F9B6
:1040B00058B1216851E8000F20F0800041E800026B
:1040C000002AF6D1C4F8885021E020680068400733
:1040D00022D5434600224FF480012046009700F08D
:1040E0009BF9C8B1216851E8000F20F4907041E8B5
:1040F0000002002AF6D12068083050E8001F21F0A5
:10410000010140E80012002AF5D1C4F88C5084F86F
:1041100084600320BDE8F883C4F88850C4F88C504C
:1041200044F86C6F666026760020F3E710B50268ED
:1041300052E8001F21F4907142E80013002BF6D1E1
:104140000E4B0268083252E8001F194042E8001482
:10415000002CF6D1C16E012908D1016851E8002F69
:1041600022F0100241E80023002BF6D12021C0F8F4
:104170008C100021C166416710BD0000FEFFFFEFFB
:104180002DE9F0410446016880682269E369104323
:10419000626900251A431043DFF84CC20A68934B4A
:1041A0001A4002430A6020684168E26821F44051E5
:1041B000114341602168A069614501D0226A104322
:1041C0008A688B4B1A4002438A602068C16A626A1F
:1041D00021F00F011143C1628649236886488B4252
:1041E0000DD1D0F8880010F0030006D0012867D068
:1041F000022854D0032851D164E001204FE07F49C8
:104200008B420BD1D0F8880010F00C0047D0042866
:1042100045D0082852D00C2840D153E078498B4231
:104220000BD1D0F8880010F0300038D0102847D0DB
:10423000202843D0302831D144E072498B420BD141
:10424000D0F8880010F0C00029D0402838D080284D
:1042500034D0C02822D135E06B498B420ED1D0F842
:10426000880010F440701AD0B0F5807F28D0B0F5E7
:10427000007F23D0B0F5407F10D123E063450DD1FE
:10428000D0F8880010F4406009D0B0F5806F17D0E6
:10429000B0F5006F12D0B0F5406F13D010205B4A1C
:1042A0005B4F00264FF40041634539D160B10228CD
:1042B0000DD004280DD0082831D10EE00220EEE701
:1042C0000420ECE70820EAE7FEF76EF903E0114668
:1042D00003E0FEF78DF901007BD0606A37F810200B
:1042E0006768B1FBF2F007EB4703834269D8B0EB94
:1042F000073F66D8002308461946FBF7EBFF090283
:1043000041EA106102027808101871413A46002310
:10431000FBF7E0FF3F4AA0F54071914257D950E0CA
:10432000E3694FF6EF788B422BD1092849D2DFE8B9
:1043300000F005080D48254848480E00FEF734F9FE
:1043400001E0FEF743F9010001D142E01146606A45
:1043500037F81000B1FBF0F04100606801EB50014C
:10436000B1FBF0F1A1F1100040452AD84FF6F072F0
:1043700001EA0200C1F34201084328E0FEF738F9E0
:10438000E1E709281DD2DFE800F005080D1C1E1C1E
:104390001C1C0E00FEF708F901E0FEF717F90100FA
:1043A00001D116E01146606A37F81000B1FBF0F158
:1043B000606801EB5001B1FBF0F0A0F11001414544
:1043C00004D9012505E0FEF713F9E8E780B221687A
:1043D000C8600120A4F86A0024F8680F2846E66047
:1043E0002661BDE8F081000000800040F369FFCF46
:1043F000FFF4FF110038014000100240004400406B
:1044000000480040004C0040005000400024F400F0
:10441000D05E0008FFFC0F002DE9F04799461746D3
:104420000D4604464FF00008089E33E0701C31D062
:10443000FDF7B2FBA0EB0900B04218D8BEB120686E
:104440000168490726D5802D24D0402D22D0C1698E
:10445000C94309070DD4082505622046FFF766FE0B
:10446000C4F8905084F884800120BDE8F0870320D0
:10447000FBE7C069C04300050CD421684FF400601D
:1044800008622046FFF752FE2020C4F8900084F80E
:104490008480ECE72068C06935EA000004D0002081
:1044A000B842C3D00020E0E70120F9E7012120F85D
:1044B000401F00210180818001820846704730F84A
:1044C000401F4BF680729143018000207047FEE749
:1044D0000FB4054B10B503A9044A029800F028F860
:1044E00010BC5DF814FB0000854600089C0000200D
:1044F0000907090E002804DB00F1E02080F8001411
:10450000704700F00F0000F1E02080F8141D7047A4
:1045100002E008C8121F08C1002AFAD1704770478C
:10452000002001E001C1121F002AFBD170470000EA
:104530002DE9FF4F89B09B460446002506E025285B
:104540000BD05A460B999047641C6D1C20780028AC
:10455000F5D10DB02846BDE8F08F0027B8460122FE
:10456000474900E0074314F8013F203B02FA03F0FB
:104570000842F7D120782E2819D114F8010F47F0FE
:1045800004072A280ED06FF02F022078A0F1300106
:1045900009290CD808EB880102EB410100EB010866
:1045A000641CF2E70A98641C50F8048B0A90207887
:1045B0000028CED0642808D0692806D075281ED0DF
:1045C0005A460B9990476D1C58E00A994FF00A091A
:1045D00001C90A91002802DA40422D2102E0390582
:1045E00004D52B218DF82010012103E0F90704D018
:1045F0002021F7E78A4608AE0DE00021FAE70A9984
:104600004FF00A0901C90A91F7E74946FBF7B7FEDF
:10461000303106F8011D0028F7D1ADEB060000F19E
:104620002009780701D44FF00108C84502DDA8EB46
:10463000090000E000208046002706E008A85A464E
:10464000C05D0B9990476D1C7F1C5745F6DB04E05D
:1046500030205A460B9990476D1CB8F10001A8F123
:104660000108F5DC05E016F8010B5A460B99904756
:104670006D1CB9F10001A9F10109F4DC641C65E7C6
:104680000928010013B54FF47A73012269460248E4
:10469000FEF70CFF00981CBD580B0020FDF78AFAAE
:1046A000FFF723FAFFF7CCF8FFF7A4F8FEF788FF2F
:1046B000FFF722F8FFF73AF8FFF728F9FFF788F934
:1046C000FFF7BAF9FEF7CEFFFFF74CF8FFF7E6F871
:1046D000FFF700F900F012F8FFF7A2F800F020F859
:1046E000FEE710B5EFF3058111B16FF0050403E0AB
:1046F000002408B100F0F8FD204610BDEFF305805E
:1047000010B16FF0050070470448016811B14FF017
:10471000FF30704701210160002070476C000020CD
:1047200010B5EFF3058010B16FF0050010BD08481B
:104730000168012902D04FF0FF3010BD054A002169
:1047400082F8141D0221016000F036FE002010BD29
:104750006C0000200BE000E02DE9FF414FEA01036F
:104760004FF00005EFF30581039549BB40B3802767
:10477000182100244AB3166806B1344696691EB162
:104780003146761E382E02D21679F60703D0002065
:1047900004B0BDE8F081566906B1B708D2F808C088
:1047A000BCF1000F0DD0D5685C2D18D312693AB159
:1047B00036B18DE806103A46214601F096F903908D
:1047C0000DE0D6685EB912694AB903AACDE90012B4
:1047D000BAB2214601F05CF9012800D00395039894
:1047E000D6E700002DE9F041134C0F460546E66878
:1047F0002068001D00F045FC681C07D137B1216816
:10480000BDE8F0410D48091D00F08ABC2068354420
:10481000B5424560216805D2A06BBDE8F041091D95
:1048200000F066BC606B091D00F062FCA06A854266
:1048300000D2A562BDE8F0811C0000200414002015
:104840002DE9F041054600F077FC2D4CA068401C96
:10485000A06020682B4F10B1606930B32BE0256059
:10486000A068012827D1002606EB860007EB800010
:1048700000F030FC761C382EF6D3234800F02AFCDA
:104880002148143000F026FC1F48283000F022FC9C
:104890001D483C3000F01EFC1B48503000F01AFC54
:1048A000194860631430A06305E02068E96AC06AB3
:1048B000884200D82560606A401C60626864E86ACB
:1048C0002169884200D9206100EB800007EB80005D
:1048D000291D00F025FC00F04FFC606900280CD079
:1048E0002068E96AC06A884207D208494FF08050C0
:1048F0000860BFF34F8FBFF36F8FBDE8F0810000FA
:104900001C000020540F0020B413002004ED00E030
:1049100038B500F011FC104C2068C8B90F4800F001
:10492000D9FB0E48143000F0D5FB0C48E060143081
:1049300020610A4B0020F03B009003F1500210214F
:104940000A2000F047FE206010B105A100F096FC9F
:10495000BDE8384000F010BC5800002008150020C9
:10496000546D72510000000030B4026C0B46002AF6
:104970000BD0C1681144C1608468A14201D30168B1
:10498000C16030BC1846FBF7D6BC30BC70472DE97F
:10499000F041856B174604460026026C82B1C7B110
:1049A000E068FBF7C8FCE168206C091AE160226846
:1049B000914202D2A168081AE060022F16D017E0D7
:1049C0002068A8B9A06801F033F906460020A0606D
:1049D0000EE06068FBF7AFFC216C60680844606023
:1049E000A168884204D32068606001E005B16D1EB3
:1049F0006D1CA5633046BDE8F08110B5044690F803
:104A0000590058B101280CD002280FD0502080F353
:104A10001188BFF34F8FBFF36F8FFEE7206B00F05D
:104A2000BFFB2046BDE8104000F0BABB10BD00003F
:104A300010484FF4A041420706D0C01D0D4920F098
:104A40000700411AC1F5A0410B4A00230144C2E905
:104A500000030839183A21F0070111604B600B6020
:104A60000B1AC0E9001393604FF00040536050618F
:104A700070470000E81B002088000020144E154CF1
:104A8000A6F29C474FF08058DFF84C9012E000BF30
:104A900000F052FBF068C568281D00F0F2FAA0682B
:104AA000401EA0606068401E606000F065FB284604
:104AB000FFF7A3FF60680028EAD138680128F9D918
:104AC000C9F80080BFF34F8FBFF36F8FF2E700008C
:104AD000F01300201C00002004ED00E070B51D461E
:104AE000049C51B1C4F80020C4E90F010121204603
:104AF00000F0A4FD84F84C5070BD2460F4E7000081
:104B00002DE9F05F8846DDE90B9415468346910058
:104B10009A460A9EA522206BFBF71FFC6FF003014B
:104B2000206B01EB8501084420F00707780707D0C8
:104B3000502080F31188BFF34F8FBFF36F8FFEE7D4
:104B40000025B8F1000F0FD05FF00000221818F810
:104B5000001082F8341018F8001011B1401C102811
:104B6000F4D384F8435001E084F83450382E00D355
:104B70003726E662C4E91365201D00F0B6FA04F199
:104B8000180000F0B2FA2461C6F138006462A06136
:104B9000656584F8585052465946384600F05AFA2E
:104BA0002060B9F1000F01D0C9F80040BDE8F09FC6
:104BB00030B5114900E011460A688242FBD34B68C8
:104BC0005C18844203D14068184448600846436832
:104BD0001C18944209D1084C183C2468A24209D000
:104BE00052681A4442600A6812680260814200D02A
:104BF000086030BD0460F9E78800002070B500242B
:104C000041600B4D0061914206D8D11A82699142F0
:104C100006D2011D286907E09A4203D2994201D3C6
:104C2000012403E0011DE86800F062FA204670BD2F
:104C30005800002010B5044600F07EFAA06B28B1A1
:104C40005FF0000400F098FA204610BD0124F9E757
:104C500030B589B03C4D6EE00498002806DADDE9F5
:104C60000601059A90470498002864DB069C606959
:104C700010B1201D00F005FA03A800F0D7F8024695
:104C800004980A2857D2DFE800F00505052D334ABD
:104C900005052D3394F8280040F0010084F8280021
:104CA0000599A069059B01442046FFF7A7FF68B35B
:104CB000216A2046884794F8280040073BD5002009
:104CC00000900598A169002342181946204601F07A
:104CD000B9F8D8B9502080F31188BFF34F8FBFF3D4
:104CE0006F8FFEE714F8280F20F00100207022E0FB
:104CF00094F8280040F0010084F828000598A0618D
:104D000028B1811813462046FFF778FF13E05020A2
:104D100080F31188BFF34F8FBFF36F8FFEE794F8D6
:104D20002800810703D4204600F03AFA03E020F07F
:104D3000010084F82800002204A9286800F0D2FDB0
:104D4000002889D109B030BD580000202DE9FC4170
:104D50000F46054600F074FB01A800F067F8044612
:104D6000019818B100F0DCFFBDE8FC81254EAFB121
:104D700030690068D0B30027291B3A46306800F03C
:104D800091FA00F0CDFF0028EED11F494FF080507E
:104D90000860BFF34F8FBFF36F8FE5E7A542EBD8F5
:104DA00000F0BEFFF0682746C068C468201D00F010
:104DB00068F994F82800410719D5A0692B464119D4
:104DC0003A462046FFF71AFFA8B1002003460146E5
:104DD00000902A46204601F035F860B9502080F353
:104DE0001188BFF34F8FBFF36F8FFEE707E020F00E
:104DF000010084F82800216A20468847B4E701278B
:104E0000BAE700005800002004ED00E00648416BBE
:104E1000096829B1416BC968C968496881627047EE
:104E20004FF0FF31FAE700001C00002070B5054686
:104E300000F094FE064E0446B068844203D200F0AF
:104E400009F8012000E0002028602046B46070BD11
:104E500058000020F8B5194D20E0C068C468066805
:104E6000201D00F00EF9216A2046884794F828009A
:104E7000400713D5A0693044B04206D92461606070
:104E8000211DE86800F034F908E0002003460146DF
:104E900000903246204600F0D5FF38B1E86801683E
:104EA0000029DAD12969C5E90310F8BD502080F343
:104EB0001188BFF34F8FBFF36F8FFEE758000020BC
:104EC00008484068401C4FF0500080F3118804D01F
:104ED000BFF34F8FBFF36F8FFEE7BFF34F8FBFF36B
:104EE0006F8FFEE790000020074CE068016841B139
:104EF000C0680021D0F80000FFF728FFFFF7A8FEE8
:104F0000F3E701210020F7E7580000202DE9F041E8
:104F1000044600F011F994F9455004F1240609E023
:104F2000606A48B1304600F0C3FE08B100F00AFAEA
:104F30006D1E6DB2002DF3DC4FF0FF3684F8456036
:104F400000F01AF900F0F8F894F9445004F1100751
:104F500009E0206948B1384600F0AAFE08B100F027
:104F6000F1F96D1E6DB2002DF3DC84F84460BDE8EC
:104F7000F04100F001B900002DE9F041054600279D
:104F800000F05EFA324E306808B9FFF751FD7069E3
:104F900005424ED1C5B3083568070ED005F00700AD
:104FA000C0F108000544680707D0502080F311883D
:104FB000BFF34F8FBFF36F8FFEE72DB3706885424D
:104FC00037D82348183001460C6801E020460C46CB
:104FD0006168A94202D221680029F7D131688C4268
:104FE00027D007682168016060680837411B1029D5
:104FF0000FD96019420708D0502080F31188BFF301
:105000004F8FBFF36F8FFEE713E041606560FFF7DE
:10501000CFFD61687068401A7060B268904200D23B
:10502000B060706901430020C4E90001F068401CD1
:10503000F06000F075FE780707D0502080F31188EB
:10504000BFF34F8FBFF36F8FFEE73846BDE8F081A7
:105050007000002010B5031F4FF080741C601B1FF0
:1050600021F001011960191F044B0B6014390A600B
:10507000091F6FF0020244380A6010BDC14E0008DB
:105080007047D0E9013201699A60D0E901235A6082
:105090004A68824201D182684A600022026108683F
:1050A000401E086008687047034B036003F15C0012
:1050B000086080201060704730150020044B0360AA
:1050C00003F15C0008604FF48070106070470000CE
:1050D0008C17002000F108014FF0FF32C0E90112E7
:1050E000C1600161002101607047002101617047CA
:1050F00030B50B685A1C02D000F1080202E00269C8
:1051000004E02246546825689D42FAD953684B60F2
:1051100099608A60516008610168491C016030BD76
:1051200042684A6093688B60936859609160086137
:105130000168491C01607047502080F31188BFF35B
:105140004F8FBFF36F8F0A494868401C48600128A1
:105150000CD10848006810F0FF0F07D0502080F3F2
:105160001188BFF34F8FBFF36F8FFEE770470000CA
:105170009000002004ED00E00849486828B1401E76
:10518000486001D180F311887047502080F3118866
:10519000BFF34F8FBFF36F8FFEE70000900000203A
:1051A00070B500282AD0164DA0F10804606869691E
:1051B000084207D1502080F31188BFF34F8FBFF30F
:1051C0006F8FFEE722683AB1502080F31188BFF359
:1051D0004F8FBFF36F8FFEE78843606000F030F9B8
:1051E00060686968084468602046FFF7E1FC286948
:1051F000401C2861BDE8704000F092BD70BD000009
:10520000700000204FF0E02000210161816105491C
:105210004FF47A720968B1FBF2F1491E416107212E
:10522000016170471800002010B5FBF73DF81149E7
:1052300010280ED300F1E02090F8F0030A78904295
:1052400007D2502080F31188BFF34F8FBFF36F8FC9
:10525000FEE709480068896800F4E060884207D9E1
:10526000502080F31188BFF34F8FBFF36F8FFEE79D
:1052700010BD0000900000200CED00E010B5084BC0
:10528000002200BF53F832401CB1521C082AF9D347
:1052900010BD43F8321003EBC201486010BD00009E
:1052A000140F002070B515460E460446FFF744FF64
:1052B00094F944100020491C01D184F8440094F969
:1052C0004510491C01D184F84500FFF755FFA06B3C
:1052D00028B92A46314604F1240000F051F820464E
:1052E000BDE87040FFF712BE10B5020014D00F48A1
:1052F000006B38B1502080F31188BFF34F8FBFF39C
:105300006F8FFEE700F09CF800211046FFF76AFA65
:1053100000F006FD002807D105494FF080500860D5
:10532000BFF34F8FBFF36F8F10BD00001C00002034
:1053300004ED00E002490A6A0260C96841607047F2
:105340001C00002001490120C86170471C0000209A
:1053500010B50C4650B1094909681831FFF7C8FE6D
:105360002046BDE810400121FFF73CBA502080F3F1
:105370001188BFF34F8FBFF36F8FFEE71C00002033
:1053800070B514460D4668B10A4909681831FFF72F
:10539000C7FE0CB14FF0FF3521462846BDE87040EE
:1053A000FFF720BA502080F31188BFF34F8FBFF36F
:1053B0006F8FFEE71C00002030B587B000240394F7
:1053C00005AA04A903A80494FFF76EFEDDE9030112
:1053D0000094CDE90110002315A11748059A00F0AB
:1053E00084FB164D0028E8621FD000F0FBFC01286A
:1053F00009D0401C19D1502080F31188BFF34F8F82
:10540000BFF36F8FFEE7502080F31188BFF34F8FFB
:10541000BFF36F8F4FF0FF30A86201206861EC602E
:1054200007B0BDE8304000F045B807B030BD00001F
:1054300049444C45000000007D4A00081C00002043
:105440000248016B491C0163704700001C000020EA
:10545000164810B5016B11B10121C16110BD0021C9
:10546000C1610169124A01E0B9B1491E01EB810332
:1054700052F82330002BF7D001EB810302EB8302BB
:1054800002F1080453685B685360A34201D15B6872
:105490005360DA680260016110BD502080F311880A
:1054A000BFF34F8FBFF36F8FFEE700001C0000209B
:1054B000540F00201CB537480168374A914207D184
:1054C000502080F31188BFF34F8FBFF36F8FFEE73B
:1054D00000683149491E884207D1502080F3118865
:1054E000BFF34F8FBFF36F8FFEE72C490878019011
:1054F000FF20087008788DF800009DF800009DF8E6
:10550000002000F0F000904207D0502080F3118876
:10551000BFF34F8FBFF36F8FFEE79DF80000204C65
:1055200000F0500020700720A06005E09DF80020EA
:1055300052008DF80020401E9DF800201206F5D480
:10554000A060032807D0502080F31188BFF34F8F4D
:10555000BFF36F8FFEE74FF44070A06001980870B2
:105560000C482030016841F470010160016841F08D
:1055700070410160FFF746FE00206060FAF75CFEB4
:105580000848016841F040410160FAF741FE0020FF
:105590001CBD000000ED00E071C20F4100E400E01E
:1055A0009000002034EF00E010B5502080F3118807
:1055B000BFF34F8FBFF36F8F00F0D6FA18B10449D5
:1055C0004FF080500860002080F3118810BD00006B
:1055D00004ED00E038B5049D18B153B1CAB181B1F2
:1055E00020E0502080F31188BFF34F8FBFF36F8FFF
:1055F000FEE7502080F31188BFF34F8FBFF36F8F0A
:10560000FEE7502080F31188BFF34F8FBFF36F8FF9
:10561000FEE739B1502080F31188BFF34F8FBFF3FD
:105620006F8FFEE750241C46012384F846302B463A
:105630000094FFF753FA204638BD000070B50D46C0
:10564000040025D0FFF778FDD4E90F20216802FB84
:105650000011A1600021A163216861600A46D4E9BC
:105660000F01401E00FB0121E16021464FF0FF3099
:1056700001F8440F487004F110008DB1FFF72AFDC6
:1056800004F12400FFF726FDFFF776FD012070BD31
:10569000502080F31188BFF34F8FBFF36F8FFEE769
:1056A00021690029F0D000F003FB0028ECD0044968
:1056B0004FF080500860BFF34F8FBFF36F8FE3E769
:1056C00004ED00E02DE9FF4782B01D468A464FF009
:1056D0000008040003D0BAF1000F08D011E05020F8
:1056E00080F31188BFF34F8FBFF36F8FFEE7206CFD
:1056F00038B1502080F31188BFF34F8FBFF36F8F05
:10570000FEE7022D0AD1E06B012807D0502080F37C
:105710001188BFF34F8FBFF36F8FFEE700F010FAD1
:105720003F4F4FF000094FF0805648B9049838B108
:10573000502080F31188BFF34F8FBFF36F8FFEE7C8
:10574000FFF7FAFCA06BE16B884207D3022D05D06E
:105750000498D0B1B8F1000F1AD01EE02A46514685
:105760002046FFF714F9616A19B104F1240000F032
:105770009FFA20B13E60BFF34F8FBFF36F8FFFF7EB
:10578000FBFC012006B0BDE8F087FFF7F5FC22E046
:105790006846FFF7CFFD4FF00108FFF7EDFCFFF77C
:1057A0004FFEFFF7C9FC94F94400401C01D184F876
:1057B000449094F94500401C01D184F84590FFF7CE
:1057C000DBFC04A9684600F029F930B12046FFF758
:1057D0009DFB00F0A5FA0020D4E7FFF7ADFCA06B1D
:1057E000E16B884213D1FFF7C7FC04F11000049964
:1057F000FFF7AEFD2046FFF789FB00F091FA002885
:105800009ED13E60BFF34F8FBFF36F8F98E7FFF7D6
:10581000B3FC2046FFF77AFB00F082FA90E7000025
:1058200004ED00E02DE9F0471F469046894604004C
:1058300003D0B9F1000F08D011E0502080F3118897
:10584000BFF34F8FBFF36F8FFEE7206C38B150204E
:1058500080F31188BFF34F8FBFF36F8FFEE7022FE6
:105860000AD1E06B012807D0502080F31188BFF3E4
:105870004F8FBFF36F8FFEE7FFF7D6FC5020EFF39B
:10588000118680F31188BFF34F8FBFF36F8FA06B2A
:10589000E16B884206D3022F04D0002086F31188E2
:1058A000BDE8F08794F94550A06B3A46494620463A
:1058B000FFF76DF8681C04D06D1C84F8455001207A
:1058C000ECE7606A0028FAD004F1240000F0F0F957
:1058D0000028F4D0B8F1000FF1D00121C8F8001071
:1058E000EDE700002DE9F747002683B08A46040063
:1058F00003D0BAF1000F08D011E0502080F31188D6
:10590000BFF34F8FBFF36F8FFEE7206C38B150208D
:1059100080F31188BFF34F8FBFF36F8FFEE700F066
:105920000FF9DFF8F4804FF000094FF0805748B9C5
:10593000059838B1502080F31188BFF34F8FBFF323
:105940006F8FFEE7FFF7F8FBA56BC5B15146204608
:10595000FFF70AF86D1EA563206950B104F110002D
:1059600000F0A6F928B1C8F80070BFF34F8FBFF35D
:105970006F8FFFF701FC012006B0BDE8F0870598A6
:1059800008B11EB106E0FFF7F7FB27E06846FFF716
:10599000D1FC0126FFF7F0FBFFF752FDFFF7CCFB30
:1059A00094F94400401C01D184F8449094F94500D6
:1059B000401C01D184F84590FFF7DEFB05A968463D
:1059C00000F02CF8002820460AD0FFF79FFA00F0DC
:1059D000A7F92046FFF72EF90028B3D00020CBE727
:1059E000FFF728F990B104F124000599FFF7B0FC06
:1059F0002046FFF78BFA00F093F90028A2D1C8F8EF
:105A00000070BFF34F8FBFF36F8F9BE72046FFF708
:105A10007DFA00F085F995E704ED00E02DE9F0410D
:105A20000C46050011D0C4B1FFF786FB174BDA68AE
:105A30006E682068911B471C17D02F681B6A9F4215
:105A400019D0964217D8012410E0502080F3118815
:105A5000BFF34F8FBFF36F8FFEE7502080F31188A5
:105A6000BFF34F8FBFF36F8FFEE70024FFF784FB78
:105A70002046BDE8F081884205D9401A20602846BA
:105A8000FFF758FCF1E700202060DCE71C00002055
:105A90002DE9FF5F8346DDE90E87994616468A4663
:105AA0009000FFF769FA05001CD05C20FFF764FA4C
:105AB000040014D00020256384F85900CDE9024089
:105AC000CDE900874B46324651465846FFF718F855
:105AD0002046FEF7B5FE012004B0BDE8F09F284641
